:020000040800F2
:1000000078D80020710200087D710008F14A0008CC
:1000100079710008F50B0008C5A800080000000071
:10002000000000000000000000000000A19D00088A
:10003000D911000800000000617900082DA2000815
:100040008B0200088B0200088B0200088B0200085C
:100050008B0200088B0200088B020008DD110008EB
:100060008B0200088B0200088B0200088B0200083C
:10007000750F00088B0200088B0200088B02000835
:100080008B0200088B0200088B0200088B0200081C
:10009000F90B00088B0200088B0200088B02000895
:1000A0008B0200081DA300088B0200088B020008C9
:1000B0002DA300088B0200088B0200088B020008A9
:1000C0008B0200088B0200088B0200088B020008DC
:1000D0008B0200087DA800088B02000895A8000884
:1000E0008B0200088B0200088B0200088B020008BC
:1000F0008B0200088B0200088B020008850F0008A5
:100100008B0200088B0200088B0200088B0200089B
:100110008B0200088B0200088B0200083DA3000838
:100120008B020008950F0008A50F0008B50F000806
:100130008B0200088B0200088B0200088B0200086B
:10014000090C00088B0200088B0200088B020008D3
:10015000C50F0008D50F0008E50F0008ADA800087E
:100160008B0200088B0200088B0200088B0200083B
:100170008B0200088B0200088B02000800000000C0
:100180008B0200088B02000800F002F800F061F812
:100190000AA090E8000C82448344AAF10107DA45E2
:1001A00001D100F056F8AFF2090EBAE80F0013F0D3
:1001B000010F18BFFB1A43F0010318476017010035
:1001C000801701000A444FF0000C10F8013B13F0B7
:1001D000070408BF10F8014B1D1108BF10F8015BA0
:1001E000641E05D010F8016B641E01F8016BF9D193
:1001F00013F0080F1EBF10F8014BAD1C0C1B09D1EA
:100200006D1E58BF01F801CBFAD505E014F8016B5B
:1002100001F8016B6D1EF9D59142D6D370470000ED
:100220000023002400250026103A28BF78C1FBD8FF
:10023000520728BF30C148BF0B607047782900F0D3
:100240001181002070471FB510F005FA1FBD10B5D1
:1002500010BD00F089FA1146FFF7F5FF0CF08CFE97
:1002600000F0A7FA03B4FFF7F2FF03BC00F0ACFA0A
:100270000948804709480047FEE7FEE7FEE7FEE73A
:10028000FEE7FEE7FEE7FEE7FEE7FEE70448054976
:10029000054A064B7047000009A3000889010008C1
:1002A0007898002078D8002078B8002078B800200E
:1002B00053EA020C00F069802DE9F04B4FF0000684
:1002C000002B1FBFB3FA83F503FA05F424FA05F6F1
:1002D0005E4012BF1643B2FA82F502FA05F4C5F188
:1002E00020051EBF22FA05FC44EA0C04203556EA1C
:1002F000044C4FEA144418BF641C4FF000084FF040
:100300000009904271EB030C39D3002919BFB1FAEF
:1003100081F701FA07F6B0FA80F700FA07F6C7F19D
:1003200020071EBF20FA07FC46EA0C062037B6FB62
:10033000F4FCA7EB0507103F07F01F0BCBF12006DD
:100340002CFA06F60CFA0BFB44BFB3460026202F0E
:10035000A4BF5E464FF0000B5BEA060C08BF4FF0EF
:10036000010B19EB0B0948EB0608ABFB027C06FB03
:1003700002CC0BFB03CCC01B71EB0C01C1E70B469D
:10038000024641464846BDE8F08B13B5084318BF06
:100390004FF0FF300146AFF30080BDE81C407047CE
:1003A00053EA020C23D010B54C1084EA530404D550
:1003B0004042C1F1000138BF491E1B4204D55242E0
:1003C000C3F1000338BF5B1EFFF772FF14F0804FCC
:1003D00004D04042C1F1000138BF491E14F0004F63
:1003E00004D05242C3F1000338BF5B1E10BD13B5E9
:1003F00040424FF0000070EB0104B8BF012001F053
:10040000004100281CBF6FF000414FF0FF30AFF3F8
:1004100000801CBD70B5044685690068C10601D521
:10042000302600E02026C00707D070BDD4E90121A6
:1004300030469047206A401C20626D1EF6D570BD84
:1004400070B5044685690078C00707D170BDD4E94E
:10045000012120209047206A401C20626D1EF6D5A5
:1004600070BD000070B504460D4621461068AFF31C
:1004700000802188090502D50F4A7A4402E00E4A1D
:100480007A440E32002104F1240305E000F00F0647
:100490000009965D5E54491C0028F7D1207800239E
:1004A000000704D5702D02D009B102231132204675
:1004B000BDE8704000F0F7B8C002010010B5431C61
:1004C00002E010F8011B71B18107FAD14FF001323F
:1004D00002C88C1A8C4314EAC211F9D0C01A0A0659
:1004E00003D0C01E10BDC01A10BD0A0401D0801E6A
:1004F00010BD0902FCD0401E10BD032A40F230801E
:1005000010F0030C00F0158011F8013BBCF1020F54
:10051000624498BF11F801CB00F8013B38BF11F8D5
:10052000013BA2F1040298BF00F801CB38BF00F8EC
:10053000013B11F0030300F02580083AC0F0088069
:1005400051F8043B083A51F804CBA0E80810F5E74D
:10055000121D5CBF51F8043B40F8043BAFF3008030
:10056000D20724BF11F8013B11F801CB48BF11F8A5
:10057000012B24BF00F8013B00F801CB48BF00F875
:10058000012B704710B5203AC0F00B80B1E818502D
:10059000A0E81850B1E81850A0E81850203ABFF46D
:1005A000F5AF5FEA027C24BFB1E81850A0E818500C
:1005B00044BF18C918C0BDE810405FEA827C24BF60
:1005C00051F8043B40F8043B08BF7047D20728BFEE
:1005D00031F8023B48BF11F8012B28BF20F8023B3D
:1005E00048BF00F8012B704702F0FF0343EA0322E3
:1005F00042EA024200F024B84FF000020429C0F0A1
:10060000128010F0030C00F01B80CCF1040CBCF144
:10061000020F18BF00F8012BA8BF20F8022BA1EB96
:100620000C0100F00DB85FEAC17C24BF00F8012B7B
:1006300000F8012B48BF00F8012B70474FF0000273
:1006400000B5134694469646203922BFA0E80C50C8
:10065000A0E80C50B1F12001BFF4F7AF090728BFA3
:10066000A0E80C5048BF0CC05DF804EB890028BF1F
:1006700040F8042B08BF704748BF20F8022B11F048
:10068000804F18BF00F8012B7047704770477047C4
:1006900010B500F061F8006810BD10B5044600F018
:1006A0005BF8046010BD2DE9F0470D46994692466F
:1006B000044600F124080168880604D5E06921F0A9
:1006C0001001216000E00120A84201DD471B00E08D
:1006D0000027A1697A1902EB0900081AA0612078A5
:1006E000C00602D42046FFF795FE002608E0D4E9B4
:1006F00001211AF806009047206A401C761C2062EF
:100700004E45F4DB2078C0060AD52046FFF782FE6E
:1007100006E0D4E9012130209047206A401C206285
:10072000381EA7F10107F4DC07E0D4E9012118F82D
:1007300005009047206A401C2062281EA5F1010593
:10074000F3DC2046FFF77CFE2078000602D502206D
:10075000BDE8F0870120FBE70048704798030020C0
:1007600000487047980300207546FFF7F9FFAE4632
:1007700005006946534620F00700854618B020B5AD
:10078000FFF784FDBDE820404FF000064FF0000762
:100790004FF000084FF0000BAC46ACE8C009ACE8E5
:1007A000C009ACE8C009ACE8C00921F007018D46DA
:1007B000704710B50446AFF300802046BDE81040F6
:1007C000FFF750BD7047000001491820ABBEFEE79F
:1007D0002600020080B50020C4F202001021012290
:1007E00002F0B8F880BD000080B50020C4F202001D
:1007F0001021002202F0AEF880BD0000704700001A
:1008000080B540F20040C4F202000121012202F052
:10081000A1F880BD80B540F20040C4F20200012181
:10082000002202F097F880BD7047000010B5E8B1D3
:100830004EF2180145F2003CCEF20001C0F2070C66
:1008400004E000BF0138020408BF10BD51F804ECF9
:100850000B6800220C68A342FCD01A44121BA3426E
:1008600098BF724462452346F4D3EBE710BD000005
:1008700080B54EF21801CEF20001C0EB001051F825
:1008800004CC4FEA401E0868002300BF0A6890426B
:10089000FCD003449B1A904298BF634473451046B2
:1008A00028BF80BDF2E7000010B5FFF7A7FFFFF7F4
:1008B000BBFF0BF09DFC04460BF026FD204310BD52
:1008C0002DE9F04383B08146002090460E46CDE9E5
:1008D0000000FFF789FF922000F0AAF8922000F0B4
:1008E000A7F86846451E06242F4600BF552000F095
:1008F0009FF8013C210607F8010FF7D1FFF76AFFC7
:10090000BDF90000BDF9021000EE100A40F200002F
:10091000C2F2000090ED001AB8EEC00ABDF9042042
:1009200021EE000A86ED000A00EE101A90ED001A82
:1009300002EE102AB8EEC00AB8EEC22A21EE000A72
:1009400021EE021A86ED010A86ED021AFFF762FF18
:10095000802000F06DF808242E4600BF552000F0DE
:1009600067F8013C210606F8010FF7D1FFF748FFB1
:100970009DF800000F2825D1BDF90200BDF9041033
:1009800000EE100A40F20400C2F2000090ED001ADE
:10099000B8EEC00ABDF9062021EE000A89ED000A72
:1009A00000EE101A90ED001A02EE102AB8EEC00AFE
:1009B000B8EEC22A21EE000A21EE021A89ED010AE0
:1009C00089ED021AFFF710FFA22000F031F8A220F3
:1009D00000F02EF8022400BF552000F029F8013C59
:1009E000210605F8010FF7D1FFF7F4FE9DF800008E
:1009F0009DF80110C00040EA51104FF6000100229E
:100A0000CFF6FF71B2EB902F18BF084300EE100A2B
:100A1000B8EEC00AB4EE001A20EE010AB3EE071ACF
:100A200030EE010A88ED000A03B0BDE8F083000053
:100A300080B582B08DF8070042F288704FF47A7C5E
:100A4000C2F200000DF107010DF106020123CDF8FD
:100A500000C002F029FE9DF8060002B080BD000033
:100A600080B5006841F20041C4F20001884218BF1D
:100A700080BD40F2A802C2F20002107840F20121CB
:100A80000130107042F2E070C2F2000000F08AF90A
:100A900080BD00002DE9F04184B00446006844F6B2
:100AA0000005C4F20005A84233D142F6A010C2F2FC
:100AB000000000680168C9062BD500210391016878
:100AC00003914168039103990168406842F6A010C0
:100AD000C2F2000003F01EFC42F26860C2F20000A5
:100AE00000684068132809D141F6181041F64C619E
:100AF000C2F20000C2F2000106F0A0FF42F6A01010
:100B000041F61811C2F20000C2F20001252203F0E2
:100B10008BFF206805F54C41884232D142F6E8103F
:100B2000C2F2000000680168C9062AD500210291BE
:100B3000016842F6E81802914068C2F2000802908B
:100B40000298404603F0E6FB42F2C860C2F20000A1
:100B5000006841F2E0774068C2F20007C043C6B2C5
:100B600041F6F041C2F200013846324607F0A2FCDD
:100B700038463146FFF740FD40463946FF2203F034
:100B800053FF206805F54841884202D004B0BDE813
:100B9000F08142F65810C2F2000000680168C906F0
:100BA000F4D500210191016842F658140191416881
:100BB000C2F200040191019901684068204603F0E7
:100BC000A9FB42F2A850C2F20000006841F6A95504
:100BD0004068C2F2000541F6F051C2F20001284619
:100BE00009F0DCFE204629460F2203F01DFF04B069
:100BF000BDE8F081FEE7000080B542F23040C2F26D
:100C0000000001F043F880BD80B542F25840C2F2C6
:100C1000000001F03BF880BDB0B588B00446002567
:100C20004FF400600690CDE902052046CDE900555D
:100C30000795CDE9045505F05FFA00285DD0204600
:100C400005F0A6FB002857D001AB20462021232227
:100C500005F010FC6B4620462421272205F00AFCF3
:100C600007AB20460021032205F004FC06AB20461A
:100C70000421072205F0FEFB05AB204608210B22CC
:100C800005F0F8FB04AB20461021132205F0F2FB1F
:100C900003AB20461421172205F0ECFB02AB2046E3
:100CA00018211B2205F0E6FB20466021042205F0F6
:100CB000A1FB20467021012205F09CFB20462A2141
:100CC000002205F097FB20462921912205F092FB96
:100CD00020462821012205F08DFB20462C210022F0
:100CE00005F088FB20462B21012205F083FB2046DE
:100CF00005F068FB054600E00025284608B0B0BDB9
:100D0000F0B585B000270C4605468DF810700397A6
:100D1000CDE9017705F0BCF940283FD306464006EF
:100D200005D406F0C000802807D1942100E090216E
:100D300001AA28460D2305F085FA06F018001028B0
:100D400015D19DF805209DF804101C2602F003071C
:100D500006EAD20242EA411102209DF806303944E7
:100D600020709DF80700090441EA032107E00120F3
:100D700020709DF804009DF80520C100500908432B
:100D80009DF80810C4F801006171DDF80900DDF874
:100D90000D100127C4F80600C4F80A10384605B043
:100DA000F0BD000080B542F6804CC2F2000C012379
:100DB000CCF8011008218CF800308CF8051051682F
:100DC0001268CCF80A106146CCF8062000F002F850
:100DD00080BD0000F0B581B042F634250446C2F271
:100DE00000050020286020460E4605F06DFA42F20C
:100DF0006831C2F200014207087012D43178D6F887
:100E00000100022922D101BA090CE0226980C0F355
:100E1000014102EA5032114408316970C0F3475071
:100E20001AE0C1061BD43178D6F8010002292BD173
:100E300001BA090CE0226980C0F3014102EA503294
:100E4000114408316970C0F3475023E000216980E4
:100E50004101C0F3D70069708127402128E0400696
:100E60001BD43178D6F80100022919D101BA090C36
:100E7000E0226980C0F3014102EA50321144083196
:100E80006970C0F3475011E0002169804101C0F34F
:100E9000D7006970822742210AE0002001B0F0BD2E
:100EA000002169804101C0F3D70069708427442183
:100EB00073792870063620462A46009605F03CF9DC
:100EC0002046394605F034FA012001B0F0BD00009B
:100ED00070B58AB042F2304401200021C2F2000411
:100EE0006D460E260890CDE90610CDE90011CDE93A
:100EF0000211CDE9041120462946099600F0C2FDF1
:100F0000204601F06BF92046022100F05DFD42F21F
:100F10005844C2F20004204629460996059600F07E
:100F2000B1FD204601F05AF92046022100F04CFDA7
:100F30000AB070BD10B582B0DDE904EC140A8DF87A
:100F400001201A0A8DF802204FEA1E228DF8042093
:100F50004FEA1C228DF806206A468DF800408DF875
:100F600003308DF805E08DF807C00BF04BFA02B0A6
:100F700010BD000080B542F26860C2F2000001F0CE
:100F80002DFA80BD80B542F24850C2F2000001F057
:100F900025FA80BD80B542F2C860C2F2000001F0BF
:100FA0001DFA80BD80B542F28840C2F2000001F017
:100FB00015FA80BD80B542F2E840C2F2000001F0AF
:100FC0000DFA80BD80B542F2A850C2F2000001F0D7
:100FD00005FA80BD80B542F22870C2F2000001F02F
:100FE000FDF980BD80B542F20860C2F2000001F058
:100FF000F5F980BD80B582B041F2040CCEF2000C50
:10100000DCF8001041F6F8020091C2F20002DDF8AF
:1010100000E00368126800990160DCF8000041F606
:10102000101C0190C2F2000C0199DCF80000814212
:1010300006D241F61410C2F20000016801310160CD
:10104000AEEB030000EE100A01EE102A0198B8EE94
:10105000400AB8EE411A80EE010ACCF8000002B056
:1010600080BD00002DE9F04383B041F20400CEF2D0
:101070000000016801910068029041F61010C2F270
:10108000000002990268914241F61411C2F2000177
:1010900002D20A6801320A60029A002602600868D9
:1010A000019D4FF0FF31E0FB015641F6F801C2F21D
:1010B000000141F608100F68C2F20000C0E90056B6
:1010C000284631463A460023FFF7F2F88046A0FB57
:1010D00007022D1A41F6FC0001FB0721C2F20000B5
:1010E00007688E4141F6E849C2F2000928463146B8
:1010F0003A460023C9F80080FFF7DAF80446A9F859
:10110000040080B241F600117843C2F20001281AAF
:101110000A6866F100010023FFF7CAF84FF47A71FC
:1011200008FB01F182B211FA84F101EE102A9FED61
:10113000082A00EE101AB8EE411AB8EE400A21EE65
:10114000021A31EE000AA9F8060003B0BDE8F083E8
:101150006F12833A10B54EF6FC5CCEF2000CDCF850
:10116000002044F24023C0F20F0342F08072584343
:1011700044F6D353CCF8002041F20002C1F26203DE
:10118000CEF200024FF0000CA0FB033EC2F804C0F8
:101190004DF683611368C4F21B31A0FB011443F0C8
:1011A0000101116041F6F801C2F20001086041F648
:1011B000FC014FEA9E10C2F20001086041F60011E6
:1011C000A00CC2F20001086041F61410C2F2000047
:1011D000C0F800C010BD00007047000010B542F21A
:1011E000E074C2F2000442F66041C2F200012046FF
:1011F00009F038FC022001F0CFFA204609F086FC05
:1012000010BD000072B600BFFEE70000B0B5A82018
:10121000FFF7A0FFFFF75CFE42F2E070C2F20000B1
:10122000FFF7FAFC42F29C31C2F20001087042F66C
:101230001010C2F2000002F06FFC42F2A854C2F299
:101240000004204601F084F842F20865C2F200056D
:10125000284601F07DF8204601F086F9284601F085
:1012600083F942F65814C2F20004204603F052F803
:1012700020681422C16841F01001C16041F6B841F4
:10128000C2F20001204603F0CFFB42F26864C2F2D2
:101290000004204601F05CF8204601F065F942F6B2
:1012A000A014C2F20004204603F034F8206825227E
:1012B000C16841F01001C16041F61811C2F200018D
:1012C000204603F0B1FB42F2C864C2F2000420469B
:1012D00001F03EF842F22875C2F20005284601F0FE
:1012E00037F8204601F040F9284601F03DF942F672
:1012F000E814C2F20004204603F00CF82068FF2234
:10130000C16841F01001C16041F2E071C2F2000118
:10131000204603F089FB40F63C04C4F2000432206E
:1013200020604FF4FA7001F00DFA00202060B0BD8B
:1013300010B52DED028B82B004468069B0EE408A74
:10134000019001A8FFF756FE206AE16802EE100A3C
:1013500004EE101A20EE081A30EE023A22EE042AA9
:1013600081EE031A82EE032A10EE100AE061208E4D
:10137000032871EE020A10EE901AE16004D304F122
:10138000320005F0FDFE06E0206901EE100A30EEA5
:10139000C11A81EE000AB4F85C0010EE101A03289E
:1013A00061620AD3E169626A04F15E0000EE101A1C
:1013B00000EE902A05F0E4FE0CE0616AE26AE06962
:1013C00000EE101A01EE102A30EE410A01EE100A6A
:1013D00080EE010A10EE100AA06220686168E368DE
:1013E00001EE100A606AA26802EE103A03EE101ACB
:1013F00004EE100A23EE043A21EE021A02EE102A3D
:10140000D4F88C1031EE031A22EE000A30EE010AF5
:1014100001EE101A10EE100AF1EE410AC4F888002D
:101420000BF07EFB10EE100AC4F88800E068616AD9
:101430002061E16202B0BDEC028B10BDB0B5044684
:101440001D4610EE100A002CC4F88C0018BF0029AD
:1014500006D1002020606060A060C4F88C0005E028
:1014600008682060486860608868A06010EE900A94
:10147000032A20622286A4F85C5004D304F13200CF
:10148000114605F057FF032D04D304F15E002946F1
:1014900005F050FF0020A061C4F88800B0BD000036
:1014A00041F62820C2F2000090ED690A7047000062
:1014B00041F62820C2F2000090ED680A7047000053
:1014C00041F62820C2F2000090ED6A0A7047000041
:1014D00041F62820C2F2000090ED6B0A7047000030
:1014E00070B581B00022009290F83C20012A01D111
:1014F000022176E00E6801221FFA86FC80F83C206B
:101500004FEA4C0212FA86F302680A2E32BF1032FA
:101510001E3B0C324FF0070E15680EFA03F4A5437C
:1015200015608D68146805FA03F323431360496856
:10153000062906D8026801EB8101053902F134035E
:101540000AE00C2901EB8101026887BF413902F1F1
:101550002C03233902F130031F221C688A4024EA3D
:1015600002021A601A680CFA01F1114342F2043EB9
:101570001960C4F2010E0168AEF54172914208BFD4
:10158000122E02D0914208D028E0DEF8003043F459
:101590008003CEF80030914220D126F001011029BD
:1015A0001CD1DEF80010102E41F40001CEF800101E
:1015B00014D140F2A401C2F2000109684DF6836221
:1015C000C4F21B32A1FB0212910C01EB8101490014
:1015D0000091009911B100990139F9E7002180F8D3
:1015E0003C10084601B070BD0068C06C7047000038
:1015F000002804BF0120704710B50446006C30B9C4
:10160000204600F09BF80020606484F83C00206CC9
:10161000C0063AD4206C41F202118843023042F2F3
:1016200004312064C4F20101086820F440300860ED
:101630000A6894E809101A43D4F810E00A60416877
:10164000012321F4807141604168C0F6007341EAD2
:101650000E214160416821F040714160416841EADA
:101660000C014160816821F400618160E168826859
:1016700011438160A16A8268994222F0706282609F
:10168000826804D122F040510AE0012052E0114367
:101690008160816821F040518160E16A8268114374
:1016A0008160816821F0020181608168227E94F866
:1016B000203041EA42018160416883B141F4006118
:1016C000416041684EF2000221F460414160616A6C
:1016D000CFF6FF72436802EB4131194301E021F478
:1016E00000614160C16A40F2000C21F47001C162E6
:1016F000E2696169CFF6F07CC36A0CEB02521A43CF
:10170000C262826822F40072826094F8302083689A
:1017100043EA42228260826822F4806282608268A8
:1017200042EA8121816000206064216C012262F321
:1017300001012164002184F83C1010BD80B586B001
:10174000006842F20022C4F2010200219042CDE979
:101750000411CDE90211019116D042F20001C4F248
:101760000101884238D10020009043F64400C4F2C1
:101770000200016841F480710160006800F480702B
:101780000090009806B080BD43F644000091C4F27A
:101790000200026842F480620260026802F4806221
:1017A0000092009A009150F8142C42F0200240F868
:1017B000142C50F8140C00F02000009000984FF406
:1017C000806001900320CDE9020141F20040C4F2A3
:1017D000020001A900F0EEFF06B080BDF0B581B0B7
:1017E000044600680D468268520544BF80685FEA7F
:1017F000C0502BD401F0B4F821680A68920715D4C0
:1018000006466F1C08E000BF20680068800727D5E7
:1018100021680868800709D4002FF9D0002DF3D083
:1018200001F09EF8801BA842EED8F1E76FF012009D
:101830000860206C40F400702064886810F0405FFD
:1018400001D1207EB0B1002001B0F0BD206C40F08D
:1018500020002064002084F83C00012001B0F0BD8D
:10186000206C40F004002064002084F83C00032039
:1018700001B0F0BDC86A10F4700F02D0886840054E
:10188000E1D4206C20F480702064206CC004DAD491
:10189000206C40F001002064D5E7000010B581B055
:1018A0000021009190F83C10012902D1022001B0E2
:1018B00010BD0468012180F83C10214651F8083F12
:1018C000DB0717D10B684DF6836243F001030B6011
:1018D00040F2A403C2F200031B68C4F21B32A3FB54
:1018E00002239A0C02EB42020092009A12B1009A73
:1018F000013AF9E70A68036CD20709D143F01001F5
:10190000016400F1440101200A681043086055E0B9
:1019100040F2017223EA020202F5807202646268F8
:10192000520504D5026C012363F30D320264026C8C
:101930004FF0000E0023D20444BF426C22F0060395
:1019400042F2043C436480F83CE06FF02200C4F2B1
:10195000010C2060DCF80000C0060DD0ACF5417031
:1019600084422BD14FF60450CFF6FF705CF8000094
:1019700010F0405F22D124E042F20000C4F20100E6
:10198000844217D042F20020C4F2010084420DD0FC
:1019900042F20010C4F2010084420FD1DCF80000D2
:1019A000C00607D0ACF58270844207D1DCF8000095
:1019B000C00603D4086810F0405F02D0002001B0D8
:1019C00010BD4FF080409FE790F82020013A012A97
:1019D00004D8006800F11402002004E000F12402A1
:1019E00001204FF4802113681943116070470000F3
:1019F00010B590F820E0D0F800C0AEF1010EBEF1B5
:101A0000010FDCF808E00ED81EF0E05F11D0CEF335
:101A1000016E012000FA0EF018608B687BB14868F7
:101A200043EAC0030DE000F1240101204FF48022BD
:101A300023E000F1240101204FF400121DE00868AA
:101A40004305D1E9030403430CEB0E10C0F88031C9
:101A5000C0F88441097D012905D100F5C2710B68E8
:101A600043F480730B605168C0F88C11126800F564
:101A7000C071C0F88821002001220B681A430A6057
:101A800010BD0000B0B590F82020013A012A2FD8EF
:101A900046F20060C4F20000026842F001020260F7
:101AA000026822F47C520260D1F814E0CC694A6AE0
:101AB0000368012C43EA022202600EF01F024FF07D
:101AC000010303FA02F2C3696FEA020C23EA02037C
:101AD000C36113D02CBBC36803EA0C03C360CB689B
:101AE0008C8844EA034300EBCE0423640B4611E0E8
:101AF000416A41F4802141620120B0BDC3681343B3
:101B0000C3600B688C8844EA034300EBCE04236473
:101B100001F10C038C681B8843EA044300EBCE04FC
:101B2000636443688D6943EA0204D1F810E0096AEE
:101B3000002D08BF03EA0C0444604369BEF1000FA6
:101B400043EA020408BF03EA0C040129446102D1FC
:101B5000C1691143C161016821F0010101600020E8
:101B6000B0BD00007047000010B590F82040013C67
:101B7000012C0AD8046871B12469A4070ED100F1C0
:101B8000240101204FF4001276E000F1240101202D
:101B90004FF4802270E0E468A40771D0046804EB7D
:101BA000011CDCF8B0410CF5D87E14F004049460FC
:101BB000DCF8B04119BFE4085460640D1460DEF82D
:101BC00000400CF5DA7E04F00204D460DCF8B44185
:101BD00024075ABFDEF8004004F00F040824146103
:101BE000DEF800400029C4F307249461DEF80040C9
:101BF0004FEA14445461DCF8B8211A70026802EB11
:101C00000112D2F8B8214FEA12225A70026802EB90
:101C10000112D2F8B8214FEA12429A70026802EB20
:101C20000112D2F8B8214FEA1262DA70026802EBB0
:101C30000112D2F8BC211A71026802EB0112D2F82B
:101C4000BC214FEA12225A71026802EB0112D2F84B
:101C5000BC214FEA12429A71026802EB0112D2F8DB
:101C6000BC214FEA1262DA71006814BF00F1100162
:101C700000F10C01002020220B681A430A6010BDFD
:101C800000F1240101204FF40012F5E72DE9F04F97
:101C900081B0044600684669D0F804908768D0F89F
:101CA0000CB0D0F810A0D0F81880F10703D10025AF
:101CB00030071CD423E0F90710D00121BA07816056
:101CC00009D4780700F1AA80380700F1B0802046D7
:101CD00000F0B2FA02E0204600F0B0FA0025F80564
:101CE00000F18480F80300F1AA80300707D51BF0CB
:101CF000100004D0206845F400751021C160700701
:101D000008D51BF0080005D020680821C1602046D6
:101D100000F0E4F9B00706D52068C068800702D05B
:101D2000204600F0DDF9700607D51AF0100004D047
:101D3000206845F4806510210161B00608D51AF0CD
:101D4000080005D0206808210161204600F040FA13
:101D5000F00606D520680069800702D0204600F012
:101D600039FAB00308D519F0100005D02068102109
:101D70004160204600F030FAF00308D519F0080061
:101D800005D0206808214160204600F061FA300447
:101D900040F18F805FEA497040F1888006F48070DE
:101DA00008EA102028435FEA8871014648BF41F0E5
:101DB0000201B20558BF01465FEA48700D4648BFB0
:101DC00045F00405700558BF0D4630056ED518F076
:101DD00070006BD010380009052862D8DFE800F0E9
:101DE000035356595C5F45F008055AE020684FF4EC
:101DF0008071BA0581600AD4780512D4380519D4E7
:101E0000204600F01DFAF8037FF56FAF17E020467B
:101E100000F018FAF8037FF568AF10E04FF40065A2
:101E20005DE705F50055F8037FF55FAF07E04FF478
:101E3000805554E705F58045F8037FF556AF2068D7
:101E40004FF48031BA0381600AD478030FD4380389
:101E500013D4204600F0F8F930073FF548AF4EE7BD
:101E6000204600F0F3F930073FF541AF47E705F5AD
:101E7000004530073FF53BAF41E705F580353007BA
:101E80003FF535AF3BE745F010050AE045F020058A
:101E900007E045F0400504E045F0800501E045F429
:101EA00080752068816921F07001816120680421BA
:101EB00041602DB1606A284360622046FFF752FE00
:101EC00001B0BDE8F08F0000B0B5C8B1044690F88D
:101ED000200010B9204600F071F82068016841F038
:101EE0000101016000F03CFD054600BF206841682B
:101EF000C90707D100F034FD401B0B28F6D312E0D0
:101F00000120B0BD016821F00201016000F028FD50
:101F1000054600BF2068416889070DD500F020FD07
:101F2000401B0B28F6D3606A052140F40030606244
:101F3000012084F82010B0BD217E0268012922F022
:101F4000800208BF80320260617E0268012922F0AF
:101F5000400208BF40320260A17E0268012922F0DF
:101F6000200208BF20320260E17E0268012922F0CF
:101F7000100218BF10320260217F0268012922F08E
:101F8000080208BF08320260617F0268012922F05E
:101F9000040208BF04320260D4E901C2D4E9033567
:101FA00061691A432A431143ACF101021143C16133
:101FB00000200121606284F82010B0BD10B586B009
:101FC000006846F60002C4F2000200219042CDE90A
:101FD0000411CDE90211019134D046F20041C4F25E
:101FE0000001884277D141F63411C2F200010A683B
:101FF00043F64000C4F20200531C0B6052B90021AA
:102000000091016841F000710160016801F0007108
:10201000009100990021009150F8101C142441F007
:10202000080140F8101C50F8100C00F00800009057
:1020300000980320019040F20040C4F2020000F535
:10204000006035E043F64000C4F2020000910168F0
:1020500041F080610160016801F0806100910099A8
:1020600041F63411C2F200010A68531C0B6052B9E8
:1020700000210091016841F000710160016801F0E8
:102080000071009100990021009150F8101C40242B
:1020900041F0020140F8101C50F8100C00F0020052
:1020A000009000986020019040F20040C4F20200CD
:1020B000022102910021039103210491092105913C
:1020C00001A900F077FB20460521002200F002FD67
:1020D000204600F0EFFC06B010BD00007047000085
:1020E00010B58AB003AA6B4600210446FFF73CFDF9
:1020F00042F23040C2F20000844207D042F258401F
:10210000C2F2000084421FD00AB010BD0398A0F2B2
:1021100001200728F2D8DFE800F005043F46040458
:102120000450EBE740F2F830C2F2000000F59B608B
:10213000694606F0ADF8DDE9000142F67842C2F2E8
:102140000002C2E90001D9E70398B0F5427F0ED042
:10215000B0F5017F14D0B0F5A17FD5D140F2F830B1
:10216000C2F20000694603F045FF0AB010BD41F617
:10217000E000C2F20000694605F024FC0AB010BD80
:1021800040F2F830C2F2000041F2C811084469463A
:1021900006F07EF80AB010BD40F2F830C2F200003E
:1021A00000F6281005E040F2F830C2F2000000F519
:1021B000E060694606F06CF8A0E740F2F830C2F241
:1021C000000000F52C70694608F05CFC96E7000002
:1021D000704700007047000070470000B0B504462B
:1021E00090F8200001281DD1022084F820002068EA
:1021F000016821F00101016000F0B2FB054600BF5B
:1022000020684068C00713D000F0AAFB401B0B28D1
:10221000F6D3606A40F400306062052084F8200044
:102220000120B0BD606A40F4002060620120B0BDB2
:1022300000206062B0BD00007047000070470000E1
:1022400070470000704700007047000070470000B2
:1022500070470000002804BF0120704710B50446F5
:10226000407920B900202071204600F005F80120B7
:102270006071002010BD000081B043F63001C4F24F
:1022800002010068A1F50362904201D001B07047DD
:1022900000200090086840F480500860086800F44E
:1022A00080500090009801B07047000070B5866DB6
:1022B000044600F055FB94F83510022925D1054657
:1022C0002068216C026822F016020260426922F046
:1022D0008002426109B9A16C19B1016821F00801BD
:1022E0000160016821F00101016000BF2068006801
:1022F000C0070ED000F034FB401B0628F6D3202088
:102300006065032084F835000CE0802060650120C2
:1023100008E0E06D3F2101FA00F0B060012084F890
:1023200035000020002184F8341070BD90F835107D
:10233000022909D1052180F835100068016821F0D3
:102340000101016000207047802141650120704734
:10235000B0B500283FD090F83510022904BF022004
:10236000B0BD02686FF00F034AF6AB21D2F800C08F
:1023700053FA82F5CAF6AA21A5FB011E2CF0010131
:10238000116000212123116051609160D1601161C1
:10239000536140F6A0434FEA1E1CC0F6010313F838
:1023A0000C3040F2FF34A2435F2D4FF03F0588BF51
:1023B0000432C0E9162305FA03F3C0E90F11C0E99E
:1023C0001111C0E913119360416580F8351080F850
:1023D00034100846B0BD0120B0BD0000F0B581B09A
:1023E00004460020009040F2A400C2F200000268FF
:1023F000D4E9166048F2B51337680821C1F64E33A8
:1024000081403942A2FB03250CD0226813685B0788
:1024100008D5136823F004031360B160616D41F0C7
:102420000101616501218140394208D02268526969
:10243000120604D5B160616D41F0020161650421AD
:102440008140394208D022681268920704D5B160F1
:10245000616D41F00401616510218140394215D060
:1024600020680268120711D5B16002680168520342
:1024700006D4C90506D4016821F00801016001E015
:10248000080340D4216C09B120468847E16D202023
:1024900000FA01F23A4242D020680368DB063ED5DA
:1024A000B26094F835300268052B1CD122F0160278
:1024B0000260426922F080024261226C0AB9A26C79
:1024C0001AB1026822F0080202603F208840B06022
:1024D000012084F83500216D0020002984F83400A3
:1024E0003DD101B0F0BD0168520310D4C90512D42A
:1024F000016821F010010160012084F835000020FE
:1025000084F8340007E0A16C0029BDD1BEE70803C0
:1025100001D4616C00E0E16B09B120468847606D31
:102520000028DED0606DC00716D0052084F8350085
:102530002068A90A026822F001020260009A0132B2
:102540008A42009202D80268D207F7D1012084F8AB
:102550003500002084F83400E16C0029C1D0204609
:10256000884701B0F0BD00002DE9F041044600F0BD
:10257000F7F9C4B10546022084F83500002021682F
:1025800084F83400086820F00100086020680168C1
:10259000C9070BD000F0E4F9401B0528F6D9032148
:1025A000202203207BE00120BDE8F081016848F291
:1025B0003F02CFF21002D4E9013501EA020ED4E95C
:1025C000032143EA0E032B43D4E9056C1A4311435C
:1025D000D4E90778314341EA0C02616A3A4304299D
:1025E00042EA080304D1D4E90B271A4342EA07035D
:1025F00003604269042922F0070241EA02012DD159
:10260000D4E90A5341EA050143B3BCF5005F08D0A1
:10261000BCF1000F12D1022D16D0012D07D09DB1B3
:1026200019E0032D17D8DFE805F00B0F0B02A3F11B
:10263000C072B2FA82F252094AB90FE0032D02D2F7
:10264000012222B90AE006D1C3F3006232B10121AE
:102650004022012023E00022002AF8D16FF00F026F
:102660004AF6AB2352FA80F2CAF6AA23A2FB03373A
:1026700040F6A04341613909C0F60103595C40F2BC
:10268000FF3398435F2A4FF03F0288BF0430C4E90C
:10269000160102FA01F18160002201210020626529
:1026A00084F83510BDE8F08170B590F834C0BCF105
:1026B000010F45D04FF0010C80F834C0D0F858E03D
:1026C00090F835C0BCF1010F37D14FF0020C80F803
:1026D00035C04FF0000CC0F854C0D0F800C084687A
:1026E000056CC06DDCF80060402C26F48026CCF828
:1026F0000060CCF804300B4604BF13460A463F2165
:1027000001FA00F0CCF80830CCF80C20CEF8080024
:10271000DCF8000040F01600CCF800002DB1DCF829
:10272000000040F00800CCF80000DCF8000040F0A9
:102730000100CCF80000002070BD002180F83410AA
:10274000022070BDB0B5044600F00AF9054640F21B
:102750008430C2F200000078611C18BF044400BF3E
:1027600000F0FEF8401BA042FAD3B0BD022818BF0B
:10277000704710B542F2E074C2F2000442F66041C4
:10278000C2F20001204608F06DF9204608F0BEF9BB
:10279000BDE810407047000080B543F61441C4F214
:1027A00001010A68024208BF80BD0860FFF7DEFF32
:1027B00080BD00002DE9F04F82B000F13E4241F6AD
:1027C000004502F1FF77C4F2020508224FEAB7265E
:1027D000A84208BF0722072E38BF4FEAB7224FF0A2
:1027E000010A002400274FF00009009209E000BF11
:1027F00009F101090437B9F1100F04F1020400F0E6
:10280000A6800A680AFA09FC12EA0C08F0D0D1F88E
:1028100004B00BF0030AAAF10102012A12D882685F
:102820000323CE6803FA04FE22EA0E02A6403243D6
:1028300082604268CBF3001622EA0C0206FA09F61F
:1028400032434260BAF1030F1DD0C26803238D6882
:1028500003FA04F6B24305FA04F63243BAF1020F62
:10286000C26010D16FF0030202EA59020244D2F8AA
:1028700020C007F01C050F230E69AB402CEA0303B0
:10288000AE4033431362026803234E68A3409A4369
:1028900006F00303A3401A4316F4403F4FF0010A29
:1028A0000260A5D0002243F644030192C4F2020361
:1028B0001A6843F6004E42F480421A601A68C4F265
:1028C000010E02F480420192019A29F003024FF6B0
:1028D000084C7244CFF6FF7C52F80C3007F00C061F
:1028E0000F25B540AB43009D05FA06F6334342F889
:1028F0000C30DEF808204B6842EA080643F60C4C20
:10290000DD0258BF22EA0806CEF80860C4F2010CC6
:10291000DCF800209D0242EA080658BF22EA0806B9
:10292000CCF80060DEF804209D0342EA080658BF98
:1029300022EA0806CEF80460DEF80020DB0342EA53
:10294000080658BF22EA0806CEF8006050E702B039
:10295000BDE8F08F002A08BF0904816170470000BC
:1029600049F2A000C2F200000068704740F28430D3
:1029700049F2A001C2F20000C2F2000100780A6828
:10298000104408607047000080B543F60040C4F270
:102990000200016841F400710160016841F4806146
:1029A0000160016841F480710160032000F0BEF80D
:1029B0000F2000F005F800F059F8002080BD00005D
:1029C00070B586B0002543F640010195C4F20201BE
:1029D0000A68044642F001020A60096801A801F091
:1029E000010101910199694600F060F9049E002EF1
:1029F00018BF012600F07AF94DF68361B040C4F2A9
:102A00001B31A0FB01014FF0FF3000EB914142F67A
:102A10008000C2F200004FF0804240F2E733C0E98C
:102A20000021C0E902530561856100F0C9FF054638
:102A3000C0B942F68000C2F2000001F06DF8054610
:102A400080B91C2000F036F80F2C0AD81C20214633
:102A5000002200F03FF840F28830C2F2000004602B
:102A600000E00125284606B070BD000080B582B0A8
:102A7000002043F640010190C4F202014A6842F48A
:102A800080424A604A6802F480420192019A0090B2
:102A90000868002240F08050086008680F2100F0AC
:102AA0008050009000986FF0010000F013F802B021
:102AB00080BD0000002848BF704700F01F010122C0
:102AC00002FA01F14EF200124009CEF2000242F881
:102AD0002010704710B54EF60C5CCEF2000CDCF8FE
:102AE0000030C3F3022E8EF00704042C28BF042408
:102AF000BEF103034FF0FF3E0EFA04F438BF00238B
:102B0000A14399400EFA03F39A4300F00F03043BEC
:102B10001143634409010C3300F16042B0F1FF3FFF
:102B2000C8BF02F56443197010BD00004EF60C5189
:102B3000CEF200010A684FF6FF031A4060F30A2242
:102B400042F0806040F0FD70086070472DE9F04170
:102B5000002800F08B8043F60808C4F202080446FF
:102B6000D8F8F8030D4600F00700884207D288F82D
:102B7000F853D8F8F80300F00700A84276D120688F
:102B8000810717D5410705D5D8F8001041F4E05169
:102B9000C8F80010010705D5D8F8001041F46041CD
:102BA000C8F80010D8F80010A26821F0F001114315
:102BB000C8F80010C0073FD1D8F8F80300F00700AC
:102BC000A84207D988F8F853D8F8F80300F00700AE
:102BD000A8424BD12068410707D5D8F80010E26819
:102BE00021F4E0511143C8F80010000708D5D8F8C7
:102BF0000000216920F4604040EAC100C8F80000EC
:102C000000F09CF8D8F8001040F69812C1F30311B8
:102C1000C0F60102515C40F2A40220FA01F140F238
:102C20008830C2F200000068C2F200021160FFF7B3
:102C3000C7FE0020BDE8F0816068811E022907D22E
:102C400058F8081C89015CBF0120BDE8F08110E044
:102C5000012807D158F8081C89035CBF0120BDE892
:102C6000F08106E058F8081C890702D40120BDE86D
:102C7000F081D8F8001021F003010843C8F80000E3
:102C8000FFF76EFE064641F2883700BFD8F8000015
:102C9000616800F00C00B0EB810F8DD0FFF760FE93
:102CA000801BB842F2D90320BDE8F0810F220260F8
:102CB00043F60802C4F20202136803F00303436000
:102CC000136803F0F0038360136803F4E053C360F8
:102CD000D2F800C04FF4E05303EADC030361D2F8FA
:102CE000F80300F0070008607047000040F2A400FD
:102CF00043F60801C2F20000C4F20201006809684C
:102D000040F6A812C1F38221C0F60102515CC8400E
:102D10007047000040F2A40043F60801C2F2000030
:102D2000C4F202010068096840F6A812C1F34231FA
:102D3000C0F60102515CC8407047000010B543F670
:102D40000404C4F20204606800F00C0008280AD0F1
:102D5000042819BF42F20040C0F2F40041F60030EE
:102D6000C0F2B70010BD206821682368490241F60F
:102D70000031C0F2B70100F03F02C3F388105CBF1E
:102D800042F20041C0F2F401A1FB00010023FDF773
:102D90008FFA21680222C1F3014102EB4101B0FB2D
:102DA000F1F010BD2DE9F04182B0002800F0A280C2
:102DB0000446007843F60006C007C4F2020643D07A
:102DC000B06800F00C00042805D1306880033BD5C2
:102DD0006068C8BB8EE0B06800F00C00082802D123
:102DE00070684002F1D46568B5F5A02F0AD0B5F53A
:102DF000803F0BD0306820F480303060306820F4A1
:102E0000802006E0306840F480203060306840F474
:102E100080303060FFF7A4FD002D054611D000BFC3
:102E20003068800310D4FFF79BFD401B6428F7D95E
:102E300022E100BFFFF794FD401B64284FF0030020
:102E400055D830688003F5D4207880071AD5B0684B
:102E500010F00C0F09D0B06800F00C00082840F00A
:102E60008A807068400200F186803068800702D551
:102E7000E06801283ED13068216920F0F80040EA7E
:102E8000C10030602078000738D4207840074CD447
:102E9000A5695DB3B06800F00C00082840F09E8082
:102EA000012D27D07068E16900F480028A4221D1A7
:102EB000216A00F03F028A421CD147F6C071626A63
:102EC0000140B1EB821F15D1A26A0023CFF6FF7338
:102ED00003EBC23200F440316FF30F02914209D18B
:102EE000E16A00F07060B0EB016F03D1002002B026
:102EF000BDE8F081012002B0BDE8F08160690028E2
:102F000040F20000C4F2472057D00121C0F8801ED3
:102F1000FFF726FD054600BF706F8007B5D4FFF7A9
:102F20001FFD401B0228F7D9A6E0306C10F0805836
:102F30000AD100200190306C40F080503064306C39
:102F400000F080500190019847F20007C4F200079A
:102F50003868C00524D4386840F480703860FFF7C2
:102F6000FFFC05463868C0051AD4FFF7F9FC401B82
:102F70000228F7D980E0E068002851D00020C4F290
:102F8000472001210160FFF7EBFC05463068800710
:102F90003FF571AFFFF7E4FC401B0228F6D96BE068
:102FA000A568052D50D0012D52D0306F20F00100C2
:102FB0003067306F20F004004DE00021C0F8801E23
:102FC000FFF7CEFC054600BF706F80077FF55DAF51
:102FD000FFF7C6FC401B0228F6D94DE00027C4F2DB
:102FE000472700203866FFF7BBFC022D05460BD1B2
:102FF0003068800158D5FFF7B3FC401B02284FF022
:103000000300F5D973E700BF306880017FF56EAF2C
:10301000FFF7A6FC401B02284FF00300F4D966E737
:103020000020C4F2472000210160FFF799FC05460B
:10303000306880077FF526AFFFF792FC401B02281F
:103040004FF00300F4D952E7306F40F004003067CE
:10305000306F40F001003067FFF782FC002D05461D
:1030600041F2883714D000BF306F800713D4FFF7C8
:1030700077FC401BB842F7D9032002B0BDE8F081CD
:10308000FFF76EFC401BB8424FF003003FF62FAF36
:10309000306F8007F4D4B8F1000F7FF4F9AE306CD4
:1030A00020F080503064F3E604F11C052FCD084376
:1030B0000021CFF6FF7140EA821001EBC3316FF3BC
:1030C0000F0140EA05600843706001203866FFF791
:1030D00047FC0446306880013FF508AFFFF740FC2D
:1030E000001B02284FF00300F4D900E790F85100CC
:1030F0007047000070B538B10446406A30B1002016
:10310000206104F1140007E0012070BD6068B0F593
:10311000827F03D004F11C00002101600026A6621A
:1031200094F8510020B9204684F8506000F03CF833
:10313000022084F8510094E80F0001F482710568C0
:1031400002F4044225F040050560114403F40062D6
:103150002369114403F002026369114403F0010280
:10316000A369E569114403F40072114405F03802C3
:10317000256A114405F08002A56A114305F4005246
:1031800011430160626A042101EA134102F0100256
:1031900011444160C16921F40061C161012066658B
:1031A00084F85100304670BD2DE9F04F87B00446D9
:1031B000216843F60002C4F2000200209142CDE9EA
:1031C0000500CDE90300029000F0918043F2000079
:1031D000C4F20100814240F0B380002743F6300082
:1031E0000197C4F20200416940F2004541F4805168
:1031F00041614169C4F2020501F4805101910199D4
:103200000197016802AE41F00201016001684FF0D0
:10321000020901F0020101910199019701684FF043
:10322000010A41F00101016000684FF0030B00F05A
:10323000010001900198182002904FF005082846DF
:103240003146CDF80C90CDF810A0CDF814B0CDF8E3
:103250001880FFF7AFFA802002A981E8010ECDF8AF
:10326000188046F24048A5F580603146C4F2020855
:10327000FFF7A0FA42F28845C2F200054FF4403051
:103280004FF0C0664FF48069C5E908072846C5E9D4
:103290000086C5E90277C5E90497C5E90677FFF717
:1032A00063F9002818BFFDF7ADFFE564AC6342F297
:1032B000E84508F11800C2F200054021C5E9000602
:1032C00005F1080080E882024FF40030C5E90807E4
:1032D0002846C5E90577EF61FFF746F9002818BFD2
:1032E000FDF790FFA564AC6307B0BDE8F08F43F62F
:1032F00030010190C4F202010A6942F480420A617D
:103300000A6902F480420192019A01900A6842F02F
:1033100002020A60096801F00201019101994FF46B
:10332000604102910221CDE90310032005900520A0
:10333000069040F20040C4F2020002A9FFF73AFAF8
:1033400007B0BDE8F08F00002DE9F04182B00446DF
:1033500090F85100012815D10E4600294FF00100C8
:1033600060D01746002A5DD060681D46B0F5827FA8
:1033700002D1A068002858D0FFF7F2FA94F8501054
:10338000012903D1022002B0BDE8F081804601206E
:1033900084F85000042084F8510000206065A66382
:1033A000A787E7872063A086E086A1682064B1F53F
:1033B000004F606408D12068016821F0400101607D
:1033C000016821F48041016020680168490603D446
:1033D000016841F040010160E06898B3E08F002887
:1033E00055D06E1C0BE000BFC068A16B21F8020B2A
:1033F000A163E08F0138E087E08F002847D0206884
:103400008168C907F0D1FFF7ABFA002EF4D0A0EB2A
:103410000800A842F0D3012084F85100002084F86D
:103420005000032002B0BDE8F081042084F8510070
:103430002046314632463B46009500F035F902B051
:10344000BDE8F081E08F10B36E1C0AE0007BA16B39
:103450000870A06B0130A063E08F0138E087E08F37
:10346000A8B120688168C907F0D1FFF779FA002E6A
:10347000F5D0A0EB0800A842F1D3012084F8510058
:10348000002084F85000032002B0BDE8F0812046FF
:103490002946424606F0E4FB00281CBF2020606558
:1034A000012084F85100002084F85000606D00284D
:1034B00018BF012002B0BDE8F08100002DE9F04105
:1034C00084B01D4616460F460446FFF749FA94F8A5
:1034D000511001290DD18046002F4FF0010018BF77
:1034E000002E02D104B0BDE8F08194F8500001280C
:1034F00003D1022004B0BDE8F081012084F850001F
:10350000032084F85100002060652763A686E686C4
:10351000A063A087E087A168C4E91000B1F5004F5F
:1035200008D12068016821F040010160016841F480
:103530008041016020680168490603D4016841F0B8
:10354000400101606168731EE268B1FA81F1B3FA6B
:1035500083F349095B09B2F5006F41EA030124D105
:1035600039B1216B31F8022BC2602163E08E013842
:10357000E086E08E002846D06E1C09E0216B31F811
:10358000022BC2602163E08E0138E086E08ED0B36A
:10359000206881688907F1D4FFF7E2F9002EF5D0A1
:1035A000A0EB0800A842F1D323E039B139780173C8
:1035B000206B01302063E08E0138E086E08E10B38E
:1035C0006E1C0AE0216B09780173206B01302063C7
:1035D000E08E0138E086E08EA8B120688168890716
:1035E000F0D4FFF7BDF9002EF5D0A0EB0800A842FB
:1035F000F1D3012084F85100002084F8500003200A
:1036000004B0BDE8F0812046022101222B46CDF80E
:10361000008006F055FBE0B1606D40F02000606571
:1036200020206065A06838B9002002902068C16839
:103630000291806802900298012084F851000020D5
:1036400084F85000606D002818BF012004B0BDE868
:10365000F08140F2A400C2F20000006849F68171D6
:10366000C1F25E61A0FB0101480D4FF47A7148433D
:1036700003906068B0F5827F0AD120468021002245
:103680002B46CDF8008006F01BFB0028C4D1C9E70B
:1036900003980028C6D003980138039020688068FA
:1036A0000006F5D4BEE700002DE9F04383B01E46C6
:1036B00015460F460446FFF753F994F8511081461A
:1036C00001290DD06068B0F5827F15D1A06800286F
:1036D0004FF0020008BF042902D003B0BDE8F08318
:1036E000002F4FF0010018BF002DF6D0002EF4D0AF
:1036F00094F85000012803D1022003B0BDE8F08304
:10370000012084F8500094F85100002104281CBFC7
:10371000052084F851006165A563E687A6872763C5
:10372000E6862068A686216461640168490603D4A0
:10373000016841F0400101606168731EE268B1FAFE
:1037400081F1B3FA83F3DDF8288049095B09B2F50A
:10375000006F41EA030138D139B1216B31F8022BF6
:10376000C2602163E08E0138E086012608F1010580
:10377000E08E10B9E08F00286CD02068816889073E
:103780000CD5E18E51B1012E08D1216B002631F804
:10379000022BC2602163E18E0139E1868168C9078D
:1037A0000AD0E18F41B1C068A16B012621F8020B5C
:1037B000A163E08F0138E087FFF7D2F8002DD7D062
:1037C000A0EB09004045D3D33AE039B13978017311
:1037D000206B01302063E08E0138E086012608F17D
:1037E000010500BFE08E08B9E08F98B320688168BA
:1037F00089070DD5E18E59B1012E09D1216B002623
:1038000009780173206B01302063E08E0138E08677
:1038100020688168C9070BD0E18F49B1C068A16BEE
:1038200001260870A06B0130A063E08F0138E087AB
:10383000FFF796F8002DD5D0A0EB09004045D1D375
:10384000012084F85100002084F85000032003B0C8
:10385000BDE8F0832046022101224346CDF80090C6
:1038600006F02EFA60B1606D40F020006065202007
:103870006065002084F85000012003B0BDE8F083AB
:1038800040F2A400C2F20000006849F68171C1F262
:103890005E61A0FB0101480D4FF47A71484302902C
:1038A0006068B0F5827F0AD120468021002243461D
:1038B000CDF8009006F004FA0028D4D108E0029870
:1038C00030B1029801380290206880680006F6D472
:1038D000A06838B9002001902068C1680191806813
:1038E00001900198012084F85100002084F85000D4
:1038F000606D002818BF012003B0BDE8F083000010
:10390000704700007047000010B590F83C20012A75
:103910004FF0020252D0012380F83C3080F83D2065
:103920000268D2F804E0D2F808C00C682EF07003E8
:10393000234341F2FF74C4F20004A24253600DDC41
:1039400040F2FF73C4F200039A4215DCB2F1804FDB
:1039500029D040F20043C4F2000322E040F2FF33DA
:10396000C4F201039A4212DC41F60003C4F20003E0
:103970009A4218D0002312E040F60003C4F200037C
:103980009A4210D040F60043C4F2000309E044F22A
:103990000003C4F201039A4205D040F20043C4F28E
:1039A00001039A4204D149682CF0800319439160C5
:1039B0000121002280F83D1080F83C20104610BD07
:1039C000002804BF0120704710B5044690F83D0060
:1039D00028B9002084F83C00204600F01FF802209F
:1039E00084F83D002068211D06F0B4FC012084F815
:1039F000460084F83E0084F83F0084F8400084F8D4
:103A0000410084F8420084F8430084F8440084F8BC
:103A1000450084F83D00002010BD0000B0B584B022
:103A20000446006844F20041C4F20101884240D0DB
:103A300041F20041C4F20001884253D040F6000137
:103A4000C4F2000188424BD1002043F640010390AC
:103A5000C4F202010A6842F2485542F004020A60C8
:103A60000968C2F2000501F004010391039946F2CE
:103A7000B801C4F202014FF080624FF48063C5E9DF
:103A80000012C5E9020005F11001C5E907006862EE
:103A900028464FF4006C4FF4005E81E80850FEF7B2
:103AA00063FD002818BFFDF7ADFBE562AC6304B011
:103AB000B0BD0020019043F64000C4F2020041680E
:103AC000002241F4003141604068052100F40030DB
:103AD000019001981920FEF7FDFF1920FEF7EAFF7B
:103AE00004B0B0BD0020029043F64000C4F20200D2
:103AF0000168002241F0200101600068052100F00A
:103B00002000029002983720FEF7E4FF3720FEF7EE
:103B1000D1FF04B0B0BD000090F83D1001291CBFDA
:103B200001207047022180F83D10006841F2FF72C9
:103B3000C168C4F20002904241F00101C1600DDC95
:103B400040F2FF71C4F20001884215DCB0F1804FF1
:103B500029D040F20041C4F2000122E040F2FF31DE
:103B6000C4F20101884212DC41F60001C4F20001F6
:103B7000884218D0002112E040F60001C4F2000192
:103B8000884210D040F60041C4F2000109E044F23E
:103B90000001C4F20101884205D040F20041C4F2A4
:103BA0000101884206D1816801F00701062904BF9E
:103BB00000207047016841F001010160002070475A
:103BC00080B590F83C20012A4FF0020200F0C2803C
:103BD000012380F83C3080F83D20D0F800C04FF63B
:103BE0007772DCF8083023EA0202CCF808200B6870
:103BF0004F2B28DC1F2B43DD202B44D0302B42D011
:103C0000402B40F0A980D1F804E0C968DCF82030EE
:103C1000DCF8202022F00102CCF82020DCF818206B
:103C200022F0F00242EA011123F00A0242EA0E02F7
:103C3000CCF81810CCF82020DCF8081041F047012F
:103C400021F030017DE06F2B25DDB3F5005F46D01C
:103C5000B3F5805F77D0702B7ED1D1E901E3C968DD
:103C6000DCF8082043EA0E0322F47F4243EA0121F4
:103C70001143CCF80810DCF8081041F0770160E03F
:103C80000BB1102B68D1DCF8081021F0700119433A
:103C900041F0070155E0502B34D0602B5CD1D1F8B6
:103CA00004E0C968DCF82030DCF8202022F01002A3
:103CB000CCF82020DCF8182022F4704242EA0131CE
:103CC00023F0A00242EA0E12CCF81810CCF8202003
:103CD000DCF8081041F0670121F0100131E0D1E972
:103CE00001E3C968DCF8082043EA0E0322F47F42AE
:103CF00043EA01211143CCF80810DCF8081041F424
:103D000080411EE0D1F804E0C968DCF82030DCF81E
:103D1000202022F00102CCF82020DCF8182022F02C
:103D2000F00242EA011123F00A0242EA0E02CCF844
:103D30001810CCF82020DCF8081041F0570121F0D1
:103D40002001CCF808100022012180F83D1000214C
:103D500080F83C10104680BD0122F5E77047000056
:103D600070B504460068C5680669B10716D515F038
:103D7000020113D06FF002010161012121778069F6
:103D8000800703D02046FFF7E9FF05E0204600F05A
:103D9000DDF8204600F018FA00202077700718D5CB
:103DA00015F0040015D020686FF0040101610221B4
:103DB0002177806910F4407F03D02046FFF7CEFFC3
:103DC00005E0204600F0C2F8204600F0FDF9002092
:103DD0002077300717D515F0080014D020686FF051
:103DE0000801016104212177C069800703D02046C2
:103DF000FFF7B4FF05E0204600F0A8F8204600F0E9
:103E0000E3F900202077F00618D515F0100015D042
:103E100020686FF01001016108212177C06910F45A
:103E2000407F03D02046FFF799FF05E0204600F0D1
:103E30008DF8204600F0C8F900202077F00718BF61
:103E400015F0010002D1300609D412E020686FF0AD
:103E500001010161204600F051FA300609D515F044
:103E6000800006D020686FF0800101612046FFF7D6
:103E700047FD700609D515F0400006D020686FF0A8
:103E800040010161204600F041FAB0060AD515F064
:103E9000200008BF70BD20686FF02001016120463E
:103EA000FFF730FD70BD000080B586B0006844F2B9
:103EB0000042C4F2010200219042CDE90411CDE993
:103EC000021101911ED040F60001C4F200018842A7
:103ED00039D10020009043F63000C4F2020001689E
:103EE000032241F0080101600068022100F008008F
:103EF000009000984FF48040019040F60040C4F2DA
:103F0000020017E043F630000091C4F2020001689D
:103F1000022241F0200101600068032100F020002E
:103F2000009000984020019040F60040C4F202004A
:103F300000F50060022302930123059101A9CDE958
:103F40000332FEF737FC06B080BD0000704700006A
:103F50002DE9F04190F83C30012B04BF0220BDE870
:103F6000F0814FEAB2020123032A80F83C3000F2CC
:103F7000F480DFE802F0023E7DBC036840F20047B7
:103F80001C6A1A6A24F0020422F001021A621A461C
:103F9000D3F804E052F818CF8E6843F48065C4F279
:103FA0000107BD4244EA060405D1CE6824F00C04A2
:103FB00026F0040634430E68BD4207D1D1E9055707
:103FC0002EF4407E45EA0E0545EA070E2CF07307F5
:103FD0003743C3F804E09F614F6809695F631C625F
:103FE0009F6947F008079F619F6927F004079F6159
:103FF000AFE0036840F200481C6A1A6A24F020040B
:1040000022F010021A621A46D3F804E052F818CFD0
:104010008F6843F48065C4F20108454544EA0714FB
:1040200007D1CF686FF0400624F0C00406EA0716F7
:1040300034430F68454507D1D1E905562EF4406E4B
:104040004EEA850545EA860E2CF4E64646EA072741
:10405000C3F804E09F614F6809699F631C629F6910
:1040600047F400679F619F6927F480679F616FE055
:10407000036840F200481C6A1A6A24F4007422F4AF
:1040800080721A621A46D3F804E052F81CCF8F6887
:1040900043F48065C4F20108454544EA072408D189
:1040A000CF6840F2FF463F0224F4406427EA060648
:1040B00034430F68454507D1D1E905562EF4405EDB
:1040C0004EEA051545EA061E2CF073063743C3F881
:1040D00004E0DF614F680969DF631C62DF6947F054
:1040E0000807DF61DF6927F00407DF6131E003685B
:1040F00040F20045D3F820C01A6A43F4806722F4E6
:1041000080521A621A465C6852F81CEFD1F800809F
:104110008E68C4F20105AF4204D14D6924F4804495
:1041200044EA85142CF4005747EA06372EF4E64695
:1041300046EA08265C60DE614E6809691E641F62FB
:10414000DF6947F40067DF61DF6927F48067DF61BB
:1041500009021368194300231160002180F83C1004
:104160001846BDE8F0810000002804BF0120704718
:1041700010B5044690F83D0028B9002084F83C00B2
:10418000204600F01FF8022084F83D002068211D21
:1041900006F0E0F8012084F8460084F83E0084F838
:1041A0003F0084F8400084F8410084F8420084F81D
:1041B000430084F8440084F8450084F83D00002062
:1041C00010BD0000704700007047000041B1082991
:1041D00009D0042914BF00F1410200F13F0204E0BC
:1041E00000F13E0201E000F140021278012A1CBFFA
:1041F00001207047022241B1082909D0042914BFC7
:1042000080F8412080F83F2004E080F83E2001E063
:1042100080F84020006801F01F010122036A02FAC1
:1042200001F123EA01020262026A0A4341F2FF71CC
:10423000C4F20001884202620FDC40F2FF71C4F256
:104240000001884217DCB0F1804F49D040F20041B4
:10425000C4F20001884243D049E040F2FF32C4F288
:104260000102904214DC41F60003C4F200039842BC
:1042700036D0002314E040F60001C4F20001884269
:104280002ED040F60041C4F20001884228D02EE032
:1042900044F20003C4F20103984221D040F20043EB
:1042A000C4F20103984222D1436C884243F4004394
:1042B0004364C2DD904207DC41F60001C4F2000114
:1042C00088420DD0002107E044F20001C4F2010150
:1042D000884205D040F20041C4F20101884206D173
:1042E000816801F00701062904BF002070470168BA
:1042F00041F00101016000207047000080B50068B6
:10430000B0F1804F08BFFEF731FB80BD7047000061
:104310007047000010B504460068406994F84110E9
:10432000212920D110F080001DD000BF206850E866
:10433000050F216820F0800041E80502002AF5D130
:10434000A06B002818BFFDF7B1FF00BF206850E840
:10435000030F216820F0C00041E80302002AF5D1D4
:10436000202084F841002068406994F842102229F6
:1043700039D110F0400036D0206850E8050F216890
:1043800020F0400041E80502002AF5D1E06B00284A
:1043900018BFFDF78BFF00BF206850E8030F2168AE
:1043A00020F4907041E80302002AF5D1206850E81B
:1043B000050F216820F0010041E80502002AF5D12F
:1043C000206B01280AD100BF206850E8030F216844
:1043D00020F0100041E80302002AF5D1202084F8E3
:1043E000420000202063002010BD00007047000044
:1043F000B0B582B0044600680168C368426901F044
:104400002F05202D03F0200505D125B1204606F00B
:104410000BF902B0B0BD5FEA017C1EBF02F0010ED5
:1044200003F4907212EB0E0279D1226B012A05D1AE
:1044300011F0100218BF13F0100235D10A0622D570
:1044400013F080021FD094F8411021292AD1A168CD
:10445000B1F5805F03D12169002900F04881216A0C
:104460004A1C226209784160E18C01390A04E18426
:1044700018D1C16821F08001C160C16841F04001DC
:10448000C16002B0B0BD49060CD513F0400109D09F
:10449000C16821F04001C160202084F8410020461D
:1044A00000F022FB02B0B0BD002101910168019132
:1044B0004168019101994069400638D4A08DE18D91
:1044C000E28D002A1CBF401A5FEA0041EAD000BF1B
:1044D000216851E8031F226821F4907142E8031318
:1044E000002BF5D1216851E8051F226821F0010158
:1044F00042E80513002BF5D1202184F84210002159
:10450000216300BF216851E8031F226821F01001D8
:1045100042E80313002BF5D1022161634CE0C80788
:1045200018BF13F4807059D148075DD463E0E06B85
:10453000016849688AB2002A40D0A38D9A423DD2D0
:10454000E185C069B0F5807F31D000BF206850E8B8
:10455000030F216820F4807041E80302002AF5D19E
:10456000206850E8050F216820F0010041E80502AD
:10457000002AF5D1206850E8050F216820F040009E
:1045800041E80502002AF5D1202084F842000020ED
:10459000206300BF206850E8030F216820F010005E
:1045A00041E80302002AF5D1E06BFDF77FFE02200F
:1045B0006063A08DE18D401A81B20AE0A18D914225
:1045C0007FF470AFC069B0F5807F7FF46BAF0220DD
:1045D00060632046FFF79CFE02B0B0BD606C40F007
:1045E00001006064480706D5BEF1000F03D0606C7F
:1045F00040F002006064880706D5BEF1000F03D0CA
:10460000606C40F004006064BCF1000F06D555EA10
:104610000E0003D0606C40F008006064606C0028FD
:104620003FF440AF11F0200018BF002D02D020460B
:1046300005F0FAFF20684069616C00F0400001F06D
:104640000801401847D000BF206850E8030F2168D8
:1046500020F4907041E80302002AF5D1206850E868
:10466000050F216820F0010041E80502002AF5D17C
:10467000206B01280AD100BF206850E8030F216891
:1046800020F0100041E80302002AF5D1202084F830
:1046900042000020206320684069400622D500BF08
:1046A000206850E8050F216820F0400041E805022D
:1046B000002AF5D1E06BA8B14AF28141C0F60001B1
:1046C0000165FDF733FE00283FF4ECAEE06B016DB1
:1046D000884702B0B0BD2046FFF788FE0020606426
:1046E00002B0B0BD2046FFF781FE02B0B0BD216A26
:1046F00031F8022B6FF35F2242602162B4E60000C2
:10470000002804BF0120704710B5044690F841000E
:1047100028B9002084F84000204600F021F8242029
:1047200084F841002068C16821F40051C16020462E
:1047300005F0DEFF2068016921F4904101614169C3
:1047400021F02A014161C16841F40051C16000209B
:104750002021606484F8411084F84210606310BD29
:104760002DE9F04F87B00446006844F60001C4F21A
:10477000000100268842CDE90566CDE90366029670
:1047800000F0918041F20041C4F20101884200F042
:10479000D58041F20001C4F20101884240F040811D
:1047A000002743F630000197C4F20200416900255A
:1047B00041F0100141614169C4F2020501F01001AC
:1047C000019101990197016802AE41F00201016077
:1047D000016846F2280801F0020101910199019750
:1047E00001684FF0020941F00101016000684FF0DB
:1047F000030A00F0010001900198802002904FF020
:10480000070B05F580603146C4F20208CDE9039735
:10481000CDF814A0CDF818B0FDF7CCFF4FF4007020
:10482000CDE9020904A880E8800C28463146FDF74E
:10483000C1FF42F2A85508F58C60C2F200054FF0A6
:1048400000664FF4806985E8C1002846C5E9037910
:10485000C5E90577C5E907776F62FDF785FE002892
:1048600018BFFCF7CFFCE563AC6342F2086508F5BE
:104870009260C2F200054021C5E9000605F108007A
:1048800080E882022846C5E90577C5E907776F62A7
:10489000FDF76AFE002818BFFCF7B4FCA56305F11C
:1048A00038002525B3E043F630000196C4F202003B
:1048B000016941F480210161016901F480210191C4
:1048C00001990196016841F004010160006802A9A4
:1048D00000F00400019001984FF440600290022023
:1048E000CDE9030603200590072006900020C4F2BE
:1048F000020000F50060FDF75DFF42F2686546F2D8
:104900002800C2F20005C4F202004FF000614FF42B
:10491000806285E843002846C5E90362C5E905666B
:10492000C5E907666E62FDF71FFE002818BFFCF799
:1049300069FCE56305F13800272568E0002643F6A9
:1049400030000196C4F20200416946F2280841F0A5
:10495000200141614169C4F2020801F02001019186
:1049600001990196016841F040010160006802A9C7
:1049700000F04000019001984FF484400290022022
:10498000CDE9030603200590082006900020C4F21C
:10499000020000F5C050FDF70DFF42F2C86508F5B2
:1049A0008060C2F200054FF020674FF48069C5E9CE
:1049B00000072846C5E90266C5E90496C5E906660A
:1049C000C5E90866FDF7D0FD002818BFFCF71AFC02
:1049D000E563AC6342F2287508F58F60C2F200050A
:1049E0004021C5E9000705F1080080E84202284699
:1049F000C5E90566C5E907666E62FDF7B5FD0028E5
:104A000018BFFCF7FFFBA56305F1380047250460DC
:104A1000284605210022FEF75DF82846FEF74AF8F1
:104A200007B0BDE8F08F000080B590F84230202B31
:104A30001CBF022080BD00294FF0010318BF002ACF
:104A400001D1184680BD0023036305F0C1FE034673
:104A5000184680BD7047000070470000B0B504469E
:104A600090F8410020281CBF0220B0BD4FF001008B
:104A7000C9B3002A134608BFB0BD4FF0000C212077
:104A80002162A384E384C4F844C084F84100A06B8D
:104A90004AF2DD5E4AF21D652268C0F6000EC0F6DD
:104AA0000005C0E90FE54AF29145C0F60005043261
:104AB000C0E9135CFDF7F8FD30B1102060642020E0
:104AC00084F841000120B0BD20686FF04001016012
:104AD000206850E8050F216840F0800041E8050299
:104AE000002AF5D10020B0BD7047000070470000DB
:104AF000FEE7000010B586B00446D0F8EC0090E860
:104B00000E00C068CDE90321CDE901039DED040A43
:104B10009DED041A9DED032A9DED033A20EE010A56
:104B200022EE032A9DED021A9DED023A30EE020AB2
:104B300021EE031A9DED012A9DED013A31EE000AA6
:104B400022EE031A31EE000A4FF07E50059005F078
:104B500039F99DED051A6FF0030181EE000A8DED24
:104B6000050A05980590D4F8EC0000BF42189DEDA9
:104B7000050A92ED011A043120EE010A0C2982ED9A
:104B8000010AF3D141F62820C2F200009DED030A8C
:104B900090ED6F1AD4F8001120EE010AB6EE001A5B
:104BA00020EE010A81ED040A9DED020A90ED6F2AC4
:104BB00020EE020A20EE010A81ED050A9DED040AAD
:104BC00090ED6F2A20EE420A20EE010A81ED0A0ADA
:104BD0009DED010A90ED6F2A20EE020A20EE010AF7
:104BE00081ED0B0A9DED010A90ED6F2A20EE420A3D
:104BF00020EE010A81ED100A9DED040A90ED6F2A66
:104C000020EE420A20EE010A81ED110A9DED020A12
:104C100090ED6F2A20EE020A20EE010A81ED160ABD
:104C20009DED030A90ED6F2A20EE420A20EE010A64
:104C300081ED170AD4F8F81090ED740A91ED1C1A62
:104C400081EE001A91ED230A81ED1C1A90ED742A71
:104C500044F2000080EE022A9FED0B0AC4F21C60B1
:104C6000B4EE401AF1EE10FA81ED232AC8BF0867AE
:104C700091ED231AB4EE401AF1EE10FAC8BFC1F854
:104C80008C0006B010BD00BF00401C46B0B541F618
:104C90002824C2F20004012020704CF67740C3F2B1
:104CA0002B20C4F8CC0104F5D87080EC030AB7EED1
:104CB000000A0025F4EE401A201D062100220323DD
:104CC00084F83851C4E95055C4E9525584ED6F2A2F
:104CD000F1EE10FAC8BFF0EE401AC4ED741A00F0FD
:104CE0002FFD04F5E07004F5E4730121012206F0C4
:104CF000CDFFD4F8EC104FF07E52C1E90025C1E998
:104D0000025544F65951C0F6000144F6F52244F626
:104D1000955345F22D2504F1D00CC0F60002C0F6E3
:104D20000003C0F600058CE82E0040F20111D4F813
:104D30000401E18540F6B031C0F601019022FBF795
:104D400021FCD4F8FC0040F21001C2F200019022D4
:104D5000FBF718FCB0BD000010B50446D0F8F81001
:104D600040F21000C2F200009022FBF70BFCD4F8D6
:104D70001C1141F6D410C2F200004822FBF702FCDD
:104D8000D4F80C1141F68C10C2F200004822FBF757
:104D9000F9FB10BD10B584B00446D0F8EC0042F623
:104DA000724190ED000A90ED011A90ED022A30EE6A
:104DB000000A90ED033A8DED030A31EE010A8DED04
:104DC000020A32EE020A8DED010A33EE030A8DED7E
:104DD000000AC2F200010988A27B237BD4F80C01EF
:104DE00051435943FBF72AFC9DED010AD4F80C010D
:104DF000B1EE400A80ED000A009941609DED030A82
:104E0000029A039B019CB1EE400A80ED020AC26047
:104E1000C0E90623C0E9081403639DED020A9DED75
:104E2000011AB1EE400AB1EE411A80ED0D0A80ED93
:104E30000E1AC16304B010BD70B52DED088B84B09F
:104E400041F62825C2F20005B0EE429A95ED582AA7
:104E500095ED593A95ED5A4A95ED6F5A30EE420A62
:104E6000B6EE00BA85ED5B0A20EE0B0A30EEC32ADF
:104E700031EE441A20EE050A85ED5C2A85ED5D1AB7
:104E80008DED030A22EE0B0A20EE050A8DED020AD3
:104E900021EE0B0A20EE050A8DED010AD5F804017A
:104EA00040F6B031C0F601019022B0EE628AB0EE59
:104EB00061AAFBF767FB9DED030AD5F804019DEDA0
:104EC000021A9DED012A0399019AB1EE400AB1EE52
:104ED000411AB1EE422A80ED010A80ED021A80EDFE
:104EE000032A816102629DED020A029AB1EE400A34
:104EF00080ED090A02639DED010AC1630199B1EEDB
:104F0000400A80ED0D0AC0E912129DED030AB1EED0
:104F1000400A80ED140AD5E9521051EA00020AD184
:104F2000013140F1000085ED5EAA85ED5F9A85EDC7
:104F3000608AC5E9521095ED5E0A95ED5F1A95ED10
:104F4000643A95ED6F4A95ED602A20EE030A33EE40
:104F5000045A24EE0A6A23EE011A24EE097A80EE3E
:104F6000050A86EE056A81EE051A87EE057A23EEBC
:104F7000022A24EE083A82EE052A83EE053A30EE44
:104F8000060A85ED5E0A37EE011A85ED5F1A21EEFD
:104F9000011A20EE000A33EE022A30EE010A22EE58
:104FA000021A31EE000A85ED602A04F00BFFB7EE1D
:104FB000001A81EE001A85ED660A2C1D8DED001A8F
:104FC00095ED5E0A9DED001AA86820EE010A80EDBD
:104FD000000A95ED5F0A9DED001A20EE010A80EDB2
:104FE000010A95ED600A9DED001A20EE010A80EDA0
:104FF000020A95ED5B0A95ED5C1A95ED5D2A21EEAE
:10500000011A20EE000A30EE010A22EE021A31EEF9
:10501000000A04F0D7FE9FED7E1A0020B4EE410A8C
:1050200085ED650AF1EE10FAB8BF012095ED660A2C
:105030009FED782A0021B4EE420A9FED772A95ED84
:105040006C1A95ED6F3AF1EE10FAC8BF01210840D5
:10505000B4EE420A0021F1EE10FAB8BF0121084077
:1050600085F83901D5F8180121EE030A80ED000A10
:1050700095ED6C0A95ED6F1A002620EE010A80ED81
:10508000070A95ED6C0A95ED6F1A20EE010A80ED86
:105090000E0A95ED6C0A95ED6F1A20EE010A80ED6F
:1050A000150A95ED6D0A95ED6F1A20EE010A80ED57
:1050B0001C0A95ED6D0A95ED6F1A20EE010A80ED40
:1050C000230AD5F8B801D5F81C110860D5F8B80145
:1050D0000861D5F8B8010862204600F025FE68682E
:1050E00090ED000A85ED540A90ED011A85ED551AF0
:1050F00090ED022A20EE010A85ED562A90ED033A42
:1051000021EE011A85ED573A22EE033A3BEE411AA1
:1051100022EE022A30EE030A71EE420A05F5D07043
:1051200006F014FC95ED680A9FED3C8A95ED551A42
:1051300020EE080A85ED680A95ED540A95ED562A89
:1051400095ED573A22EE000A21EE031A30EE410A9D
:1051500030EE000A09F0AEFF20EE080A85ED690A7C
:1051600095ED540A95ED551A95ED572A95ED563A59
:1051700020EE020A21EE031A31EE000A23EE031A92
:105180003BEE411A22EE022A71EE420A05F5D47076
:1051900006F0DCFB95ED6A0A686820EE080A85EDEA
:1051A0006A0A016995ED761A9FED1D2AC5F860110E
:1051B00030EE411A4069B4EE421AF1EE10FAC5F829
:1051C0006401C5F8686102DD4FF6FF7007E09FEDEE
:1051D000152AB4EE421AF1EE10FA05DA0120B5F8FC
:1051E000D4110844A5F8D401B5F9D4019FED0E2AD5
:1051F00001EE100AB8EEC11A21EE021A31EE001AC1
:1052000085ED6B1A85ED760A04B0BDEC088B70BD98
:105210009A99993ECDCC1441CDCC2441E12E6542E2
:1052200000003443000034C30000B4432DE9F04FC4
:1052300085B000F1780500F180090446284649460A
:1052400006F068FF84F8C800B4F87800274627F80D
:10525000A80FB4F85A0004F15801A4F8AA0028468F
:105260003A46009106F0CEFE84F8C8003888A3467E
:10527000B4F882102BF8B00FA4F8B21038464946A3
:105280005A4606F0BFFE214684F8C80051F8900F38
:10529000254645F8A00F58462A4606F0C7FC84F874
:1052A000C8002846594606F0F5FC84F8C800B4F852
:1052B0007800A2462AF8B80FDAF83410DAF8740049
:1052C00091E84C00C968CDE90332CDE9011601210E
:1052D000AAF802109DED030A9DED011A9DED042A26
:1052E0009DED023A20EE010A23EE022A30EE420A38
:1052F00030EE000A80ED000A9DED040A9DED031AD0
:105300009DED022A9DED013A20EE010A22EE032ACC
:1053100030EE020A30EE000A80ED010A9DED040A2B
:105320009DED041A9DED032A9DED033A20EE010A3E
:1053300023EE022A9DED021A9DED023A30EE420A5A
:1053400021EE031A9DED012A9DED013A30EE410A4E
:1053500022EE031A41F6282631EE000A4FF4C075FA
:10536000C2F2000680ED020AD4F82C01284410EDA8
:10537000600AB0EEC00A06F00FFC70190435B5F5EE
:10538000C67F80ED010AEFD1204630F8481F254640
:1053900025F8C01F4FF0010851462A46A5F80280A3
:1053A00006F088FE2988287225F8181C58462946D8
:1053B0003A4625F8168C06F025FE287228885146B4
:1053C00025F8060C284625F8088C06F0A3FE28725E
:1053D00006F5E0725046394606F014FE287296ED46
:1053E000731A96ED720AB6EE002A21EE022AB4EE86
:1053F000420AF1EE10FAB8BF86F8388196F8380103
:10540000B4EE410AF1EE10FA17DDB0B1D6E9501052
:1054100096F83921013140F10000002A04BF1046FE
:105420001146B1F1330270F10002C6E95010C0F02C
:10543000BE80002086F8380120E09FED6C2A31EE16
:10544000403A21EE022A83EE022A9FED673A0028B5
:1054500021EE031AB7EE003AB0EE434AB4EE410A29
:105460004FF0000018BFB0EE424AF1EE10FAC8BF8C
:10547000B0EE443A86ED673AC6E95000002184F860
:105480002C10B4F85820B4F882100098A4F8A82082
:10549000A4F8AA1049463A4606F0B4FD04F198086B
:1054A00084F8C80038465946424606F0ABFDB4F8C9
:1054B00098C0B4F89A2084F8C80002FB0CF28AB1B4
:1054C000D4F81C010027002300EB870196ED670A42
:1054D00091ED001A0133DFB220EE010ABA4281EDEC
:1054E000000AF1D8D4F81C019FED410A042200BF44
:1054F00006EB820101F5BA732C2700BF93ED001A69
:10550000C11981EE001A91ED012A0437382F21EEDE
:10551000021A81ED011AF1D10132062A00F10C00C4
:10552000E6D10120A4F8BA00404629465246A4F824
:10553000B8C006F067FD84F8C80096F8380130B3AB
:10554000D4F8BC009FED2B0A9FED2B1A10300021E0
:10555000421896ED6F2A92ED003A22EE002AB4EE40
:10556000423AF1EE10FAC8BF82ED002A96ED6F2A9A
:1055700092ED003A22EE012AB4EE423AF1EE10FA30
:1055800001F10401B8BF82ED002A0829E0D1D4F866
:10559000BC000021C16004F1380004F13002514622
:1055A00006F044FB84F8C80005B0BDE8F08F42F671
:1055B0007245C2F200052A88237BD4F8E800D4F8AB
:1055C000EC105A43FAF7DEFF2A88237BD4F8F80060
:1055D000D4F8FC105A435A43FAF7D4FF012084F858
:1055E0002C0005B0BDE8F08FCDCCCC3D6666663FA3
:1055F000DA0FC93F0AD7233C0AD723BCF0B581B0E4
:10560000044604F124060D460C3004F1180132461C
:10561000FBF756F994F8480001283ED002284DD1F6
:1056200094ED000A94ED032A94ED011A32EE400A3B
:1056300094ED042A94ED023A72EE410A94ED051AB3
:1056400004F11800D0EC031A31EE431A84ED030A7A
:10565000C4ED040A84ED051AFFF7EEFBFBF720FF0B
:1056600084ED0E0AFBF724FF84ED0F0AFBF728FFF9
:1056700084ED100AFBF72CFF41F62820C2F200004F
:1056800084ED110A00F5A8730ECBD0F85C0104F18B
:10569000280C8CE80E00606310E040F68110C3F621
:1056A000423044F2DC7149F69F12CBF61931C3F651
:1056B000962284E80700022084F8480041F61C275F
:1056C000C2F2000738684CF6CD41CCF6CC414843D5
:1056D00049F699114FEA7000C1F69911884227D80E
:1056E00096ED000ADFED150A284602F077F895EDF1
:1056F000080AB5EE400AF1EE10FABCBF002028629D
:1057000095ED080ABDEEC00A10EE100A04F0A2FAE8
:1057100094F8480060B941F62020C2F20000016808
:105720000131B1F5967F016084BF012084F8480003
:1057300038680130386001B0F0BD00BF0000204281
:105740002DE9F04742F672470446C2F200070420F2
:10575000388042F670408946C2F20000082101807C
:105760000020207418469A46904684F80C90627384
:10577000A37308F059F851466061FAF73DFF388885
:1057800000FB0AF008F050F83988A06101FB0AF12B
:10579000FAF754FF388800FB0AF008F045F839881A
:1057A000E06101FB0AF1FAF749FF388800FB09F0D4
:1057B00008F03AF83988206201FB09F1FAF73EFF58
:1057C000504608F031F851466062FAF715FF388804
:1057D00000FB09F008F028F83988206001FB09F186
:1057E000FAF72CFF388800FB0AF008F01DF839881A
:1057F000606001FB0AF1FAF721FF388800FB08F02E
:1058000008F012F83988A06001FB08F1FAF716FFDA
:10581000388800FB09F008F007F83988C4F8E80078
:1058200001FB09F1FAF70AFF217BD4F8E83004F113
:105830003000012206F02AFA388800FB09F007F050
:10584000F3FF3988C4F8EC0001FB09F1FAF7F6FE22
:10585000217BD4F8EC3004F13800012206F016FA6E
:10586000B8F1000F13D0388800FB08F007F0DCFF18
:105870003988C4F8F00001FB08F1FAF7DFFE617B1C
:10588000D4F8F03004F14000012206F0FFF9388826
:1058900000FB0AF007F0C8FF3988C4F8F40001FBE8
:1058A0000AF1FAF7CBFEA17BD4F8F43004F14800FA
:1058B000012206F0EBF9388809FB09F6704307F07E
:1058C000B3FF3988C4F8F8007143FAF7B7FE217BBB
:1058D000D4F8F83004F150000A4606F0D7F93888B9
:1058E000704307F0A1FF3988C4F8FC007143FAF750
:1058F000A5FE217BD4F8FC3004F158000A4606F0DE
:10590000C5F93888704307F08FFF3988C4F8000163
:1059100006FB01F007F088FF3988C4F80401D4F8C9
:1059200000017143FAF78AFE3988D4F80401714303
:10593000FAF784FE217BD4F8003104F160000A46B6
:1059400006F0A4F9217BD4F8043104F168000A467A
:1059500006F09CF9B8F1000F13D0388808FB09F560
:10596000684307F061FF3988C4F808016943FAF712
:1059700065FE217B627BD4F8083104F1700006F0EB
:1059800085F938880AFB09F5684307F04DFF398827
:10599000C4F80C0105FB01F007F046FF3988C4F894
:1059A0001001D4F80C016943FAF748FE3988D4F89D
:1059B00010016943FAF742FE227BA17BD4F80C3137
:1059C00004F1780006F062F9217BA27BD4F8103153
:1059D00004F1800006F05AF93888704307F024FF7C
:1059E0003988C4F814017143FAF728FE217BD4F8F2
:1059F000143104F188000A4606F048F938880AFB99
:105A00000AF6704307F010FF3988C4F81801714393
:105A1000FAF714FEA17BD4F8183104F190000A467D
:105A200006F034F93888684307F0FEFE3988C4F878
:105A30001C016943FAF702FE217BA27BD4F81C31DA
:105A400004F1980006F022F93888217B4843484346
:105A500007F0EAFE3988227BC4F820015143514304
:105A6000FAF7ECFD3888217B4843484307F0DCFE19
:105A70003988227BC4F8240151435143FAF7DEFDF3
:105A80003888217B4843484307F0CEFE3988227B83
:105A9000C4F8280151435143FAF7D0FD3888217BDF
:105AA000484307F0C1FE3988227BC4F82C015143DA
:105AB000FAF7C4FD3888217B484307F0B5FE3988E2
:105AC000227BC4F83001D4F82C015143FAF7B6FD1B
:105AD000217BD4F8203104F1A0000A4606F0D6F864
