:020000040800F2
:1000000040F4002071020008217E00087D5800089D
:100010001D7E0008F10B00089DD3000800000000C1
:1000200000000000000000000000000031AA0008ED
:100030008112000800000000A1860008B1AE00088F
:100040008B0200088B0200088B0200088B0200085C
:100050008B0200088B0200088B0200088512000842
:100060008B0200088B0200088B0200088B0200083C
:100070001D1000088B0200088B0200088B0200088C
:100080008B0200088B0200088B0200088B0200081C
:10009000F50B00088B0200088B0200088B02000899
:1000A0008B020008A1AF00088B0200088B02000839
:1000B000B1AF00088B0200088B0200088B02000819
:1000C0008B0200088B0200088B0200088B020008DC
:1000D0008B02000801B500088B02000819B5000862
:1000E0008B0200088B0200088B0200088B020008BC
:1000F0008B0200088B0200088B0200082D100008FC
:100100008B0200088B0200088B0200088B0200089B
:100110008B0200088B0200088B020008C1AF0008A8
:100120008B0200083D1000084D1000085D1000080B
:100130008B0200088B0200088B0200088B0200086B
:10014000050C00088B0200088B02000825800008BF
:100150006D1000087D1000088D10000831B50008F2
:100160008B0200088B0200088B0200088B0200083B
:100170008B0200088B0200088B02000800000000C0
:100180008B0200088B02000800F002F800F061F812
:100190000AA090E8000C82448344AAF10107DA45E2
:1001A00001D100F056F8AFF2090EBAE80F0013F0D3
:1001B000010F18BFFB1A43F0010318478C2C0100F4
:1001C000AC2C01000A444FF0000C10F8013B13F076
:1001D000070408BF10F8014B1D1108BF10F8015BA0
:1001E000641E05D010F8016B641E01F8016BF9D193
:1001F00013F0080F1EBF10F8014BAD1C0C1B09D1EA
:100200006D1E58BF01F801CBFAD505E014F8016B5B
:1002100001F8016B6D1EF9D59142D6D370470000ED
:100220000023002400250026103A28BF78C1FBD8FF
:10023000520728BF30C148BF0B607047782900F0D3
:100240001181002070471FB511F059FD1FBD10B579
:1002500010BD00F089FA1146FFF7F5FF0FF042FBE1
:1002600000F0A7FA03B4FFF7F2FF03BC00F0ACFA0A
:100270000948804709480047FEE7FEE7FEE7FEE73A
:10028000FEE7FEE7FEE7FEE7FEE7FEE70448054976
:10029000054A064B704700008DAF00088901000831
:1002A00040B4002040F4002040D4002040D400207E
:1002B00053EA020C00F069802DE9F04B4FF0000684
:1002C000002B1FBFB3FA83F503FA05F424FA05F6F1
:1002D0005E4012BF1643B2FA82F502FA05F4C5F188
:1002E00020051EBF22FA05FC44EA0C04203556EA1C
:1002F000044C4FEA144418BF641C4FF000084FF040
:100300000009904271EB030C39D3002919BFB1FAEF
:1003100081F701FA07F6B0FA80F700FA07F6C7F19D
:1003200020071EBF20FA07FC46EA0C062037B6FB62
:10033000F4FCA7EB0507103F07F01F0BCBF12006DD
:100340002CFA06F60CFA0BFB44BFB3460026202F0E
:10035000A4BF5E464FF0000B5BEA060C08BF4FF0EF
:10036000010B19EB0B0948EB0608ABFB027C06FB03
:1003700002CC0BFB03CCC01B71EB0C01C1E70B469D
:10038000024641464846BDE8F08B13B5084318BF06
:100390004FF0FF300146AFF30080BDE81C407047CE
:1003A00053EA020C23D010B54C1084EA530404D550
:1003B0004042C1F1000138BF491E1B4204D55242E0
:1003C000C3F1000338BF5B1EFFF772FF14F0804FCC
:1003D00004D04042C1F1000138BF491E14F0004F63
:1003E00004D05242C3F1000338BF5B1E10BD13B5E9
:1003F00040424FF0000070EB0104B8BF012001F053
:10040000004100281CBF6FF000414FF0FF30AFF3F8
:1004100000801CBD70B5044685690068C10601D521
:10042000302600E02026C00707D070BDD4E90121A6
:1004300030469047206A401C20626D1EF6D570BD84
:1004400070B5044685690078C00707D170BDD4E94E
:10045000012120209047206A401C20626D1EF6D5A5
:1004600070BD000070B504460D4621461068AFF31C
:1004700000802188090502D50F4A7A4402E00E4A1D
:100480007A440E32002104F1240305E000F00F0647
:100490000009965D5E54491C0028F7D1207800239E
:1004A000000704D5702D02D009B102231132204675
:1004B000BDE8704000F0F7B82019010010B5431CEA
:1004C00002E010F8011B71B18107FAD14FF001323F
:1004D00002C88C1A8C4314EAC211F9D0C01A0A0659
:1004E00003D0C01E10BDC01A10BD0A0401D0801E6A
:1004F00010BD0902FCD0401E10BD032A40F230801E
:1005000010F0030C00F0158011F8013BBCF1020F54
:10051000624498BF11F801CB00F8013B38BF11F8D5
:10052000013BA2F1040298BF00F801CB38BF00F8EC
:10053000013B11F0030300F02580083AC0F0088069
:1005400051F8043B083A51F804CBA0E80810F5E74D
:10055000121D5CBF51F8043B40F8043BAFF3008030
:10056000D20724BF11F8013B11F801CB48BF11F8A5
:10057000012B24BF00F8013B00F801CB48BF00F875
:10058000012B704710B5203AC0F00B80B1E818502D
:10059000A0E81850B1E81850A0E81850203ABFF46D
:1005A000F5AF5FEA027C24BFB1E81850A0E818500C
:1005B00044BF18C918C0BDE810405FEA827C24BF60
:1005C00051F8043B40F8043B08BF7047D20728BFEE
:1005D00031F8023B48BF11F8012B28BF20F8023B3D
:1005E00048BF00F8012B704702F0FF0343EA0322E3
:1005F00042EA024200F024B84FF000020429C0F0A1
:10060000128010F0030C00F01B80CCF1040CBCF144
:10061000020F18BF00F8012BA8BF20F8022BA1EB96
:100620000C0100F00DB85FEAC17C24BF00F8012B7B
:1006300000F8012B48BF00F8012B70474FF0000273
:1006400000B5134694469646203922BFA0E80C50C8
:10065000A0E80C50B1F12001BFF4F7AF090728BFA3
:10066000A0E80C5048BF0CC05DF804EB890028BF1F
:1006700040F8042B08BF704748BF20F8022B11F048
:10068000804F18BF00F8012B7047704770477047C4
:1006900010B500F061F8006810BD10B5044600F018
:1006A0005BF8046010BD2DE9F0470D46994692466F
:1006B000044600F124080168880604D5E06921F0A9
:1006C0001001216000E00120A84201DD471B00E08D
:1006D0000027A1697A1902EB0900081AA0612078A5
:1006E000C00602D42046FFF795FE002608E0D4E9B4
:1006F00001211AF806009047206A401C761C2062EF
:100700004E45F4DB2078C0060AD52046FFF782FE6E
:1007100006E0D4E9012130209047206A401C206285
:10072000381EA7F10107F4DC07E0D4E9012118F82D
:1007300005009047206A401C2062281EA5F1010593
:10074000F3DC2046FFF77CFE2078000602D502206D
:10075000BDE8F0870120FBE70048704780040020D7
:1007600000487047800400207546FFF7F9FFAE4649
:1007700005006946534620F00700854618B020B5AD
:10078000FFF784FDBDE820404FF000064FF0000762
:100790004FF000084FF0000BAC46ACE8C009ACE8E5
:1007A000C009ACE8C009ACE8C00921F007018D46DA
:1007B000704710B50446AFF300802046BDE81040F6
:1007C000FFF750BD7047000001491820ABBEFEE79F
:1007D0002600020080B50020C4F202001021012290
:1007E00002F020F980BD000080B50020C4F20200B4
:1007F0001021002202F016F980BD000070470000B1
:1008000080B540F20040C4F202000121012202F052
:1008100009F980BD80B540F20040C4F20200012118
:10082000002202F0FFF880BD7047000010B5E8B16B
:100830004EF2180145F2003CCEF20001C0F2070C66
:1008400004E000BF0138020408BF10BD51F804ECF9
:100850000B6800220C68A342FCD01A44121BA3426E
:1008600098BF724462452346F4D3EBE710BD000005
:1008700080B54EF21801CEF20001C0EB001051F825
:1008800004CC4FEA401E0868002300BF0A6890426B
:10089000FCD003449B1A904298BF634473451046B2
:1008A00028BF80BDF2E7000010B5FFF7A7FFFFF7F4
:1008B000BBFF0EF0FDF904460EF086FA204310BD92
:1008C0002DE9F04383B08146002090460E46CDE9E5
:1008D0000000FFF789FF922000F0AAF8922000F0B4
:1008E000A7F86846451E06242F4600BF552000F095
:1008F0009FF8013C210607F8010FF7D1FFF76AFFC7
:10090000BDF90000BDF9021000EE100A40F200002F
:10091000C2F2000090ED001AB8EEC00ABDF9042042
:1009200021EE000A86ED000A00EE101A90ED001A82
:1009300002EE102AB8EEC00AB8EEC22A21EE000A72
:1009400021EE021A86ED010A86ED021AFFF762FF18
:10095000802000F06DF808242E4600BF552000F0DE
:1009600067F8013C210606F8010FF7D1FFF748FFB1
:100970009DF800000F2825D1BDF90200BDF9041033
:1009800000EE100A40F20400C2F2000090ED001ADE
:10099000B8EEC00ABDF9062021EE000A89ED000A72
:1009A00000EE101A90ED001A02EE102AB8EEC00AFE
:1009B000B8EEC22A21EE000A21EE021A89ED010AE0
:1009C00089ED021AFFF710FFA22000F031F8A220F3
:1009D00000F02EF8022400BF552000F029F8013C59
:1009E000210605F8010FF7D1FFF7F4FE9DF800008E
:1009F0009DF80110C00040EA51104FF6000100229E
:100A0000CFF6FF71B2EB902F18BF084300EE100A2B
:100A1000B8EEC00AB4EE001A20EE010AB3EE071ACF
:100A200030EE010A88ED000A03B0BDE8F083000053
:100A300080B582B08DF8070044F258304FF47A7CCC
:100A4000C2F200000DF107010DF106020123CDF8FD
:100A500000C003F0EFFC9DF8060002B080BD00006E
:100A600080B5006841F20041C4F20001884218BF1D
:100A700080BD40F2C402C2F20002107840F20121AF
:100A80000130107044F2B030C2F2000000F088F97A
:100A900080BD00002DE9F04184B00446006844F6B2
:100AA0000005C4F20005A84233D144F27050C2F2EE
:100AB000000000680168C9062BD500210391016878
:100AC00003914168039103990168406844F27050B2
:100AD000C2F2000004F0E4FA43F65450C2F20000FF
:100AE00000684068132809D141F6801043F2902134
:100AF000C2F20000C2F2000107F058FE44F270504A
:100B000041F68011C2F20000C2F20001252204F079
:100B100051FE206805F54C41884232D144F2B8506C
:100B2000C2F2000000680168C9062AD500210291BE
:100B3000016844F2B85802914068C2F2000802907D
:100B40000298404604F0ACFA43F6B450C2F20000FA
:100B5000006841F648074068C2F20007C043C6B2C9
:100B600043F28411C2F200013846324608F0B6FB67
:100B700038463146FFF740FD40463946FF2204F033
:100B800019FE206805F54841884202D004B0BDE84E
:100B9000F08144F22850C2F2000000680168C906E2
:100BA000F4D500210191016844F228540191406874
:100BB000C2F2000401900198204604F071FA43F655
:100BC0009440C2F20000006841F620554068C2F22D
:100BD0000005C0F11400C1B22846FFF70DFD204604
:100BE0002946142204F0E6FD04B0BDE8F0810000BF
:100BF000FEE7000080B543F61C30C2F2000001F0B1
:100C00009BF880BD80B543F64430C2F2000001F08D
:100C100093F880BDB0B588B0044600254FF400605D
:100C20000690CDE902052046CDE900550795CDE9AE
:100C3000045506F0BDF800285DD0204606F004FA01
:100C4000002857D001AB20462021232206F06EFA5F
:100C50006B4620462421272206F068FA07AB20467F
:100C60000021032206F062FA06AB20460421072287
:100C700006F05CFA05AB204608210B2206F056FA76
:100C800004AB20461021132206F050FA03AB204695
:100C90001421172206F04AFA02AB204618211B2223
:100CA00006F044FA20466021042206F0FFF92046AF
:100CB0007021012206F0FAF920462A21002206F0CE
:100CC000F5F920462921912206F0F0F92046282145
:100CD000012206F0EBF920462C21002206F0E6F96D
:100CE00020462B21012206F0E1F9204606F0C6F944
:100CF000054600E00025284608B0B0BDF0B585B037
:100D000000270C4605468DF810700397CDE9017752
:100D100006F01AF840283FD30646400605D406F0F0
:100D2000C000802807D1942100E0902101AA284624
:100D30000D2306F0E3F806F01800102815D19DF8F1
:100D400005209DF804101C2602F0030706EAD202D3
:100D500042EA411102209DF80630394420709DF886
:100D60000700090441EA032107E0012020709DF8F3
:100D700004009DF80520C100500908439DF80810A3
:100D8000C4F801006171DDF80900DDF80D100127DC
:100D9000C4F80600C4F80A10384605B0F0BD0000DB
:100DA00080B544F6500CC2F2000C0123CCF80110BF
:100DB00008218CF800308CF8051051681268CCF8C6
:100DC0000A106146CCF8062000F002F880BD000051
:100DD000F0B581B044F204650446C2F2000500207B
:100DE000286020460E4606F0CBF843F2A471C2F20A
:100DF00000014207087012D43178D6F801000229A8
:100E000022D101BA090CE0226980C0F3014102EA53
:100E10005032114408316970C0F347501AE0C106DE
:100E20001BD43178D6F8010002292BD101BA090C64
:100E3000E0226980C0F3014102EA503211440831D6
:100E40006970C0F3475023E0002169804101C0F37D
:100E5000D70069708127402128E040061BD43178F3
:100E6000D6F80100022919D101BA090CE0226980E3
:100E7000C0F3014102EA5032114408316970C0F3F5
:100E8000475011E0002169804101C0F3D70069702B
:100E9000822742210AE0002001B0F0BD00216980D4
:100EA0004101C0F3D7006970842744217379287009
:100EB000063620462A46009605F09AFF2046394617
:100EC00006F092F8012001B0F0BD000070B58AB0C4
:100ED00043F61C3401200021C2F200046D460E26A8
:100EE0000890CDE90610CDE90011CDE90211CDE958
:100EF000041120462946099600F01AFE204601F00A
:100F0000D5F92046022100F0B5FD43F64434C2F283
:100F10000004204629460996059600F009FE204661
:100F200001F0C4F92046022100F0A4FD0AB070BD12
:100F3000002070470020704710B543F2B074C2F231
:100F4000000442F68411C2F20001204600220AF099
:100F5000C7FC42F28411C2F2000120460AF0B2FC42
:100F6000002010BD70B543F2B0760546C2F200060F
:100F70000C46304629460AF0A5FC30460AF07CFCB7
:100F8000226843F23D24C2F2000420462946FFF7BE
:100F9000B4FA43F25C21C2F2000120460CF058FA88
:100FA000002070BD0020704710B543F2B072C2F24D
:100FB0000002D2F8BC22D2F81432002B1CBF012050
:100FC00010BD43F2B074C2F200040A460146204646
:100FD0000AF086FC20460AF021FD10BD10B582B053
:100FE000DDE904EC140A8DF801201A0A8DF80220BC
:100FF0004FEA1E228DF804204FEA1C228DF80620AD
:101000006A468DF800408DF803308DF805E08DF8C4
:1010100007C00DF057FF02B010BD000080B543F6C9
:101020005450C2F2000001F041FA80BD80B543F691
:101030003440C2F2000001F039FA80BD80B543F6B9
:10104000B450C2F2000001F031FA80BD80B543F621
:101050007430C2F2000001F029FA80BD80B543F679
:10106000D430C2F2000001F021FA80BD80B543F611
:101070009440C2F2000001F019FA80BD80B543F639
:101080001460C2F2000001F011FA80BD80B543F691
:10109000F440C2F2000001F009FA80BD80B582B0D0
:1010A00041F2040CCEF2000CDCF8001041F66012A4
:1010B0000091C2F20002DDF800E0036812680099B6
:1010C0000160DCF8000041F6781C0190C2F2000CCF
:1010D0000199DCF80000814206D241F67C10C2F290
:1010E0000000016801310160AEEB030000EE100A60
:1010F00001EE102A0198B8EE400AB8EE411A80EECF
:10110000010ACCF8000002B080BD00002DE9F043D8
:1011100083B041F20400CEF2000001680191006842
:10112000029041F67810C2F20000029902689142E2
:1011300041F67C11C2F2000102D20A6801320A6053
:10114000029A002602600868019D4FF0FF31E0FB23
:10115000015641F66011C2F2000141F670100F68AD
:10116000C2F20000C0E90056284631463A46002344
:10117000FFF79EF88046A0FB07022D1A41F6641087
:1011800001FB0721C2F2000007688E4141F6585961
:10119000C2F20009284631463A460023C9F80080C9
:1011A000FFF786F80446A9F8040080B241F66811FA
:1011B0007843C2F20001281A0A6866F10001002390
:1011C000FFF776F84FF47A7108FB01F182B211FA59
:1011D00084F101EE102A9FED082A00EE101AB8EEF5
:1011E000411AB8EE400A21EE021A31EE000AA9F8BF
:1011F000060003B0BDE8F0836F12833A10B54EF6D7
:10120000FC5CCEF2000CDCF8002044F24023C0F27B
:101210000F0342F08072584344F6D353CCF80020B9
:1012200041F20002C1F26203CEF200024FF0000C64
:10123000A0FB033EC2F804C04DF683611368C4F2FC
:101240001B31A0FB011443F00101116041F6601154
:10125000C2F20001086041F664114FEA9E10C2F22A
:101260000001086041F66811A00CC2F2000108609C
:1012700041F67C10C2F20000C0F800C010BD0000B2
:101280007047000010B544F2B034C2F2000444F6D6
:101290003001C2F2000120460CF044F9022001F0B6
:1012A000E3FA20460CF092F910BD000072B600BFC0
:1012B000FEE70000B0B5A820FFF7A0FFFFF706FE8D
:1012C00044F2B030C2F20000FFF7A4FC43F2AC716C
:1012D000C2F20001087044F2E040C2F2000003F0E4
:1012E000E1FA43F69444C2F20004204601F098F873
:1012F00043F6F445C2F20005284601F091F8204675
:1013000001F09AF9284601F097F944F22854C2F204
:101310000004204603F0C4FE20681422C16841F096
:101320001001C16041F62051C2F20001204604F0D4
:1013300041FA43F65454C2F20004204601F070F81A
:10134000204601F079F944F27054C2F200042046BC
:1013500003F0A6FE20682522C16841F01001C1609B
:1013600041F68011C2F20001204604F023FA43F650
:10137000B454C2F20004204601F052F843F614655A
:10138000C2F20005284601F04BF8204601F054F95E
:10139000284601F051F944F2B854C2F20004204644
:1013A00003F07EFE2068FF22C16841F01001C16099
:1013B00041F64801C2F20001204604F0FBF906F0B4
:1013C000F5FC40F63C04C4F20004322020604FF4E7
:1013D000FA7001F01FFA00202060B0BD10B52DEDAD
:1013E000028B82B004468069B0EE408A019001A869
:1013F000FFF754FE206AE16802EE100A04EE101AAC
:1014000020EE081A30EE023A22EE042A81EE031A88
:1014100082EE032A10EE100AE061208E032871EE9E
:10142000020A10EE901AE16004D304F1320006F0D3
:10143000F9FC06E0206901EE100A30EEC11A81EED7
:10144000000AB4F85C0010EE101A032861620AD397
:10145000E169626A04F15E0000EE101A00EE902A63
:1014600006F0E0FC0CE0616AE26AE06900EE101A46
:1014700001EE102A30EE410A01EE100A80EE010A58
:1014800010EE100AA06220686168E36801EE100A9D
:10149000606AA26802EE103A03EE101A04EE100A17
:1014A00023EE043A21EE021A02EE102AD4F88C1030
:1014B00031EE031A22EE000A30EE010A01EE101A94
:1014C00010EE100AF1EE410AC4F888000EF07EF822
:1014D00010EE100AC4F88800E068616A2061E162D9
:1014E00002B0BDEC028B10BDB0B504461D4610EE37
:1014F000100A002CC4F88C0018BF002906D1002067
:1015000020606060A060C4F88C0005E0086820607E
:10151000486860608868A06010EE900A032A206224
:101520002286A4F85C5004D304F13200114606F080
:1015300053FD032D04D304F15E00294606F04CFD53
:101540000020A061C4F88800B0BD000041F69020E2
:10155000C2F2000090ED690A7047000041F6902049
:10156000C2F2000090ED680A7047000041F690203A
:10157000C2F2000090ED6A0A7047000041F6902028
:10158000C2F2000090ED6B0A7047000070B581B0A8
:101590000022009290F83C20012A01D1022176E03D
:1015A0000E6801221FFA86FC80F83C204FEA4C02AC
:1015B00012FA86F302680A2E32BF10321E3B0C323A
:1015C0004FF0070E15680EFA03F4A54315608D68F9
:1015D000146805FA03F3234313604968062906D803
:1015E000026801EB8101053902F134030AE00C299C
:1015F00001EB8101026887BF413902F12C032339D5
:1016000002F130031F221C688A4024EA02021A6099
:101610001A680CFA01F1114342F2043E1960C4F257
:10162000010E0168AEF54172914208BF122E02D040
:10163000914208D028E0DEF8003043F48003CEF871
:101640000030914220D126F0010110291CD1DEF892
:101650000010102E41F40001CEF8001014D140F219
:10166000C001C2F2000109684DF68362C4F21B3268
:10167000A1FB0212910C01EB81014900009100993C
:1016800011B100990139F9E7002180F83C100846B2
:1016900001B070BD0068C06C70470000002804BF36
:1016A0000120704710B50446006C30B9204600F0A8
:1016B0009BF80020606484F83C00206CC0063AD49B
:1016C000206C41F202118843023042F2043120645E
:1016D000C4F20101086820F4403008600A6894E808
:1016E00009101A43D4F810E00A604168012321F47C
:1016F000807141604168C0F6007341EA0E2141608B
:10170000416821F040714160416841EA0C0141604B
:10171000816821F400618160E16882681143816021
:10172000A16A8268994222F070628260826804D164
:1017300022F040510AE0012052E0114381608168AB
:1017400021F040518160E16A8268114381608168C3
:1017500021F0020181608168227E94F8203041EA04
:1017600042018160416883B141F400614160416898
:101770004EF2000221F460414160616ACFF6FF72CF
:10178000436802EB4131194301E021F400614160FB
:10179000C16A40F2000C21F47001C162E269616922
:1017A000CFF6F07CC36A0CEB02521A43C262826825
:1017B00022F40072826094F83020836843EA422267
:1017C0008260826822F480628260826842EA8121BB
:1017D000816000206064216C012262F301012164B8
:1017E000002184F83C1010BD80B586B0006842F23C
:1017F0000022C4F2010200219042CDE90411CDE99A
:101800000211019116D042F20001C4F20101884296
:1018100038D10020009043F64400C4F20200016871
:1018200041F480710160006800F4807000900098BD
:1018300006B080BD43F644000091C4F20200026885
:1018400042F480620260026802F480620092009AB0
:10185000009150F8142C42F0200240F8142C50F85B
:10186000140C00F02000009000984FF4806001906C
:101870000320CDE9020141F20040C4F2020001A9B7
:1018800001F000F806B080BDF0B581B004460068F4
:101890000D468268520544BF80685FEAC0502BD471
:1018A00001F0C6F821680A68920715D406466F1C35
:1018B00008E000BF20680068800727D52168086815
:1018C000800709D4002FF9D0002DF3D001F0B0F833
:1018D000801BA842EED8F1E76FF012000860206C80
:1018E00040F400702064886810F0405F01D1207ED1
:1018F000B0B1002001B0F0BD206C40F020002064A9
:10190000002084F83C00012001B0F0BD206C40F0C4
:1019100004002064002084F83C00032001B0F0BDE6
:10192000C86A10F4700F02D088684005E1D4206CBA
:1019300020F480702064206CC004DAD4206C40F065
:1019400001002064D5E7000010B581B000210091AE
:1019500090F83C10012902D1022001B010BD0468AA
:10196000012180F83C10214651F8083FDB0717D1D0
:101970000B684DF6836243F001030B6040F2C00335
:10198000C2F200031B68C4F21B32A3FB02239A0CB1
:1019900002EB42020092009A12B1009A013AF9E772
:1019A0000A68036CD20709D143F01001016400F109
:1019B000440101200A681043086055E040F20172BA
:1019C00023EA020202F5807202646268520504D5BD
:1019D000026C012363F30D320264026C4FF0000EBF
:1019E0000023D20444BF426C22F0060342F2043CBE
:1019F000436480F83CE06FF02200C4F2010C2060E8
:101A0000DCF80000C0060DD0ACF5417084422BD14B
:101A10004FF60450CFF6FF705CF8000010F0405F06
:101A200022D124E042F20000C4F20100844217D027
:101A300042F20020C4F2010084420DD042F20010B4
:101A4000C4F2010084420FD1DCF80000C00607D0C8
:101A5000ACF58270844207D1DCF80000C00603D4E4
:101A6000086810F0405F02D0002001B010BD4FF0B8
:101A700080409FE790F82020013A012A04D80068AE
:101A800000F11402002004E000F1240201204FF4D0
:101A900080211368194311607047000010B590F859
:101AA00020E0D0F800C0AEF1010EBEF1010FDCF86D
:101AB00008E00ED81EF0E05F11D0CEF3016E0120D9
:101AC00000FA0EF018608B687BB1486843EAC003E7
:101AD0000DE000F1240101204FF4802223E000F109
:101AE000240101204FF400121DE008684305D1E9EC
:101AF000030403430CEB0E10C0F88031C0F884419E
:101B0000097D012905D100F5C2710B6843F480738A
:101B10000B605168C0F88C11126800F5C071C0F8F4
:101B20008821002001220B681A430A6010BD0000C2
:101B3000B0B590F82020013A012A2FD846F2006073
:101B4000C4F20000026842F001020260026822F45E
:101B50007C520260D1F814E0CC694A6A0368012C17
:101B600043EA022202600EF01F024FF0010303FA63
:101B700002F2C3696FEA020C23EA0203C36113D0C5
:101B80002CBBC36803EA0C03C360CB688C8844EAAF
:101B9000034300EBCE0423640B4611E0416A41F499
:101BA000802141620120B0BDC3681343C3600B684C
:101BB0008C8844EA034300EBCE04236401F10C0358
:101BC0008C681B8843EA044300EBCE0463644368DB
:101BD0008D6943EA0204D1F810E0096A002D08BFBC
:101BE00003EA0C0444604369BEF1000F43EA0204B7
:101BF00008BF03EA0C040129446102D1C169114301
:101C0000C161016821F0010101600020B0BD000048
:101C10007047000010B590F82040013C012C0AD814
:101C2000046871B12469A4070ED100F124010120D8
:101C30004FF4001276E000F1240101204FF48022DD
:101C400070E0E468A40771D0046804EB011CDCF8C0
:101C5000B0410CF5D87E14F004049460DCF8B04177
:101C600019BFE4085460640D1460DEF800400CF500
:101C7000DA7E04F00204D460DCF8B44124075ABFD1
:101C8000DEF8004004F00F0408241461DEF8004080
:101C90000029C4F307249461DEF800404FEA14449D
:101CA0005461DCF8B8211A70026802EB0112D2F814
:101CB000B8214FEA12225A70026802EB0112D2F8E0
:101CC000B8214FEA12429A70026802EB0112D2F870
:101CD000B8214FEA1262DA70026802EB0112D2F800
:101CE000BC211A71026802EB0112D2F8BC214FEA42
:101CF00012225A71026802EB0112D2F8BC214FEA9B
:101D000012429A71026802EB0112D2F8BC214FEA2A
:101D10001262DA71006814BF00F1100100F10C01C9
:101D2000002020220B681A430A6010BD00F1240134
:101D300001204FF40012F5E72DE9F04F81B0044681
:101D400000684669D0F804908768D0F80CB0D0F8E5
:101D500010A0D0F81880F10703D1002530071CD45B
:101D600023E0F90710D00121BA07816009D4780770
:101D700000F1AA80380700F1B080204600F0C4FAD4
:101D800002E0204600F0C2FA0025F80500F1848048
:101D9000F80300F1AA80300707D51BF0100004D02B
:101DA000206845F400751021C160700708D51BF04C
:101DB000080005D020680821C160204600F0E4F941
:101DC000B00706D52068C068800702D0204600F022
:101DD000DDF9700607D51AF0100004D0206845F42C
:101DE000806510210161B00608D51AF0080005D001
:101DF000206808210161204600F052FAF00606D55D
:101E000020680069800702D0204600F04BFAB0033A
:101E100008D519F0100005D0206810214160204637
:101E200000F042FAF00308D519F0080005D0206848
:101E300008214160204600F073FA300440F18F80A1
:101E40005FEA497040F1888006F4807008EA10204B
:101E500028435FEA8871014648BF41F00201B2059C
:101E600058BF01465FEA48700D4648BF45F004057B
:101E7000700558BF0D4630056ED518F070006BD058
:101E800010380009052862D8DFE800F003535659DE
:101E90005C5F45F008055AE020684FF48071BA0590
:101EA00081600AD4780512D4380519D4204600F090
:101EB0002FFAF8037FF56FAF17E0204600F02AFAFB
:101EC000F8037FF568AF10E04FF400655DE705F5B6
:101ED0000055F8037FF55FAF07E04FF4805554E7F6
:101EE00005F58045F8037FF556AF20684FF4803143
:101EF000BA0381600AD478030FD4380313D4204680
:101F000000F00AFA30073FF548AF4EE7204600F0F0
:101F100005FA30073FF541AF47E705F500453007C3
:101F20003FF53BAF41E705F5803530073FF535AF6D
:101F30003BE745F010050AE045F0200507E045F0D5
:101F4000400504E045F0800501E045F48075206817
:101F5000816921F0700181612068042141602DB107
:101F6000606A284360622046FFF752FE01B0BDE878
:101F7000F08F0000B0B5C8B1044690F8200010B949
:101F8000204600F071F82068016841F0010101600D
:101F900000F04EFD054600BF20684168C90707D123
:101FA00000F046FD401B0B28F6D312E00120B0BD27
:101FB000016821F00201016000F03AFD054600BF12
:101FC0002068416889070DD500F032FD401B0B28C1
:101FD000F6D3606A052140F400306062012084F885
:101FE0002010B0BD217E0268012922F0800208BFC6
:101FF00080320260617E0268012922F0400208BF3F
:1020000040320260A17E0268012922F0200208BF4E
:1020100020320260E17E0268012922F0100218BF1E
:1020200010320260217F0268012922F0080208BFF5
:1020300008320260617F0268012922F0040208BFB1
:1020400004320260D4E901C2D4E9033561691A435C
:102050002A431143ACF101021143C1610020012167
:10206000606284F82010B0BD10B586B0006846F6F6
:102070000002C4F2000200219042CDE90411CDE932
:102080000211019134D046F20041C4F200018842AD
:1020900077D141F69C11C2F200010A6843F6400074
:1020A000C4F20200531C0B6052B900210091016878
:1020B00041F000710160016801F000710091009928
:1020C0000021009150F8101C142441F0080140F840
:1020D000101C50F8100C00F008000090009803202D
:1020E000019040F20040C4F2020000F5006035E0CB
:1020F00043F64000C4F202000091016841F08061A3
:102100000160016801F080610091009941F69C1125
:10211000C2F200010A68531C0B6052B90021009101
:10212000016841F000710160016801F000710091E7
:1021300000990021009150F8101C402441F0020148
:1021400040F8101C50F8100C00F0020000900098AD
:102150006020019040F20040C4F20200022102918E
:1021600000210391032104910921059101A900F0A7
:1021700089FB20460521002200F014FD204600F0D6
:1021800001FD06B010BD00007047000010B58AB018
:1021900003AA6B4600210446FFF73CFD43F61C30C2
:1021A000C2F20000844207D043F64430C2F200007D
:1021B00084421ED00AB010BD0398A0F20120052869
:1021C000F2D8DFE800F0043239034349ECE740F28B
:1021D000E040C2F2000000F6A800694606F06EFF7B
:1021E000DDE9000144F64802C2F20002C2E9000142
:1021F000DAE70399A1F2012003280AD8DFE800F00A
:1022000002363D4440F2E040C2F2000000F52D608D
:1022100041E0B1F5427FCDD141F64810C2F2000055
:10222000694606F06FFA0AB010BD40F2E040C2F213
:10223000000000F58B6005E040F2E040C2F20000D3
:1022400000F5D060694606F039FFADE740F2E040A6
:10225000C2F20000083005E040F2E040C2F20000A7
:1022600000F50C7069460BF06DF99DE740F2E04017
:10227000C2F2000000F6F8400DE040F2E040C2F289
:10228000000000F5726006E040F2E040C2F200009B
:1022900041F248110844694606F010FF0AB010BD2B
:1022A000704700007047000070470000B0B504465A
:1022B00090F8200001281DD1022084F82000206819
:1022C000016821F00101016000F0B2FB054600BF8A
:1022D00020684068C00713D000F0AAFB401B0B2801
:1022E000F6D3606A40F400306062052084F8200074
:1022F0000120B0BD606A40F4002060620120B0BDE2
:1023000000206062B0BD0000704700007047000010
:1023100070470000704700007047000070470000E1
:1023200070470000002804BF0120704710B5044624
:10233000407920B900202071204600F005F80120E6
:102340006071002010BD000081B043F63001C4F27E
:1023500002010068A1F50362904201D001B070470C
:1023600000200090086840F480500860086800F47D
:1023700080500090009801B07047000070B5866DE5
:10238000044600F055FB94F83510022925D1054686
:102390002068216C026822F016020260426922F075
:1023A0008002426109B9A16C19B1016821F00801EC
:1023B0000160016821F00101016000BF2068006830
:1023C000C0070ED000F034FB401B0628F6D32020B7
:1023D0006065032084F835000CE0802060650120F2
:1023E00008E0E06D3F2101FA00F0B060012084F8C0
:1023F00035000020002184F8341070BD90F83510AD
:10240000022909D1052180F835100068016821F002
:102410000101016000207047802141650120704763
:10242000B0B500283FD090F83510022904BF022033
:10243000B0BD02686FF00F034AF6AB21D2F800C0BE
:1024400053FA82F5CAF6AA21A5FB011E2CF0010160
:10245000116000212123116051609160D1601161F0
:10246000536142F2CC134FEA1E1CC0F6010313F86D
:102470000C3040F2FF34A2435F2D4FF03F0588BF80
:102480000432C0E9162305FA03F3C0E90F11C0E9CD
:102490001111C0E913119360416580F8351080F87F
:1024A00034100846B0BD0120B0BD0000F0B581B0C9
:1024B00004460020009040F2C000C2F20000026812
:1024C000D4E9166048F2B51337680821C1F64E33D7
:1024D00081403942A2FB03250CD0226813685B07B8
:1024E00008D5136823F004031360B160616D41F0F7
:1024F0000101616501218140394208D02268526999
:10250000120604D5B160616D41F0020161650421DC
:102510008140394208D022681268920704D5B16020
:10252000616D41F00401616510218140394215D08F
:1025300020680268120711D5B16002680168520371
:1025400006D4C90506D4016821F00801016001E044
:10255000080340D4216C09B120468847E16D202052
:1025600000FA01F23A4242D020680368DB063ED509
:10257000B26094F835300268052B1CD122F01602A7
:102580000260426922F080024261226C0AB9A26CA8
:102590001AB1026822F0080202603F208840B06051
:1025A000012084F83500216D0020002984F83400D2
:1025B0003DD101B0F0BD0168520310D4C90512D459
:1025C000016821F010010160012084F8350000202D
:1025D00084F8340007E0A16C0029BDD1BEE70803F0
:1025E00001D4616C00E0E16B09B120468847606D61
:1025F0000028DED0606DC00716D0052084F83500B5
:102600002068A90A026822F001020260009A0132E1
:102610008A42009202D80268D207F7D1012084F8DA
:102620003500002084F83400E16C0029C1D0204638
:10263000884701B0F0BD00002DE9F041044600F0EC
:10264000F7F9C4B10546022084F83500002021685E
:1026500084F83400086820F00100086020680168F0
:10266000C9070BD000F0E4F9401B0528F6D9032177
:10267000202203207BE00120BDE8F081016848F2C0
:102680003F02CFF21002D4E9013501EA020ED4E98B
:10269000032143EA0E032B43D4E9056C1A4311438B
:1026A000D4E90778314341EA0C02616A3A430429CC
:1026B00042EA080304D1D4E90B271A4342EA07038C
:1026C00003604269042922F0070241EA02012DD188
:1026D000D4E90A5341EA050143B3BCF5005F08D0D1
:1026E000BCF1000F12D1022D16D0012D07D09DB1E3
:1026F00019E0032D17D8DFE805F00B0F0B02A3F14B
:10270000C072B2FA82F252094AB90FE0032D02D226
:10271000012222B90AE006D1C3F3006232B10121DD
:102720004022012023E00022002AF8D16FF00F029E
:102730004AF6AB2352FA80F2CAF6AA23A2FB033769
:1027400042F2CC1341613909C0F60103595C40F2F1
:10275000FF3398435F2A4FF03F0288BF0430C4E93B
:10276000160102FA01F18160002201210020626558
:1027700084F83510BDE8F08170B590F834C0BCF134
:10278000010F45D04FF0010C80F834C0D0F858E06C
:1027900090F835C0BCF1010F37D14FF0020C80F832
:1027A00035C04FF0000CC0F854C0D0F800C08468A9
:1027B000056CC06DDCF80060402C26F48026CCF857
:1027C0000060CCF804300B4604BF13460A463F2194
:1027D00001FA00F0CCF80830CCF80C20CEF8080054
:1027E000DCF8000040F01600CCF800002DB1DCF859
:1027F000000040F00800CCF80000DCF8000040F0D9
:102800000100CCF80000002070BD002180F83410D9
:10281000022070BDB0B5044600F00AF9054640F24A
:102820007040C2F200000078611C18BF044400BF71
:1028300000F0FEF8401BA042FAD3B0BD022818BF3A
:10284000704710B544F2B034C2F2000444F63001CF
:10285000C2F2000120460AF065FE20460AF0B6FEEC
:10286000BDE810407047000080B543F61441C4F243
:1028700001010A68024208BF80BD0860FFF7DEFF61
:1028800080BD00002DE9F04F82B000F13E4241F6DC
:10289000004502F1FF77C4F2020508224FEAB7268D
:1028A000A84208BF0722072E38BF4FEAB7224FF0D1
:1028B000010A002400274FF00009009209E000BF40
:1028C00009F101090437B9F1100F04F1020400F015
:1028D000A6800A680AFA09FC12EA0C08F0D0D1F8BE
:1028E00004B00BF0030AAAF10102012A12D882688F
:1028F0000323CE6803FA04FE22EA0E02A640324306
:1029000082604268CBF3001622EA0C0206FA09F64E
:1029100032434260BAF1030F1DD0C26803238D68B1
:1029200003FA04F6B24305FA04F63243BAF1020F91
:10293000C26010D16FF0030202EA59020244D2F8D9
:1029400020C007F01C050F230E69AB402CEA0303DF
:10295000AE4033431362026803234E68A3409A4398
:1029600006F00303A3401A4316F4403F4FF0010A58
:102970000260A5D0002243F644030192C4F2020390
:102980001A6843F6004E42F480421A601A68C4F294
:10299000010E02F480420192019A29F003024FF6DF
:1029A000084C7244CFF6FF7C52F80C3007F00C064E
:1029B0000F25B540AB43009D05FA06F6334342F8B8
:1029C0000C30DEF808204B6842EA080643F60C4C4F
:1029D000DD0258BF22EA0806CEF80860C4F2010CF6
:1029E000DCF800209D0242EA080658BF22EA0806E9
:1029F000CCF80060DEF804209D0342EA080658BFC8
:102A000022EA0806CEF80460DEF80020DB0342EA82
:102A1000080658BF22EA0806CEF8006050E702B068
:102A2000BDE8F08F002A08BF0904816170470000EB
:102A30004AF67040C2F200000068704740F27040F1
:102A40004AF67041C2F20000C2F2000100780A6842
:102A5000104408607047000080B543F60040C4F29F
:102A60000200016841F400710160016841F4806175
:102A70000160016841F480710160032000F0BEF83C
:102A80000F2000F005F800F059F8002080BD00008C
:102A900070B586B0002543F640010195C4F20201ED
:102AA0000A68044642F001020A60096801A801F0C0
:102AB000010101910199694600F0B8FF049E002EC2
:102AC00018BF012600F0D8FF4DF68361B040C4F274
:102AD0001B31A0FB01014FF0FF3000EB914144F2AC
:102AE0005040C2F200004FF0804240F2E733C0E9AC
:102AF0000021C0E902530561856101F027FE05460A
:102B0000C0B944F25040C2F2000001F0CBFE0546CD
:102B100080B91C2000F036F80F2C0AD81C20214662
:102B2000002200F03FF840F27440C2F2000004605E
:102B300000E00125284606B070BD000080B582B0D7
:102B4000002043F640010190C4F202014A6842F4B9
:102B500080424A604A6802F480420192019A0090E1
:102B60000868002240F08050086008680F2100F0DB
:102B70008050009000986FF0010000F013F802B050
:102B800080BD0000002848BF704700F01F010122EF
:102B900002FA01F14EF200124009CEF2000242F8B0
:102BA0002010704710B54EF60C5CCEF2000CDCF82D
:102BB0000030C3F3022E8EF00704042C28BF042437
:102BC000BEF103034FF0FF3E0EFA04F438BF0023BA
:102BD000A14399400EFA03F39A4300F00F03043B1C
:102BE0001143634409010C3300F16042B0F1FF3F2F
:102BF000C8BF02F56443197010BD00004EF60C51B9
:102C0000CEF200010A684FF6FF031A4060F30A2271
:102C100042F0806040F0FD7008607047704700002F
:102C2000026800205162704770B5D0F800E0DEF80D
:102C30002400D9B1DEF82830B1F1010C00EB1343C8
:102C40000CD00EF5807100205FFA8CF451F8045F0F
:102C50000130C6B2A64203EB1543F7D343EA024064
:102C60000EEB8C01C1F80401002070BD40EA024067
:102C7000CEF82800002070BD80B5D0F8E00409F03F
:102C800025F980BD80B501EBC102D0F8E03400EB3E
:102C90008200026A184609F07DF880BD80B501EB1C
:102CA000C102D0F8E03400EB8200D0F86022184670
:102CB00009F0CAF880BD000080B5D0F8E00409F042
:102CC00007F980BD10B50446080601F00F0000EBBF
:102CD000C00104EB810205D402F51571002382F8CE
:102CE000553203E0012302F11401537594F8942442
:102CF0000870012A04BF022010BD2068012284F858
:102D0000942409F0ADFE002084F8940410BD000066
:102D1000B0B50279044601F00F00904284BF012053
:102D2000B0BD090609D400EBC00104EB810202F535
:102D30001571002382F8553207E000EBC00104EB67
:102D40008102012302F11401537594F894240025A3
:102D5000012A8D70087004BF0220B0BD20680122D6
:102D600084F894240AF012F8284684F89454B0BDEC
:102D700001F00F0101EBC10100EB8100D0F8680206
:102D800070470000B0B50546080601F00F0000EBE3
:102D9000C00105EB810C05D40CF5157100248CF8ED
:102DA000554204E001240CF114018CF815404C78D4
:102DB0006FF3DF22002C08708A600B7118BF488304
:102DC000022B04BF0020487195F89404012804BF29
:102DD0000220B0BD2868012285F8942409F060FD26
:102DE000002085F89404B0BD10B501F00F0404EB89
:102DF000C40100EB810E4FF0000CCEF868C28EF8D3
:102E000055C290F806C0CEF86022CEF86432BCF10C
:102E1000010F8EF8544208BFCEF8702200680EF5FC
:102E20001571624609F0F8FF002010BDB0B50446E8
:102E3000007901F00F05854284BF0120B0BD08066E
:102E400009D401EBC10004EB800000F515710022EC
:102E500080F8552207E005EBC50004EB8000012255
:102E600000F11401427594F89404012201288A703B
:102E70000D7004BF0220B0BD206884F8942409F0CE
:102E8000ADFF2DB92068A17904F29C4209F050FFF2
:102E9000002084F89404B0BD80B501F00F0C0CEB59
:102EA000CC0100EB810E714601F814CF4FF0000CFD
:102EB000C1F814C04FF0010C81F801C090F806C0B1
:102EC000CA60BCF1010F0B6108BFCEF8302000686A
:102ED000624609F0A1FF002080BD00002DE9F04FFF
:102EE00089B00568074628460AF012F910B109B002
:102EF000BDE8F08F38680AF039F90028F7D0D5F826
:102F00000808C0F30D213868C7F8D4140AF02EF968
:102F1000800704D53868416901F0020141613868D1
:102F200005F5006103910AF021F9C00606953CD52C
:102F30003868816921F0100181612C6AC4F3434033
:102F4000062804F00F0519D0022828D147F6F070A2
:102F500014EA000823D005EBC50007EB8006D6F87D
:102F600060124FEA1814069822460AF003F9D6F8C0
:102F7000600200EB1810C6F8600207E0069807F23E
:102F80009C4108220AF0F6F8C4F30A1405EBC500C8
:102F900007EB8000D0F868122144C0F86812386846
:102FA000816941F010018161069D38680AF0DEF800
:102FB0000003089740F1EC8038680AF0B5F8002863
:102FC00000F0E680064607F29C404FF430644FF074
:102FD00000084FF0000B07901AE000BF28190221EB
:102FE00081605FEA8A6042BF281920218160089FC2
:102FF0005FEA8A4042BF28194FF4005181600BF10B
:10300000010B760804F1200408F1240800F0C080C8
:10301000F007F4D038685FFA8BF949460AF09EF859
:103020008246C0075ED0281901218160089F386858
:103030002118036C8A68BF79012F2AD1170736D46B
:10304000970678D412F0280F4CD143F20B07C4F640
:103050005477BB4202D312F4004231D1089FB8F139
:10306000000F07EB0802D2F8743209696FF3DF41F1
:10307000A3EB0101C2F8681240F08880D2F86432F4
:10308000002B00F07E80D2F860020844C2F8600293
:103090007BE043F20B07C4F65477FF37BB4212D1F3
:1030A00010040DD4900644BF2020886016E043F23F
:1030B0000B00C4F65470834214D312F4004011D0B4
:1030C0004FF4004038E0B8F1000F07D10899D1F86B
:1030D000641219B9079A002109F02AFE0898494696
:1030E000FFF7DCFD5FEA0A702AD528190821816004
:1030F000089843F20B020068C4F65472056C204431
:103100008168571EBD4205D911F400411CBF4FF420
:1031100000418160089800F095FBBD42069D0FD9E3
:103120000898807901280BD10898079A0068012136
:1031300009F0FEFD04E0202088605FEA0A70D4D424
:103140005FEACA6042BF2819102181605FEA8A7075
:103150007FF547AF6869000604D50399486840F4D5
:10316000806048600898404490F8571201297FF425
:1031700035AF002180F857120898494600F070FAE0
:103180002CE7079A012109F0D3FD089F3846A6E7EE
:10319000386809F0EBFF400340F1D58008980068DB
:1031A00009F0BAFF002800F0CE80824605F51060D5
:1031B00002900898002700F29C40019006E000BFB2
:1031C0005FEA5A0A07F1010700F0BD805FEACA70A2
:1031D000F6D0089DF9B22868079109F0ADFF029E6C
:1031E0000446C00724D0039A07F00F00516B012357
:1031F00003FA00F021EA0000506306EB47108360F9
:10320000A879012810D107EBC70005EB8000D0E9B1
:103210000712114401623FB9406A28B92868019A2F
:10322000012109F085FD00BF07992846FFF72AFD17
:10323000200742BF06EB471008218160E00642BF2D
:1032400006EB471010218160600642BF06EB471075
:1032500040218160A00715D50698394609F026FF60
:1032600007EBC70005EB800010F8171F012905D1F7
:10327000002101700799284600F0ECF906EB471091
:1032800002218160069D20069AD5089907EBC700A8
:1032900001EB800BD94659F8240FC84658F8041F93
:1032A00088428DD3089A411A13685BF81C2F03EBF0
:1032B0004710914288BF11460593D0F81829033171
:1032C00092B2B2EB910F29D300F510600BF1040517
:1032D000049000BFD8F80000D9F8001081421DD931
:1032E000DBF800200C1A089894422968867988BF78
:1032F00014460598079AA3B200960AF031F8286898
:10330000D8F80010204428600819C8F80000049874
:10331000E11C806980B2B0EB910FDBD2D9F80000DC
:10332000D8F80010069D88423FF64AAF059B07F08B
:103330000F00D3F83418012202FA00F021EA00004D
:10334000C3F834083CE7DDF82080D8F8000009F025
:103350000DFF039CB0F1FF3F18DC606820F0010016
:10336000606098F8CC04012807D1002088F8CC04CC
:1033700040460021FFF752FC02E0404600F042FACE
:10338000D8F80000416901F000414161D8F800001F
:1033900009F0ECFE00050BD5A068C00702D040463E
:1033A00000F07AFAD8F80000416901F40061416147
:1033B000D8F8000009F0DAFEC00453D56068102187
:1033C00020F001006060D8F8000009F06FFE98F866
:1033D0000400D0B105F510614FF67F328A600B68AA
:1033E000013823F400130B60C1F80822D1F8003231
:1033F00023F40013C1F80032D1F8003243F0006327
:10340000C1F8003201F12001E8D1E06940F001107B
:10341000E06198F80F0040B1D4F8840040F00B0050
:10342000C4F8840004F1440006E0606942F22B0114
:103430000843606104F11000016808F29C4241F009
:103440000B010160206820F4FE602060D8F80000C5
:1034500098F8061009F06CFCD8F80000416901F4F6
:1034600080514161D8F8000009F080FE80041CD52D
:10347000D8F8000009F05AFAD8F8000009F03AFE2E
:10348000D8F8004088F8070000F0F0FA98F8072014
:103490000146204609F0D8FE404600F0A1F9D8F8D0
:1034A0000000416901F400514161D8F8000009F0C1
:1034B0005DFE000708D5404600F0AAF9D8F80000E4
:1034C000416901F008014161D8F8000009F04EFEA1
:1034D000000628D50699886920F08000886198F850
:1034E000040002281FD308F27B24012507E000BF57
:1034F00098F804000135854204F1240413D22078A1
:103500000128F5D105F00F0000EBC00008EB8002A8
:103510002806D8F8000002F1140158BF02F5157111
:1035200009F078FDE4E7D8F8000009F01FFEC002BA
:103530002FD598F80400022825D3069808F13C05F9
:1035400000F512640126012708E000BF98F8040086
:1035500001372034874205F1240514D220682978E8
:103560000129F3D1B0F1FF3FF0DC07F00F0000EBD1
:10357000C00008EB8001D8F80000143105F8016C98
:1035800009F048FDE2E7D8F80000416901F4801134
:103590004161D8F8000009F0E9FD800233D598F8C0
:1035A0000400069D022828D3013805F5326108F58C
:1035B0001F72012306E000BF013801F1200102F172
:1035C00024021AD00F681678012EF5D1B7F1FF3F0B
:1035D000F2DCD8F8D46486EA1747FF07ECD102F88A
:1035E000013CAF6947F08007AF616F693F06E3D4E4
:1035F0000399486840F400704860D8F800004169B9
:1036000001F400114161D8F8000009F0AFFD40005D
:1036100008D54046FFF730FBD8F80000416901F0BB
:1036200080414161D8F8000009F0A0FD40077FF516
:103630005EACD8F800004468600702D54046FFF74A
:103640003BFBD8F8000041682143416009B0BDE868
:10365000F08F000080B5D0F8E00408F095FC80BD44
:1036600080B5D0F8E00408F0A3FC80BDB0B582B00E
:1036700008B30446056890F8950428B9002084F83A
:103680009404204600F068F80320B5F1A04F84F8B8
:10369000950404BF0020A071206809F041FB94E864
:1036A0000F00257C009509F051F930B1022084F813
:1036B000950401254CE001254AE02068002109F02D
:1036C0007FFD20B1022084F89504012540E0207997
:1036D00050B300EBC000800000214FF0010C00232C
:1036E000002500BFE21824331575D585984205F1F1
:1036F000010582F815C01176C2E907115162F1D1B6
:1037000000210022002300BFA518243285F854327E
:10371000904203F1010385F8551285F85812C5E966
:103720009711C5F86412EFD194E80F00257C00953D
:1037300009F0F8F920B1022084F89504012507E08A
:1037400000250120657484F89504206809F0DAF9F1
:10375000284602B0B0BD0000B0B586B000680024B5
:10376000B0F1A04F0594CDE903440294019401D037
:1037700006B0B0BD43F630050094C4F202052868D7
:1037800001A940F001002860286800F001000090C5
:1037900000984FF4C05001900220CDE902040320AC
:1037A00004900A2005900020C4F20200FFF76AF896
:1037B0006868052140F08000686000946869002214
:1037C00040F480406861686900F48040009000988F
:1037D0004320FFF7E7F94320FFF7D4F906B0B0BD67
:1037E00010B5C179044621B1022918BFFDF75EFD6D
:1037F0000121D4F8E00408F061FCD4F8E00408F0FA
:1038000011FC10BD80B5D0F8E00408F03FFC80BD8D
:1038100080B5D0F8E00408F043FC80BD10B5044644
:1038200090F89404012804BF022010BD012084F800
:1038300094046174206809F0F5FC002084F8940475
:1038400010BD000080B5D0F8E02400F29C41104685
:1038500008F04AFC80BD000010B5044690F89404BE
:10386000012804BF022010BD2068012184F89414AF
:10387000C168490606D5617B012903D1816B41F4FA
:103880008031816309F00AFC206809F02BF90020DF
:1038900084F8940410BD000010B50446D0F8E0048C
:1038A00008F072FC2068D0F8001E41F00101C0F859
:1038B000001EE07A002808BF10BD4EF61050CEF270
:1038C0000000016841F00601016010BD2DE9F041E2
:1038D000002800F08B8043F60808C4F20208044672
:1038E000D8F8F8030D4600F00700884207D288F8A0
:1038F000F853D8F8F80300F00700A84276D1206802
:10390000810717D5410705D5D8F8001041F4E051DB
:10391000C8F80010010705D5D8F8001041F460413F
:10392000C8F80010D8F80010A26821F0F001114387
:10393000C8F80010C0073FD1D8F8F80300F007001E
:10394000A84207D988F8F853D8F8F80300F0070020
:10395000A8424BD12068410707D5D8F80010E2688B
:1039600021F4E0511143C8F80010000708D5D8F839
:103970000000216920F4604040EAC100C8F800005E
:1039800000F0A2F8D8F8001041F6C462C1F30311A8
:10399000C0F60102515C40F2C00220FA01F140F28F
:1039A0007440C2F200000068C2F200021160FFF72A
:1039B0006FF80020BDE8F0816068811E022907D2FF
:1039C00058F8081C89015CBF0120BDE8F08110E0B7
:1039D000012807D158F8081C89035CBF0120BDE805
:1039E000F08106E058F8081C890702D40120BDE8E0
:1039F000F081D8F8001021F003010843C8F8000056
:103A0000FFF716F8064641F2883700BFD8F80000E5
:103A1000616800F00C00B0EB810F8DD0FFF708F863
:103A2000801BB842F2D90320BDE8F0810F2202606A
:103A300043F60802C4F20202136803F00303436072
:103A4000136803F0F0038360136803F4E053C3606A
:103A5000D2F800C04FF4E05303EADC030361D2F86C
:103A6000F80300F0070008607047000040F2C00053
:103A7000C2F200000068704740F2C00043F608013F
:103A8000C2F20000C4F202010068096841F6D46283
:103A9000C1F38221C0F60102515CC84070470000AA
:103AA00040F2C00043F60801C2F20000C4F2020175
:103AB0000068096841F6D462C1F34231C0F60102E0
:103AC000515CC8407047000010B543F60404C4F2CE
:103AD0000204606800F00C0008280AD0042819BF0E
:103AE00042F20040C0F2F40041F60030C0F2B700EC
:103AF00010BD206821682368490241F60031C0F2F8
:103B0000B70100F03F02C3F388105CBF42F20041EE
:103B1000C0F2F401A1FB00010023FCF7C9FB2168FE
:103B20000222C1F3014102EB4101B0FBF1F010BDF3
:103B30002DE9F04182B0002800F0A2800446007810
:103B400043F60006C007C4F2020643D0B06800F096
:103B50000C00042805D1306880033BD56068C8BBE1
:103B60008EE0B06800F00C00082802D170684002B6
:103B7000F1D46568B5F5A02F0AD0B5F5803F0BD01C
:103B8000306820F480303060306820F4802006E017
:103B9000306840F480203060306840F4803030601D
:103BA000FEF746FF002D054611D000BF30688003A8
:103BB00010D4FEF73DFF401B6428F7D922E100BF77
:103BC000FEF736FF401B64284FF0030055D83068DD
:103BD0008003F5D4207880071AD5B06810F00C0F58
:103BE00009D0B06800F00C00082840F08A807068A6
:103BF000400200F186803068800702D5E068012825
:103C00003ED13068216920F0F80040EAC100306000
:103C10002078000738D4207840074CD4A5695DB3DC
:103C2000B06800F00C00082840F09E80012D27D0DD
:103C30007068E16900F480028A4221D1216A00F0B3
:103C40003F028A421CD147F6C071626A0140B1EB63
:103C5000821F15D1A26A0023CFF6FF7303EBC23295
:103C600000F440316FF30F02914209D1E16A00F094
:103C70007060B0EB016F03D1002002B0BDE8F081AD
:103C8000012002B0BDE8F0816069002840F2000028
:103C9000C4F2472057D00121C0F8801EFEF7C8FEAD
:103CA000054600BF706F8007B5D4FEF7C1FE401B0C
:103CB0000228F7D9A6E0306C10F080580AD1002015
:103CC0000190306C40F080503064306C00F08050D7
:103CD0000190019847F20007C4F200073868C00558
:103CE00024D4386840F480703860FEF7A1FE0546A1
:103CF0003868C0051AD4FEF79BFE401B0228F7D98E
:103D000080E0E068002851D00020C4F24720012163
:103D10000160FEF78DFE0546306880073FF571AF04
:103D2000FEF786FE401B0228F6D96BE0A568052D3C
:103D300050D0012D52D0306F20F001003067306F2D
:103D400020F004004DE00021C0F8801EFEF770FE58
:103D5000054600BF706F80077FF55DAFFEF768FE18
:103D6000401B0228F6D94DE00027C4F24727002067
:103D70003866FEF75DFE022D05460BD130688001E6
:103D800058D5FEF755FE401B02284FF00300F5D929
:103D900073E700BF306880017FF56EAFFEF748FE25
:103DA000401B02284FF00300F4D966E70020C4F25C
:103DB000472000210160FEF73BFE05463068800782
:103DC0007FF526AFFEF734FE401B02284FF00300BC
:103DD000F4D952E7306F40F004003067306F40F0A4
:103DE00001003067FEF724FE002D054641F28837BA
:103DF00014D000BF306F800713D4FEF719FE401BAC
:103E0000B842F7D9032002B0BDE8F081FEF710FEFA
:103E1000401BB8424FF003003FF62FAF306F8007D2
:103E2000F4D4B8F1000F7FF4F9AE306C20F080507C
:103E30003064F3E604F11C052FCD08430021CFF6D2
:103E4000FF7140EA821001EBC3316FF30F0140EACA
:103E500005600843706001203866FEF7E9FD0446FE
:103E6000306880013FF508AFFEF7E2FD001B022835
:103E70004FF00300F4D900E790F8510070470000BC
:103E800070B538B10446406A30B10020206104F1B9
:103E9000140007E0012070BD6068B0F5827F03D098
:103EA00004F11C00002101600026A66294F8510074
:103EB00020B9204684F8506000F03CF8022084F8D5
:103EC000510094E80F0001F48271056802F4044285
:103ED00025F040050560114403F400622369114494
:103EE00003F002026369114403F00102A369E5696A
:103EF000114403F40072114405F03802256A11449C
:103F000005F08002A56A114305F4005211430160D7
:103F1000626A042101EA134102F010021144416077
:103F2000C16921F40061C1610120666584F8510016
:103F3000304670BD2DE9F04F87B00446216843F646
:103F40000002C4F2000200209142CDE90500CDE953
:103F50000300029000F0918043F20000C4F20100DF
:103F6000814240F0B380002743F630000197C4F24D
:103F70000200416940F2004541F4805141614169CC
:103F8000C4F2020501F48051019101990197016881
:103F900002AE41F00201016001684FF0020901F038
:103FA000020101910199019701684FF0010A41F066
:103FB0000101016000684FF0030B00F00100019067
:103FC0000198182002904FF0050828463146CDF898
:103FD0000C90CDF810A0CDF814B0CDF81880FEF7F5
:103FE00051FC802002A981E8010ECDF8188046F22C
:103FF0004048A5F580603146C4F20208FEF742FC55
:1040000043F67435C2F200054FF440304FF0C066FD
:104010004FF48069C5E908072846C5E90086C5E967
:104020000277C5E90497C5E90677FEF705FB002886
:1040300018BFFDF73BF9E564AC6343F6D43508F1EE
:104040001800C2F200054021C5E9000605F108008C
:1040500080E882024FF40030C5E908072846C5E928
:104060000577EF61FEF7E8FA002818BFFDF71EF9A3
:10407000A564AC6307B0BDE8F08F43F63001019052
:10408000C4F202010A6942F480420A610A6902F438
:1040900080420192019A01900A6842F002020A608D
:1040A000096801F00201019101994FF46041029108
:1040B0000221CDE90310032005900520069040F26F
:1040C0000040C4F2020002A9FEF7DCFB07B0BDE825
:1040D000F08F00002DE9F04182B0044690F85100C5
:1040E000012815D10E4600294FF0010060D0174677
:1040F000002A5DD060681D46B0F5827F02D1A068BD
:10410000002858D0FEF794FC94F85010012903D1F0
:10411000022002B0BDE8F0818046012084F8500002
:10412000042084F8510000206065A663A787E78714
:104130002063A086E086A1682064B1F5004F60642A
:1041400008D12068016821F040010160016821F474
:104150008041016020680168490603D4016841F08C
:1041600040010160E06898B3E08F002855D06E1CD4
:104170000BE000BFC068A16B21F8020BA163E08FC8
:104180000138E087E08F002847D020688168C907A0
:10419000F0D1FEF74DFC002EF4D0A0EB0800A842B1
:1041A000F0D3012084F85100002084F8500003204F
:1041B00002B0BDE8F081042084F851002046314669
:1041C00032463B46009500F035F902B0BDE8F0817B
:1041D000E08F10B36E1C0AE0007BA16B0870A06B2F
:1041E0000130A063E08F0138E087E08FA8B120683C
:1041F0008168C907F0D1FEF71BFC002EF5D0A0EBBB
:104200000800A842F1D3012084F85100002084F86E
:104210005000032002B0BDE8F08120462946424606
:1042200006F062FB00281CBF20206065012084F896
:104230005100002084F85000606D002818BF012054
:1042400002B0BDE8F08100002DE9F04184B01D46C8
:1042500016460F460446FEF7EBFB94F85110012971
:104260000DD18046002F4FF0010018BF002E02D163
:1042700004B0BDE8F08194F85000012803D1022079
:1042800004B0BDE8F081012084F85000032084F8D8
:104290005100002060652763A686E686A063A0879C
:1042A000E087A168C4E91000B1F5004F08D120688B
:1042B000016821F040010160016841F48041016022
:1042C00020680168490603D4016841F0400101609B
:1042D0006168731EE268B1FA81F1B3FA83F34909A8
:1042E0005B09B2F5006F41EA030124D139B1216BBA
:1042F00031F8022BC2602163E08E0138E086E08E47
:10430000002846D06E1C09E0216B31F8022BC260F8
:104310002163E08E0138E086E08ED0B320688168AA
:104320008907F1D4FEF784FB002EF5D0A0EB08003E
:10433000A842F1D323E039B139780173206B013001
:104340002063E08E0138E086E08E10B36E1C0AE038
:10435000216B09780173206B01302063E08E0138F6
:10436000E086E08EA8B1206881688907F0D4FEF766
:104370005FFB002EF5D0A0EB0800A842F1D301208E
:1043800084F85100002084F85000032004B0BDE8F8
:10439000F0812046022101222B46CDF8008006F054
:1043A000D3FAE0B1606D40F02000606520206065C8
:1043B000A06838B9002002902068C1680291806826
:1043C00002900298012084F85100002084F85000E7
:1043D000606D002818BF012004B0BDE8F08140F2F4
:1043E000C000C2F20000006849F68171C1F25E614E
:1043F000A0FB0101480D4FF47A71484303906068B7
:10440000B0F5827F0AD12046802100222B46CDF8CC
:10441000008006F099FA0028C4D1C9E70398002863
:10442000C6D0039801380390206880680006F5D450
:10443000BEE700002DE9F04383B01E4615460F4647
:104440000446FEF7F5FA94F85110814601290DD083
:104450006068B0F5827F15D1A06800284FF0020097
:1044600008BF042902D003B0BDE8F083002F4FF04D
:10447000010018BF002DF6D0002EF4D094F85000A3
:10448000012803D1022003B0BDE8F083012084F8A5
:10449000500094F85100002104281CBF052084F826
:1044A00051006165A563E687A6872763E6862068D5
:1044B000A686216461640168490603D4016841F05D
:1044C000400101606168731EE268B1FA81F1B3FADC
:1044D00083F3DDF8288049095B09B2F5006F41EAF2
:1044E000030138D139B1216B31F8022BC26021634D
:1044F000E08E0138E086012608F10105E08E10B952
:10450000E08F00286CD02068816889070CD5E18E87
:1045100051B1012E08D1216B002631F8022BC26067
:104520002163E18E0139E1868168C9070AD0E18FF4
:1045300041B1C068A16B012621F8020BA163E08F95
:104540000138E087FEF774FA002DD7D0A0EB090000
:104550004045D3D33AE039B139780173206B01304B
:104560002063E08E0138E086012608F1010500BFD6
:10457000E08E08B9E08F98B32068816889070DD56F
:10458000E18E59B1012E09D1216B00260978017302
:10459000206B01302063E08E0138E086206881685E
:1045A000C9070BD0E18F49B1C068A16B0126087023
:1045B000A06B0130A063E08F0138E087FEF738FA86
:1045C000002DD5D0A0EB09004045D1D3012084F8BF
:1045D0005100002084F85000032003B0BDE8F083B0
:1045E0002046022101224346CDF8009006F0ACF9A6
:1045F00060B1606D40F020006065202060650020A3
:1046000084F85000012003B0BDE8F08340F2C00000
:10461000C2F20000006849F68171C1F25E61A0FB40
:104620000101480D4FF47A71484302906068B0F57B
:10463000827F0AD12046802100224346CDF8009097
:1046400006F082F90028D4D108E0029830B102982F
:1046500001380290206880680006F6D4A06838B956
:10466000002001902068C168019180680190019844
:10467000012084F85100002084F85000606D00286B
:1046800018BF012003B0BDE8F083000070470000B0
:104690007047000010B590F83C20012A4FF002024C
:1046A00052D0012380F83C3080F83D200268D2F8D7
:1046B00004E0D2F808C00C682EF07003234341F2E6
:1046C000FF74C4F20004A24253600DDC40F2FF7399
:1046D000C4F200039A4215DCB2F1804F29D040F2B7
:1046E0000043C4F2000322E040F2FF33C4F20103AE
:1046F0009A4212DC41F60003C4F200039A4218D039
:10470000002312E040F60003C4F200039A4210D0E6
:1047100040F60043C4F2000309E044F20003C4F28F
:1047200001039A4205D040F20043C4F201039A42C9
:1047300004D149682CF080031943916001210022C3
:1047400080F83D1080F83C20104610BD002804BFC2
:104750000120704710B5044690F83D0028B90020AC
:1047600084F83C00204600F01FF8022084F83D0049
:104770002068211D06F030FC012084F8460084F8F2
:104780003E0084F83F0084F8400084F8410084F83B
:10479000420084F8430084F8440084F8450084F81B
:1047A0003D00002010BD0000B0B584B00446006894
:1047B00044F20041C4F20101884240D041F200417C
:1047C000C4F20001884253D040F60001C4F2000157
:1047D00088424BD1002043F640010390C4F202010D
:1047E0000A6843F6344542F004020A600968C2F2DE
:1047F000000501F004010391039946F2B801C4F2E7
:1048000002014FF080624FF48063C5E90012C5E9F0
:10481000020005F11001C5E90700686228464FF45F
:10482000006C4FF4005E81E80850FDF705FF00289A
:1048300018BFFCF73BFDE562AC6304B0B0BD0020DF
:10484000019043F64000C4F202004168002241F4A6
:10485000003141604068052100F40030019001986A
:104860001920FEF79FF91920FEF78CF904B0B0BDAE
:104870000020029043F64000C4F2020001680022CA
:1048800041F0200101600068052100F02000029045
:1048900002983720FEF786F93720FEF773F904B047
:1048A000B0BD000090F83D1001291CBF01207047E9
:1048B000022180F83D10006841F2FF72C168C4F225
:1048C0000002904241F00101C1600DDC40F2FF7135
:1048D000C4F20001884215DCB0F1804F29D040F2CB
:1048E0000041C4F2000122E040F2FF31C4F20101B4
:1048F000884212DC41F60001C4F20001884218D05F
:10490000002112E040F60001C4F20001884210D0FC
:1049100040F60041C4F2000109E044F20001C4F293
:104920000101884205D040F20041C4F201018842F1
:1049300006D1816801F00701062904BF00207047F5
:10494000016841F0010101600020704780B590F8D6
:104950003C20012A4FF0020200F0C280012380F8BF
:104960003C3080F83D20D0F800C04FF67772DCF87C
:10497000083023EA0202CCF808200B684F2B28DC11
:104980001F2B43DD202B44D0302B42D0402B40F056
:10499000A980D1F804E0C968DCF82030DCF82020D8
:1049A00022F00102CCF82020DCF8182022F0F002DE
:1049B00042EA011123F00A0242EA0E02CCF8181072
:1049C000CCF82020DCF8081041F0470121F030013C
:1049D0007DE06F2B25DDB3F5005F46D0B3F5805F3A
:1049E00077D0702B7ED1D1E901E3C968DCF80820CB
:1049F00043EA0E0322F47F4243EA01211143CCF83B
:104A00000810DCF8081041F0770160E00BB1102BC2
:104A100068D1DCF8081021F07001194341F007015A
:104A200055E0502B34D0602B5CD1D1F804E0C9683C
:104A3000DCF82030DCF8202022F01002CCF8202016
:104A4000DCF8182022F4704242EA013123F0A0027F
:104A500042EA0E12CCF81810CCF82020DCF808102E
:104A600041F0670121F0100131E0D1E901E3C968AB
:104A7000DCF8082043EA0E0322F47F4243EA0121D6
:104A80001143CCF80810DCF8081041F480411EE016
:104A9000D1F804E0C968DCF82030DCF8202022F0EE
:104AA0000102CCF82020DCF8182022F0F00242EAC3
:104AB000011123F00A0242EA0E02CCF81810CCF8D9
:104AC0002020DCF8081041F0570121F02001CCF83B
:104AD00008100022012180F83D10002180F83C10D0
:104AE000104680BD0122F5E77047000070B504460E
:104AF0000068C5680669B10716D515F0020113D024
:104B00006FF002010161012121778069800703D0E4
:104B10002046FFF7E9FF05E0204600F0DDF82046DB
:104B200000F018FA00202077700718D515F004005F
:104B300015D020686FF0040101610221217780699E
:104B400010F4407F03D02046FFF7CEFF05E020465B
:104B500000F0C2F8204600F0FDF900202077300771
:104B600017D515F0080014D020686FF00801016116
:104B700004212177C069800703D02046FFF7B4FFE6
:104B800005E0204600F0A8F8204600F0E3F90020F8
:104B90002077F00618D515F0100015D020686FF0BA
:104BA0001001016108212177C06910F4407F03D012
:104BB0002046FFF799FF05E0204600F08DF82046DB
:104BC00000F0C8F900202077F00718BF15F00100A9
:104BD00002D1300609D412E020686FF001010161B2
:104BE000204600F051FA300609D515F0800006D0B5
:104BF00020686FF0800101612046FFF747FD7006D5
:104C000009D515F0400006D020686FF04001016121
:104C1000204600F041FAB0060AD515F0200008BF82
:104C200070BD20686FF0200101612046FFF730FD64
:104C300070BD000080B586B0006844F20042C4F246
:104C4000010200219042CDE90411CDE90211019148
:104C50001ED040F60001C4F20001884239D1002084
:104C6000009043F63000C4F202000168032241F0D4
:104C7000080101600068022100F00800009000981F
:104C80004FF48040019040F60040C4F2020017E06B
:104C900043F630000091C4F202000168022241F0A4
:104CA000200101600068032100F0200000900098BE
:104CB0004020019040F60040C4F2020000F5006080
:104CC000022302930123059101A9CDE90332FDF7E7
:104CD000D9FD06B080BD0000704700002DE9F0410D
:104CE00090F83C30012B04BF0220BDE8F0814FEA70
:104CF000B2020123032A80F83C3000F2F480DFE89E
:104D000002F0023E7DBC036840F200471C6A1A6A4A
:104D100024F0020422F001021A621A46D3F804E0D9
:104D200052F818CF8E6843F48065C4F20107BD4283
:104D300044EA060405D1CE6824F00C0426F00406EB
:104D400034430E68BD4207D1D1E905572EF4407EA9
:104D500045EA0E0545EA070E2CF073073743C3F802
:104D600004E09F614F6809695F631C629F6947F0B7
:104D700008079F619F6927F004079F61AFE0036800
:104D800040F200481C6A1A6A24F0200422F0100243
:104D90001A621A46D3F804E052F818CF8F6843F429
:104DA0008065C4F20108454544EA071407D1CF687D
:104DB0006FF0400624F0C00406EA071634430F687B
:104DC000454507D1D1E905562EF4406E4EEA8505DA
:104DD00045EA860E2CF4E64646EA0727C3F804E0C7
:104DE0009F614F6809699F631C629F6947F4006770
:104DF0009F619F6927F480679F616FE0036840F2BD
:104E000000481C6A1A6A24F4007422F480721A6240
:104E10001A46D3F804E052F81CCF8F6843F480653B
:104E2000C4F20108454544EA072408D1CF6840F29E
:104E3000FF463F0224F4406427EA060634430F6825
:104E4000454507D1D1E905562EF4405E4EEA0515D9
:104E500045EA061E2CF073063743C3F804E0DF6111
:104E60004F680969DF631C62DF6947F00807DF618B
:104E7000DF6927F00407DF6131E0036840F2004595
:104E8000D3F820C01A6A43F4806722F480521A6271
:104E90001A465C6852F81CEFD1F800808E68C4F2A4
:104EA0000105AF4204D14D6924F4804444EA8514DD
:104EB0002CF4005747EA06372EF4E64646EA082661
:104EC0005C60DE614E6809691E641F62DF6947F439
:104ED0000067DF61DF6927F48067DF61090213681B
:104EE000194300231160002180F83C101846BDE8EA
:104EF000F0810000002804BF0120704710B504466F
:104F000090F83D0028B9002084F83C00204600F0CD
:104F10001FF8022084F83D002068211D06F05CF88F
:104F2000012084F8460084F83E0084F83F0084F8AD
:104F3000400084F8410084F8420084F8430084F87B
:104F4000440084F8450084F83D00002010BD0000B6
:104F5000704700007047000041B1082909D00429BA
:104F600014BF00F1410200F13F0204E000F13E02F3
:104F700001E000F140021278012A1CBF01207047B5
:104F8000022241B1082909D0042914BF80F8412028
:104F900080F83F2004E080F83E2001E080F84020C7
:104FA000006801F01F010122036A02FA01F123EAFD
:104FB00001020262026A0A4341F2FF71C4F2000177
:104FC000884202620FDC40F2FF71C4F200018842A5
:104FD00017DCB0F1804F49D040F20041C4F200012B
:104FE000884243D049E040F2FF32C4F201029042CD
:104FF00014DC41F60003C4F20003984236D00023CB
:1050000014E040F60001C4F2000188422ED040F6C0
:105010000041C4F20001884228D02EE044F200038F
:10502000C4F20103984221D040F20043C4F20103CC
:10503000984222D1436C884243F400434364C2DD6A
:10504000904207DC41F60001C4F2000188420DD015
:10505000002107E044F20001C4F20101884205D0BA
:1050600040F20041C4F20101884206D1816801F09A
:105070000701062904BF00207047016841F00101C3
:10508000016000207047000080B50068B0F1804FDB
:1050900008BFFDF7D3FC80BD7047000070470000DB
:1050A00010B504460068406994F84110212920D1C8
:1050B00010F080001DD000BF206850E8050F216867
:1050C00020F0800041E80502002AF5D1A06B0028FD
:1050D00018BFFDF753F900BF206850E8030F21689F
:1050E00020F0C00041E80302002AF5D1202084F816
:1050F00041002068406994F84210222939D110F00B
:10510000400036D0206850E8050F216820F04000AC
:1051100041E80502002AF5D1E06B002818BFFDF731
:105120002DF900BF206850E8030F216820F490702B
:1051300041E80302002AF5D1206850E8050F2168F4
:1051400020F0010041E80502002AF5D1206B01287A
:105150000AD100BF206850E8030F216820F010003A
:1051600041E80302002AF5D1202084F84200002003
:105170002063002010BD000070470000B0B582B071
:10518000044600680168C368426901F02F05202DBC
:1051900003F0200505D125B1204606F087F802B0BE
:1051A000B0BD5FEA017C1EBF02F0010E03F49072F5
:1051B00012EB0E0279D1226B012A05D111F01002F7
:1051C00018BF13F0100235D10A0622D513F0800261
:1051D0001FD094F8411021292AD1A168B1F5805F30
:1051E00003D12169002900F04881216A4A1C22620A
:1051F00009784160E18C01390A04E18418D1C16861
:1052000021F08001C160C16841F04001C16002B07D
:10521000B0BD49060CD513F0400109D0C16821F09A
:105220004001C160202084F84100204600F022FBAC
:1052300002B0B0BD00210191016801914168019166
:1052400001994069400638D4A08DE18DE28D002A95
:105250001CBF401A5FEA0041EAD000BF216851E854
:10526000031F226821F4907142E80313002BF5D14B
:10527000216851E8051F226821F0010142E8051369
:10528000002BF5D1202184F842100021216300BFBA
:10529000216851E8031F226821F0100142E803133E
:1052A000002BF5D1022161634CE0C80718BF13F44D
:1052B000807059D148075DD463E0E06B01684968AC
:1052C0008AB2002A40D0A38D9A423DD2E185C069BE
:1052D000B0F5807F31D000BF206850E8030F21680F
:1052E00020F4807041E80302002AF5D1206850E8DC
:1052F000050F216820F0010041E80502002AF5D1E0
:10530000206850E8050F216820F0400041E80502C0
:10531000002AF5D1202084F842000020206300BF3D
:10532000206850E8030F216820F0100041E80302D4
:10533000002AF5D1E06BFDF721F802206063A08D13
:10534000E18D401A81B20AE0A18D91427FF470AFE5
:10535000C069B0F5807F7FF46BAF022060632046A8
:10536000FFF79CFE02B0B0BD606C40F001006064CD
:10537000480706D5BEF1000F03D0606C40F0020074
:105380006064880706D5BEF1000F03D0606C40F062
:1053900004006064BCF1000F06D555EA0E0003D08E
:1053A000606C40F008006064606C00283FF440AF1F
:1053B00011F0200018BF002D02D0204605F076FF26
:1053C00020684069616C00F0400001F0080140185D
:1053D00047D000BF206850E8030F216820F4907088
:1053E00041E80302002AF5D1206850E8050F216842
:1053F00020F0010041E80502002AF5D1206B0128C8
:105400000AD100BF206850E8030F216820F0100087
:1054100041E80302002AF5D1202084F84200002050
:10542000206320684069400622D500BF206850E80C
:10543000050F216820F0400041E80502002AF5D15F
:10544000E06BA8B14BF20511C0F600010165FCF755
:10545000D5FF00283FF4ECAEE06B016D884702B049
:10546000B0BD2046FFF788FE0020606402B0B0BDEA
:105470002046FFF781FE02B0B0BD216A31F8022B51
:105480006FF35F2242602162B4E60000002804BF8F
:105490000120704710B5044690F8410028B900205B
:1054A00084F84000204600F021F8242084F84100D0
:1054B0002068C16821F40051C160204605F05AFF00
:1054C0002068016921F490410161416921F02A01BC
:1054D0004161C16841F40051C16000202021606435
:1054E00084F8411084F84210606310BD2DE9F04F3C
:1054F00087B00446006844F60001C4F200010026AB
:105500008842CDE90566CDE90366029600F09180F8
:1055100041F20041C4F20101884200F0D58041F21D
:105520000001C4F20101884240F04081002743F6A7
:1055300030000197C4F202004169002541F01001DA
:1055400041614169C4F2020501F010010191019924
:105550000197016802AE41F002010160016846F264
:10556000280801F0020101910199019701684FF0AB
:10557000020941F00101016000684FF0030A00F0E8
:10558000010001900198802002904FF0070B05F573
:1055900080603146C4F20208CDE90397CDF814A02B
:1055A000CDF818B0FDF76EF94FF40070CDE902099F
:1055B00004A880E8800C28463146FDF763F943F6DD
:1055C000944508F58C60C2F200054FF000664FF478
:1055D000806985E8C1002846C5E90379C5E90577F2
:1055E000C5E907776F62FDF727F8002818BFFBF7BA
:1055F0005DFEE563AC6343F6F44508F59260C2F2E4
:1056000000054021C5E9000605F1080080E8820296
:105610002846C5E90577C5E907776F62FDF70CF8FD
:10562000002818BFFBF742FEA56305F138002525C9
:10563000B3E043F630000196C4F20200016941F480
:1056400080210161016901F4802101910199019694
:10565000016841F004010160006802A900F0040043
:10566000019001984FF4406002900220CDE90306BA
:1056700003200590072006900020C4F2020000F5E8
:105680000060FDF7FFF843F6545546F22800C2F2D9
:105690000005C4F202004FF000614FF4806285E81B
:1056A00043002846C5E90362C5E90566C5E9076602
:1056B0006E62FCF7C1FF002818BFFBF7F7FDE5633A
:1056C00005F13800272568E0002643F630000196F2
:1056D000C4F20200416946F2280841F0200141610C
:1056E0004169C4F2020801F020010191019901967B
:1056F000016841F040010160006802A900F040002B
:10570000019001984FF4844002900220CDE90306F5
:1057100003200590082006900020C4F2020000F546
:10572000C050FDF7AFF843F6B45508F58060C2F2FB
:1057300000054FF020674FF48069C5E9000728464F
:10574000C5E90266C5E90496C5E90666C5E90866C5
:10575000FCF772FF002818BFFBF7A8FDE563AC63F8
:1057600043F6146508F58F60C2F200054021C5E9D3
:10577000000705F1080080E842022846C5E90566F1
:10578000C5E907666E62FCF757FF002818BFFBF7F4
:105790008DFDA56305F138004725046028460521E5
:1057A0000022FDF7FFF92846FDF7ECF907B0BDE848
:1057B000F08F000080B590F84230202B1CBF0220F3
:1057C00080BD00294FF0010318BF002A01D11846FF
:1057D00080BD0023036305F03DFE0346184680BDEF
:1057E0007047000070470000B0B5044690F84100D3
:1057F00020281CBF0220B0BD4FF00100C9B3002A11
:10580000134608BFB0BD4FF0000C21202162A384D5
:10581000E384C4F844C084F84100A06B4BF2612ECD
:105820004BF2A1252268C0F6000EC0F60005C0E9C3
:105830000FE54BF21515C0F600050432C0E9135C04
:10584000FCF79AFF30B110206064202084F84100FA
:105850000120B0BD20686FF040010160206850E871
:10586000050F216840F0800041E80502002AF5D1CB
:105870000020B0BD7047000070470000FEE7000048
:1058800010B586B00446D0F8EC0090E80E00C06871
:10589000CDE90321CDE901039DED040A9DED041A34
:1058A0009DED032A9DED033A20EE010A22EE032A24
:1058B0009DED021A9DED023A30EE020A21EE031A26
:1058C0009DED012A9DED013A31EE000A22EE031A08
:1058D00031EE000A4FF07E50059005F0BBF89DEDCB
:1058E000051A6FF0030181EE000A8DED050A059897
:1058F0000590D4F8EC0000BF42189DED050A92ED2A
:10590000011A043120EE010A0C2982ED010AF3D1BB
:1059100041F69020C2F200009DED030A90ED6F1A4F
:10592000D4F8001120EE010AB6EE001A20EE010AAA
:1059300081ED040A9DED020A90ED6F2A20EE020A25
:1059400020EE010A81ED050A9DED040A90ED6F2A13
:1059500020EE420A20EE010A81ED0A0A9DED010ABD
:1059600090ED6F2A20EE020A20EE010A81ED0B0A6B
:105970009DED010A90ED6F2A20EE420A20EE010A09
:1059800081ED100A9DED040A90ED6F2A20EE420A87
:1059900020EE010A81ED110A9DED020A90ED6F2AB9
:1059A00020EE020A20EE010A81ED160A9DED030A9F
:1059B00090ED6F2A20EE420A20EE010A81ED170ACF
:1059C000D4F8F81090ED740A91ED1C1A81EE001ACB
:1059D00091ED230A81ED1C1A90ED742A44F2000027
:1059E00080EE022A9FED0B0AC4F21C60B4EE401A4E
:1059F000F1EE10FA81ED232AC8BF086791ED231A52
:105A0000B4EE401AF1EE10FAC8BFC1F88C0006B02F
:105A100010BD00BF00401C46B0B541F69024C2F254
:105A20000004012020704CF67740C3F22B20C4F80C
:105A3000CC0104F5D87080EC030AB7EE000A00250B
:105A4000F4EE401A201D06210022032384F8385169
:105A5000C4E95055C4E9525584ED6F2AF1EE10FAAD
:105A6000C8BFF0EE401AC4ED741A00F02FFD04F523
:105A7000E07004F5E4730121012208F067FED4F818
:105A8000EC104FF07E52C1E90025C1E9025545F600
:105A9000E521C0F6000145F6810245F6213345F6C1
:105AA000B97504F1D00CC0F60002C0F60003C0F6D0
:105AB00000058CE82E0040F20111D4F80401E185C4
:105AC00042F2DC01C0F601019022FAF75BFDD4F846
:105AD000FC0040F22C01C2F200019022FAF752FDC4
