:020000040800F2
:100000002800012069020008D5B40008798B000897
:10001000D1B400086D0E0008314B0108000000004B
:10002000000000000000000000000000B1F5000822
:100030001D1A00080000000081C400081DFC000813
:10004000830200088302000883020008830200087C
:10005000830200088302000883020008211A0008B6
:10006000830200088302000883020008830200085C
:10007000611500088302000883020008830200085B
:10008000830200088302000883020008830200083C
:10009000710E000883020008830200088302000832
:1000A0008302000829FD000883020008830200087B
:1000B00045FD000855FD0008830200088302000882
:1000C00083020008830200088302000883020008FC
:1000D00083020008550D010883020008710D010814
:1000E00083020008830200088302000883020008DC
:1000F00083020008830200088302000871150008CB
:1001000083020008830200088302000883020008BB
:1001100083020008830200088302000865FD0008CE
:100120008115000891150008A1150008B1150008F7
:10013000830200088302000883020008830200088B
:10014000810E000883020008830200088DB80008B1
:10015000C1150008D1150008E11500088D0D010832
:10016000830200088302000883020008830200085B
:1001700083020008830200088302000800000000D8
:10018000830200088302000800F002F800F05CF827
:100190000AA090E8000C82448344AAF10107DA45E2
:1001A00001D100F051F8AFF2090EBAE80F0013F0D8
:1001B000010F18BFFB1A43F001031847442C02003B
:1001C000642C02000A444FF0000C10F8013B13F0BD
:1001D000070408BF10F8014B1D1108BF10F8015BA0
:1001E000641E05D010F8016B641E01F8016BF9D193
:1001F00013F0080F1EBF10F8014BAD1C0C1B09D1EA
:100200006D1E58BF01F801CBFAD505E014F8016B5B
:1002100001F8016B6D1EF9D59142D6D370470000ED
:100220000023002400250026103A28BF78C1FBD8FF
:10023000520728BF30C148BF0B6070471FB521F07F
:10024000BEFA1FBD10B510BD00F002FA1146FFF74F
:10025000F5FF1CF003F900F020FA03B4FFF7F2FFFA
:1002600003BC00F023FA0000094880470948004712
:10027000FEE7FEE7FEE7FEE7FEE7FEE7FEE7FEE756
:10028000FEE7FEE704480549054A064B70470000B3
:1002900015FD00088901000828C000202800012061
:1002A00028E0002028E0002053EA020C00F06980DA
:1002B0002DE9F04B4FF00006002B1FBFB3FA83F57A
:1002C00003FA05F424FA05F65E4012BF1643B2FAAB
:1002D00082F502FA05F4C5F120051EBF22FA05FCDD
:1002E00044EA0C04203556EA044C4FEA144418BF83
:1002F000641C4FF000084FF00009904271EB030CB2
:1003000039D3002919BFB1FA81F701FA07F6B0FA1B
:1003100080F700FA07F6C7F120071EBF20FA07FC96
:1003200046EA0C062037B6FBF4FCA7EB0507103FA6
:1003300007F01F0BCBF120062CFA06F60CFA0BFB8C
:1003400044BFB3460026202FA4BF5E464FF0000BEB
:100350005BEA060C08BF4FF0010B19EB0B0948EBE9
:100360000608ABFB027C06FB02CC0BFB03CCC01BDC
:1003700071EB0C01C1E70B46024641464846BDE819
:10038000F08B13B5084318BF4FF0FF300146AFF3B1
:100390000080BDE81C40704753EA020C23D010B522
:1003A0004C1084EA530404D54042C1F1000138BF27
:1003B000491E1B4204D55242C3F1000338BF5B1EE5
:1003C000FFF772FF14F0804F04D04042C1F10001EA
:1003D00038BF491E14F0004F04D05242C3F100034D
:1003E00038BF5B1E10BD13B540424FF0000070EBEC
:1003F0000104B8BF012001F0004100281CBF6FF0CC
:1004000000414FF0FF30AFF300801CBD40EA010314
:10041000024630B59B0710D14FF0013400E008C20E
:1004200008C91D1B9D4315EAC41FF8D013F0FF0136
:1004300002F8011B0DD01B0AF8E711F8013B002B55
:1004400002F8013B05D011F8013B002B02F8013BFB
:10045000F3D130BD10B5431C02E010F8011B71B19F
:100460008107FAD14FF0013202C88C1A8C4314EA8A
:10047000C211F9D0C01A0A0603D0C01E10BDC01A9E
:1004800010BD0A0401D0801E10BD0902FCD0401E20
:1004900010BD032A40F2308010F0030C00F01580EC
:1004A00011F8013BBCF1020F624498BF11F801CB77
:1004B00000F8013B38BF11F8013BA2F1040298BFDC
:1004C00000F801CB38BF00F8013B11F0030300F046
:1004D0002580083AC0F0088051F8043B083A51F8EA
:1004E00004CBA0E80810F5E7121D5CBF51F8043BEF
:1004F00040F8043BAFF30080D20724BF11F8013B62
:1005000011F801CB48BF11F8012B24BF00F8013BC3
:1005100000F801CB48BF00F8012B704710B5203A16
:10052000C0F00B80B1E81850A0E81850B1E818509E
:10053000A0E81850203ABFF4F5AF5FEA027C24BF70
:10054000B1E81850A0E8185044BF18C918C0BDE859
:1005500010405FEA827C24BF51F8043B40F8043B22
:1005600008BF7047D20728BF31F8023B48BF11F8D7
:10057000012B28BF20F8023B48BF00F8012B704731
:1005800002F0FF0343EA032242EA024200F024B8E9
:100590004FF000020429C0F0128010F0030C00F0AC
:1005A0001B80CCF1040CBCF1020F18BF00F8012B2A
:1005B000A8BF20F8022BA1EB0C0100F00DB85FEAF8
:1005C000C17C24BF00F8012B00F8012B48BF00F8C4
:1005D000012B70474FF0000200B513469446964633
:1005E000203922BFA0E80C50A0E80C50B1F1200146
:1005F000BFF4F7AF090728BFA0E80C5048BF0CC0F4
:100600005DF804EB890028BF40F8042B08BF704751
:1006100048BF20F8022B11F0804F18BF00F8012BC3
:10062000704770477047704710B500F009F80068D0
:1006300010BD10B5044600F003F8046010BD0000C2
:1006400000487047580500200048704758050020B2
:100650007546FFF7F9FFAE4605006946534620F0A0
:100660000700854618B020B5FFF70CFEBDE8204016
:100670004FF000064FF000074FF000084FF0000B5E
:10068000AC46ACE8C009ACE8C009ACE8C009ACE8CD
:10069000C00921F007018D46704710B50446AFF33D
:1006A00000802046BDE81040FFF7D7BD0149182063
:1006B000ABBEFEE7260002007047000082B001904A
:1006C00042F20030C4F2010000900099486820F422
:1006D000403048600198426800994868104348607B
:1006E00001980168486820F48070486001980168AA
:1006F0000269486840EA0220486001980168486839
:1007000020F0407048600198016882684868104392
:10071000486001980168886820F40060886001984A
:100720000168C2688868104388600198806A012166
:10073000C0F60071884219D0FFE701980168886807
:1007400020F07060886001980168826A88681043B0
:10075000886001980168886820F04050886001989E
:100760000168C26A8868104388600CE001980168DB
:10077000886820F07060886001980168886820F0BF
:1007800040508860FFE701980168886820F0020007
:1007900088600198027E0168886840EA42008860AB
:1007A000019890F82000C8B1FFE7019801684868F7
:1007B00040F40060486001980168486820F4604097
:1007C000486001980168426A4EF20000CFF6FF705F
:1007D00000EB423248681043486006E00198016827
:1007E000486820F400604860FFE701980168C86A23
:1007F00020F47000C86201980168C2690020CFF639
:10080000F07000EB0252C86A1043C8620198016898
:10081000886820F400708860019890F830200168A2
:10082000886840EA4220886001980168886820F45E
:1008300080608860019801684269886840EA822087
:10084000886002B07047000080B50020C4F202004A
:100850001021012203F01EFC80BD000080B50020A5
:10086000C4F202001021002203F014FC80BD00003D
:100870007047000080B540F20040C4F2020001223F
:10088000114603F007FC80BD80B540F20040C4F281
:1008900002000121002203F0FDFB80BD7047000033
:1008A00080B582B0ADF80600FFE7BDF80600411E36
:1008B000ADF8061028B1FFE74FF47A7000F004F8A5
:1008C000F3E702B080BD000086B0ADF8160000204E
:1008D000049003900290019000904EF21400CEF22A
:1008E000000000680090BDF81600C0EB0010400149
:1008F00004904EF21800CEF2000000680390FFE76B
:100900004EF21800CEF2000000680290029803999F
:1009100088421ED0FFE702980399884207D2FFE77A
:1009200003980299411A01980844019008E0009840
:100930000299401A03990144019808440190FFE785
:100940000298039001980499884201D3FFE701E0DF
:10095000FFE7D5E706B0704780B582B000208DF87C
:100960000700FFF785FFFFF799FF19F0ABFC014681
:100970009DF8070008438DF8070019F06BFD01464C
:100980009DF8070008438DF807009DF8070002B0A6
:1009900080BD000080B588B00790069105920020C8
:1009A000009004900390FFF759FF922000F006F9A1
:1009B000122003A90191062200F0CCF8FFF744FFB2
:1009C0009DF80C009DF80D1040EA0120ADF80A00DA
:1009D000BDF90A0000EE100AB8EEC00A40F20000AD
:1009E000C2F2000090ED001A20EE010A069981ED96
:1009F000000A9DF80E109DF80F2041EA0221ADF883
:100A00000A10BDF90A1000EE101AB8EEC00A90EDF7
:100A1000001A20EE010A069981ED010A9DF81010D6
:100A20009DF8112041EA0221ADF80A10BDF90A1023
:100A300000EE101AB8EEC00A90ED001A20EE010A7E
:100A4000069880ED020AFFF71FFF0098019908221F
:100A500000F080F8FFF70EFF9DF80C000F2844D13E
:100A6000FFE79DF80E009DF80F1040EA0120ADF859
:100A70000A00BDF90A0000EE100AB8EEC00A40F202
:100A80000400C2F2000090ED001A20EE010A07995E
:100A900081ED000A9DF810109DF8112041EA022115
:100AA000ADF80A10BDF90A1000EE101AB8EEC00A2F
:100AB00090ED001A20EE010A079981ED010A9DF8D8
:100AC00012109DF8132041EA0221ADF80A10BDF979
:100AD0000A1000EE101AB8EEC00A90ED001A20EECF
:100AE000010A079880ED020AFFE7FFF7B7FEA22090
:100AF00000F064F8222003A9022200F02BF8FFF78F
:100B0000A3FE9DF80C009DF80D10C00040EA5110A6
:100B1000ADF80A00BDF90A00B0F5806F07DBFFE70A
:100B2000BDF80A00A0F50060ADF80A00FFE7BDF9C6
:100B30000A0000EE100AB8EEC00AB4EE001A20EE69
:100B4000010AB3EE071A30EE010A059880ED000A9B
:100B500008B080BD80B584B08DF80F0002918DF88B
:100B600007209DF80F0040F0800000F027F8FFE715
:100B70009DF8070070B1FFE7552000F01FF80299BB
:100B800008700298013002909DF8070001388DF836
:100B90000700EDE704B080BD80B582B08DF8070096
:100BA00000919DF8070040F0800000F007F8552004
:100BB00000F004F80099087002B080BD80B582B0E2
:100BC0008DF8070069464FF47A70086044F6683083
:100BD000C2F200000DF107010DF10602012305F03C
:100BE00049FE9DF8060002B080BD000080B582B0CD
:100BF0008DF807008DF806109DF80700FFF7DEFF5F
:100C00009DF80600FFF7DAFF02B080BD80B582B024
:100C100001900198006841F20041C4F2000188424D
:100C200026D1FFE740F24C12C2F2000210780130E8
:100C3000107044F6C030C2F2000040F2012100F012
:100C400073FA41F6D050C2F2000090ED0E0AD0EDDA
:100C5000100A43F61070C2F2000090ED001ABCEECC
:100C6000C11A11EE100A0122114614F033FEFFE7FB
:100C700002B080BD80B58CB00B900B98006844F634
:100C80000001C4F2000188424ED1FFE744F65860EB
:100C9000C2F200000068006800F010010020B0EB14
:100CA000111F40D0FFE70020ADF82A00FFE7002029
:100CB000099044F65860C2F2000001680968099181
:100CC0000068406809900998FFE744F65860C2F24E
:100CD000000001680968ADF82A1001684968ADF89C
:100CE0002A1007F0C1F944F26450C2F20000006813
:100CF000406813280BD1FFE741F69050C2F2000084
:100D000043F6A811C2F200010BF066FDFFE744F6BE
:100D10005860C2F2000041F69051C2F20001252253
:100D200007F070FEFFE7FFE70B98006841F2000153
:100D3000C4F20101884251D1FFE744F61060C2F2CB
:100D400000000068006800F010010020B0EB111FE7
:100D500043D0FFE70020ADF82200FFE70020079016
:100D600044F61060C2F2000001680968079100684B
:100D7000406807900798FFE744F61060C2F2000051
:100D8000039001680968ADF8221001684968ADF860
:100D9000221007F069F944F2A440C2F20000006892
:100DA0004068C0F1150043F60A71C2F200010870F4
:100DB00043F6C000C2F20000049043F66C01C2F298
:100DC000000143F6E102C2F2000213F0B3FE039801
:100DD0000499152207F016FEFFE7FFE70B9800685D
:100DE00041F20041C4F2010188423DD1FFE744F6DF
:100DF000A060C2F200000068006800F0100100204E
:100E0000B0EB111F2FD0FFE7FFE70020059044F65D
:100E1000A060C2F20000016809680591006840689E
:100E200005900598FFE744F6A060C2F2000001902B
:100E300007F01AF944F2C450C2F20000006840689A
:100E4000C0F1FF008DF81B009DF81B1041F65840C3
:100E5000C2F200000290FFF79BFB01980299FF226B
:100E600007F0D0FDFFE7FFE70CB080BDFFE7FEE72E
:100E700080B544F2CC20C2F2000001F037FE80BD04
:100E800080B544F2F420C2F2000001F02FFE80BDD4
:100E900080B58EB00C90002003908DF814008DF872
:100EA00015008DF816008DF817008DF810008DF8DC
:100EB00011008DF812008DF813008DF82C008DF8BC
:100EC0002D008DF82E008DF82F008DF828000821B8
:100ED0008DF829108DF82A008DF82B008DF824004C
:100EE0008DF825008DF826008DF827008DF820005C
:100EF0008DF821008DF822008DF823008DF81C005C
:100F00008DF81D008DF81E008DF81F008DF818005B
:100F10008DF819108DF81A008DF81B000C9809F047
:100F2000D5F820B9FFE700208DF837006BE00C986A
:100F300009F07EF920B9FFE700208DF8370062E064
:100F40000C982021232205AB09F0E8F90C98242104
:100F5000272204AB09F0E2F90C9800210191032249
:100F60000BAB09F0DBF90C980421009107220AABC6
:100F700009F0D4F90C9808210B2209AB09F0CEF93D
:100F80000C981021132208AB09F0C8F90C98142111
:100F9000172207AB09F0C2F90C9818211B2206ABE7
:100FA00009F0BCF9009A0C98602109F099F90C98A5
:100FB00070210122029209F093F9019A0C982A21DA
:100FC00009F08EF90C982921912209F089F9029AE9
:100FD0000C98282109F084F9019A0C982C2109F029
:100FE0007FF9029A0C982B2109F07AF90C9809F0F4
:100FF0004BF920B9FFE700208DF8370003E001200E
:101000008DF83700FFE79DF837000EB080BD000077
:1010100080B588B007900691002000908DF81700E9
:101020008DF81400049003900290079809F038F8A6
:10103000014600988DF804109DF80410B0EB911F44
:101040006ED0FFE79DF804104FF0FF3000EB9110D9
:101050006FF00201084207D1FFE70798902102AA2A
:101060000D2309F0A1F80EE09DF804100220B0EB6A
:10107000911F07D1FFE70798942102AA0D2309F0D9
:1010800093F8FFE7FFE79DF80400C0F3C1000228D2
:1010900011D1FFE70699022008709DF808209DF8FD
:1010A00009309DF80A009DF80B1019F03FFE0699D3
:1010B000C1F801000CE00699012008709DF80800B5
:1010C0009DF8091019F070FE0699C1F80100FFE7BC
:1010D0009DF80C00069948719DF80D0006998871DD
:1010E0009DF80E000699C8719DF80F0006990872C8
:1010F0009DF81000069948729DF8110006998872B3
:101100009DF812000699C8729DF81300069908739D
:101110009DF814000699487301208DF81700FFE729
:101120009DF8170008B080BD80B584B00390ADF87D
:101130000A10019245F2F011C2F20001012008707C
:10114000BDF90A00C1F8010008204871019A106831
:101150005268C1F80A20C1F80600039800F002F8AE
:1011600004B080BD80B588B00790069100208DF84E
:10117000170044F6EC61C2F20001087048708870F4
:10118000C870079809F02CF8014643F60470C2F2C3
:101190000000017000788008C007F0B9FFE70699E9
:1011A000D1F80100097844F6EC62C2F20002049220
:1011B00019F06CFD049A079806994B790631EC46B4
:1011C000CCF80010402108F0A9FF0798812109F010
:1011D0001DF801208DF817004FE043F60470C2F2AD
:1011E000000000780009C007F0B9FFE70699D1F8C0
:1011F0000100097844F6EC62C2F20002039219F091
:1012000045FD039A079806994B790631EC46CCF8D0
:101210000010422108F082FF0798822108F0F6FFB3
:1012200001208DF8170027E043F60470C2F2000099
:1012300000788009C007F0B9FFE70699D1F80100EE
:10124000097844F6EC62C2F20002029219F01EFD27
:10125000029A079806994B790631EC46CCF80010B3
:10126000442108F05BFF0798842108F0CFFF01209C
:101270008DF81700FFE7FFE7FFE79DF8170008B0BC
:1012800080BD000080B590B00E2003900F900B90B1
:1012900001210E9100200C900D910690079008906E
:1012A00009900B900A9044F2CC20C2F20000019009
:1012B00006A9029101F03CFA019802F065F8019844
:1012C0000221049101F05EF9029903980F900B90AE
:1012D00044F2F420C2F20000059001F029FA0598CA
:1012E00002F052F80499059801F04CF910B080BD55
:1012F00084B08DF80F000291ADF806209DF80F0024
:101300000146009123281DD80099DFE801F012134F
:101310001415161B1B1B1B1B1B1B1B1B1B1B1B1B2F
:101320001B1B1B1B1B1B1B1B1B1B1B1B1B1B171814
:10133000191A08E007E006E005E004E003E002E037
:1013400001E000E0FFE7002004B070470020704794
:1013500080B582B043F66070C2F20000009042F6A1
:101360009C71C2F200010022019210F0BDF80098B9
:1013700042F29C71C2F2000110F098F8019802B09C
:1013800080BD000080B584B003900291039860B1E5
:10139000FFE70298006840B1FFE7039843F63C116D
:1013A000C2F2000114F0F8F9FFE7039943F6607008
:1013B000C2F20000019010F079F8019810F01CF8CA
:1013C000002004B080BD000083B0029001918DF830
:1013D000032000208DF802009DF9020003B0704741
:1013E00080B586B00490ADF80E1000208DF80D0089
:1013F00043F66070C2F20000D0F8BC02029002987E
:10140000D0F8140220B1FFE701208DF8170013E097
:101410000499BDF80E2043F66070C2F200000190FE
:1014200010F062F8019810F069F98DF80D009DF840
:101430000D008DF81700FFE79DF8170006B080BD7E
:1014400080B584B0029001910298C07960B1FFE745
:101450000298007A40B1FFE70298407A20B1FFE796
:101460000298807A20B9FFE700208DF80F001CE079
:10147000019800F53760012100910CF039FA0099CC
:10148000019800F55A600CF033FA0099019800F5C4
:101490007D600CF02DFA0099019800F590500CF049
:1014A00027FA00988DF80F00FFE79DF80F0004B0B1
:1014B00080BD000010B586B08C4686460998089914
:1014C000CDF814E0ADF812C0ADF81020ADF80E3034
:1014D000ADF80C10ADF80A009DF811008DF802006F
:1014E0009DF810008DF803009DF80F008DF80400A2
:1014F0009DF80E008DF805009DF80D008DF8060092
:101500009DF80C008DF807009DF80B008DF8080081
:101510009DF80A008DF809000598BDF812100DF12C
:10152000020219F095F806B010BD000082B00090DC
:101530000099087801380870009890F90000042894
:1015400006DCFFE70099002008708DF8070003E033
:1015500001208DF80700FFE79DF8070002B07047F3
:1015600080B544F26450C2F2000002F0A1F880BDE0
:1015700080B544F2E430C2F2000002F099F880BD78
:1015800080B544F22430C2F2000002F091F880BD30
:1015900080B544F2C450C2F2000002F089F880BD68
:1015A00080B544F24440C2F2000002F081F880BDF0
:1015B00080B544F28430C2F2000002F079F880BDB8
:1015C00080B544F2A440C2F2000002F071F880BD80
:1015D00080B544F22460C2F2000002F069F880BDD8
:1015E00080B544F20450C2F2000002F061F880BD00
:1015F00082B001900198007810384AF6AB21CAF603
:10160000AA21A0FB011000090090009941F6745036
:10161000C0F60200405C0199C8650098042807D311
:10162000FFE701990868042262F30900886506E073
:101630000199086840F2FF3290438865FFE70198FE
:10164000806D02B07047000086B0059000208DF8D4
:1016500013000598806A03900598806910BBFFE726
:101660000398029003281BD80299DFE801F0020DCD
:101670000218059890F82F00C00720B1FFE701205D
:101680008DF81300FFE70CE00598C06AB0F1C07F49
:1016900004D1FFE701208DF81300FFE701E000E02F
:1016A000FFE745E005988069B0F5005F25D1FFE7C9
:1016B0000398019003281ED80199DFE801F0020683
:1016C000021101208DF8130016E0059890F82F0004
:1016D000C00720B1FFE701208DF81300FFE70BE002
:1016E0000598C06AB0F1C07F04D1FFE701208DF8F2
:1016F0001300FFE700E0FFE719E0039800900328DC
:1017000004D3FFE70098032804D00EE001208DF8F1
:1017100013000BE0059890F82F00C00720B1FFE7F9
:1017200001208DF81300FFE700E0FFE7FFE7FFE788
:101730009DF8130006B0704784B0039002910192A7
:10174000009303980168086820F4802008600098DE
:1017500003990968486003988068402809D1FFE729
:101760000198039909688860029803990968C8601C
:1017700008E002980399096888600198039909684C
:10178000C860FFE704B0704781B041F20400CEF2B8
:10179000000000680090009841F68851C2F20001F4
:1017A0000968884208D2FFE741F68C51C2F2000175
:1017B000086801300860FFE7009841F68851C2F2DE
:1017C0000001086001B0704780B584B0039041F219
:1017D0000400CEF2000000680290029803990968A4
:1017E000401A00EE100AB8EE400A41F67050C2F2FC
:1017F000000090ED001AB8EE411A80EE010A8DED5E
:10180000010A029803990860FFF7BEFF9DED010AE7
:1018100004B080BD80B582B000F082F842F2703032
:10182000C2F20000016883884FF47A7201FB023132
:1018300000EE101AB8EE401AC08800EE100AB8EE9A
:10184000C00A9FED062A20EE020A30EE010A8DED55
:10185000010A9DED010A02B080BD00BF6F12833AFC
:1018600080B582B000F05CF842F27031C2F2000143
:10187000086843F60952424388884FF47A73584304
:1018800000EB8210C9880844002101910090009863
:10189000019902B080BD000081B000904EF6FC516D
:1018A000CEF20001086840F08070086041F2040147
:1018B000CEF200010020086041F20002CEF20002E8
:1018C000116841F001011160009944F24022C0F218
:1018D0000F024A4341F67051C2F200010A600A68E1
:1018E00044F6D353C1F26203A2FB0332920941F6DC
:1018F0007453C2F200031A6009684DF68362C4F2A1
:101900001B32A1FB0221890C41F67852C2F200027F
:10191000116041F68C51C2F20001086001B07047BD
:10192000B0B586B041F20400CEF200000068059028
:10193000FFF72AFF41F68C50C2F2000001680598BB
:10194000002302934FF0FF3C1A46E1FB0C0241F6E4
:101950008051C2F2000100914A600860086849683D
:1019600041F67054C2F200042268FEF79DFC029B0F
:1019700002468C46009941F6A850C2F20000C0F819
:1019800004C00260D1F800C04968D0F800E04268A5
:101990002468AEFB04E502FB0452BCEB0E0C61EBC9
:1019A000020241F6B051C2F200010391C1F800C039
:1019B0004A60006842F27032C2F200020492106083
:1019C0000868496841F67452C2F200020192126836
:1019D000FEF76AFCDDF804C0029B049A01460398F6
:1019E0009180016840689288DCF800C002FB0CF22C
:1019F0008A1A60F1000041F6B851C2F200010A6093
:101A000048600868496841F67852C2F200021268DC
:101A1000FEF74AFC0499C88006B0B0BD70470000CC
:101A200080B582B044F6C030C2F20000009045F2AA
:101A3000D011C2F2000113F0DBFF8DF80700022085
:101A400002F030F9009814F045F802B080BD0000B3
:101A500072B6FFE7FEE7000080B58AB0A820FFF766
:101A60001BFFFFF70FFC44F6C030C2F20000FFF787
:101A70000FFA43F62071C2F20001087044F680505C
:101A8000C2F2000005F036FB44F61840C2F2000036
:101A900005F030FB44F6F040C2F2000005F02AFBEE
:101AA00044F6C850C2F200000021099105F006FF7B
:101AB00044F2A440C2F20000009001F09FFD44F205
:101AC0000450C2F20000019001F098FD009801F06E
:101AD0007FFF019801F07CFF44F61060C2F2000025
:101AE000029006F0C1FA029843F6C001C2F200016A
:101AF000152206F00FFA0298C06B0168086820F002
:101B00000800086044F26450C2F20000039001F043
:101B100075FD039801F05CFF44F65860C2F20000C6
:101B2000049006F0A1FA04980268D16841F010010F
:101B3000D16041F69051C2F20001252206F062FF09
:101B400044F2C450C2F20000059001F057FD44F287
:101B50002460C2F20000069001F050FD059801F0EB
:101B600037FF069801F034FF44F6A060C2F200008F
:101B7000079006F079FA079842F25811C2F2000174
:101B80004FF4807206F0C6F90798C06B01680868C8
:101B900020F00800086009F05FFC40F63C01C4F248
:101BA00000010891322008604FF4FA7002F02AF820
:101BB0000899099808600AB080BD000080B584B01B
:101BC00003908DED020A03988069019001A8FFF748
:101BD000FBFD039910EE100AC8619DED020A0399FE
:101BE000C868CB690A6A01EE103A20EE010A03EEDA
:101BF000102A33EE012A80EE020A01EE100A21EECD
:101C0000031A81EE021A30EE010A10EE100AC860C3
:101C10000398008E032810DBFFE7039A02F13200DD
:101C2000D168D26900EE102A00EE901A09F08AFC01
:101C3000039910EE100A486211E00399CB680A6913
:101C4000C86900EE103A01EE102A30EE410A01EEAA
:101C5000100A80EE010A10EE100A4862FFE70398AE
:101C6000B0F85C00032810DBFFE7039901F15E0088
:101C7000CA69496A00EE102A00EE901A09F062FC67
:101C8000039910EE100A886211E00399C8694B6A43
:101C9000CA6A00EE103A01EE102A30EE410A01EE57
:101CA000100A80EE010A10EE100A8862FFE703991D
:101CB000D1F800C04A688868CB6800EE10CA02EE0E
:101CC000103A01EE102A4A6A03EE102A21EE031A96
:101CD00020EE020A30EE011A00EE100A886A02EEC7
:101CE000100A20EE020A30EE010A10EE100AC1F8C6
:101CF00088000398D0F88810D0F88C0000EE101AF5
:101D000001EE100AF1EE410A19F092FC039910EE6F
:101D1000100AC1F888000399C86808610399486AE5
:101D2000C8620398D0F8880000EE100A04B080BDA5
:101D300080B586B005908DED040A0391CDED020AC1
:101D4000ADF80620ADF8043004980599C1F88C0070
:101D5000039880B1FFE7059868B1FFE70398006832
:101D60000599086003984068059948600398806861
:101D7000059988600AE00599002008600599486087
:101D8000059988600599C1F88C00FFE702980599CC
:101D90000862BDF8060005990886BDF8040005999B
:101DA000A1F85C00BDF80600032807DBFFE70598F3
:101DB0003230BDF8061009F027FDFFE7BDF804003A
:101DC000032807DBFFE705985E30BDF8041009F033
:101DD0001BFDFFE70599002088610599C1F888007F
:101DE00006B080BD84B002900191ADF80220029847
:101DF00028B9FFE74FF6FF70ADF80E0021E0FFE7CE
:101E00000198411E0191B8B1FFE70298411C02916F
:101E100000788DF80100BDF802109DF801004840DF
:101E2000C2B242F60040C0F6020030F8120080EA6A
:101E30001120ADF80200E3E7BDF80200ADF80E0096
:101E4000FFE7BDF80E0004B07047000082B00190BB
:101E5000ADF802108DF80120FFE7BDF80200411E29
:101E6000ADF8021098B1FFE79DF8010001994A1CF6
:101E70000192097848408DF800009DF8001041F665
:101E80007440C0F60200405C8DF80100E5E79DF863
:101E9000010002B07047000080B584B047F6102002
:101EA000C1F6FF700068039047F61420C1F6FF707A
:101EB0000068029047F61820C1F6FF700068019094
:101EC0000199039808440390039888B1FFE70398A9
:101ED00040F20C21C2F2000100910231082207F009
:101EE000D5FC009902981231042207F0CFFCFFE7DD
:101EF00004B080BD85B00390029100200190FFE7FF
:101F0000039890F83C00012804D1FFE702208DF8E7
:101F10001300F7E00399012081F83C00FFE7FFE799
:101F2000029800680A281CD3FFE70298008800EB9B
:101F30004000A0F11E01072000FA01F20398016899
:101F4000C8689043C86002998868098801EB41011C
:101F50001E3900FA01F203980168C8681043C8608E
:101F600018E00298008800EB4001072000FA01F217
:101F70000398016808699043086102998868098894
:101F800001EB410100FA01F203980168086910436E
:101F90000861FFE70298406806281BD8FFE702980F
:101FA000406800EB8000411F1F2000FA01F20398F7
:101FB0000168486B9043486302990888496801EBBF
:101FC0008101053900FA01F203980168486B10435A
:101FD00048633DE0029840680C281CD8FFE702984F
:101FE000406800EB8000A0F123011F2000FA01F2FD
:101FF00003980168086B9043086302990888496850
:1020000001EB8101233900FA01F203980168086BA2
:10201000104308631BE00298406800EB8000A0F1C9
:1020200041011F2000FA01F203980168C86A904339
:10203000C86202990888496801EB8101413900FAB8
:1020400001F203980168C86A1043C862FFE7FFE71E
:1020500042F20030C4F2010000900398006842F29E
:102060000001C4F2010188420BD1FFE70298006829
:10207000122806D1FFE70099486840F480004860C4
:10208000FFE70398006842F20001C4F201018842B0
:102090002ED1FFE702980068102805D0FFE70298CC
:1020A0000068112824D1FFE70099486840F4000037
:1020B000486002980068102819D1FFE740F24810E4
:1020C000C2F2000000684DF68361C4F21B31A0FB30
:1020D0000110800C00EB800040000190FFE70198A8
:1020E00020B1FFE7019801380190F8E7FFE7FFE72B
:1020F000FFE70399002081F83C00FFE700208DF8FE
:102100001300FFE79DF8130005B0704781B0009001
:1021100000980068C06C01B07047000080B584B0C2
:10212000029000208DF80700029820B9FFE70120F7
:102130008DF80F0042E00298806A0121C0F600711C
:10214000884201D0FFE7FFE70298006C50B9FFE733
:10215000029800F037F8029900204864029981F84B
:102160003C00FFE70298006CC006002817D4FFE788
:102170000298006C40F0020020F488500299086434
:102180000298FEF79BFA0299002048640298006CBE
:1021900040F0010020F002000299086403E00120F1
:1021A0008DF80700FFE7FFE70299002081F83C0067
:1021B000FFE79DF807008DF80F00FFE79DF80F007F
:1021C00004B080BD80B58AB00990002008900790C7
:1021D0000690059004900998006842F20001C4F24C
:1021E0000101884212D1FFE7FFE70020039043F688
:1021F0004400C4F20200016841F48071016000688B
:1022000000F4807003900398FFE73AE009980068B3
:1022100042F20021C4F20101884231D1FFE7FFE719
:102220000020029043F64400C4F20200016841F429
:1022300080610160006800F4806002900298FFE70E
:10224000FFE70020019043F63000C4F2020001686D
:1022500041F020010160006800F020000190019829
:10226000FFE74FF480600490032005900020069063
:1022700041F20040C4F2020004A901F02FFDFFE783
:10228000FFE70AB080BD000080B584B002900191E4
:10229000002000900298006880684005002816D54C
:1022A000FFE7029800688068C00500280FD5FFE7A7
:1022B0000299086C40F020000864FFE702990020B2
:1022C00081F83C00FFE701208DF80F006DE001F080
:1022D000F9FE0090FFE702980068006800F0020035
:1022E000022829D0FFE70198013020B3FFE70198C9
:1022F00040B1FFE701F0E6FE0099401A01998842DB
:1023000018D9FFE702980068006800F00200022870
:102310000FD0FFE70299086C40F004000864FFE763
:102320000299002081F83C00FFE703208DF80F00A0
:102330003BE0FFE7FFE7CEE7029801686FF012008D
:1023400008600299086C40F4007008640298006804
:10235000806810F0405F24D1FFE70298007E00BB48
:10236000FFE702980068C06A10F4700F07D0FFE71B
:102370000298006880684005002812D4FFE702999F
:10238000086C20F4807008640298006CC004002877
:1023900006D4FFE70299086C40F001000864FFE7EB
:1023A000FFE700208DF80F00FFE79DF80F0004B055
:1023B00080BD000084B0029000200190FFE70298E9
:1023C00090F83C00012804D1FFE702208DF80F00AF
:1023D000D4E00299012081F83C00FFE7FFE7029872
:1023E00000688068C007F0B9FFE702980168886854
:1023F00040F00100886040F24810C2F2000000681E
:102400004DF68361C4F21B31A0FB0110800C00EB80
:1024100040000190FFE7019820B1FFE701980138E3
:102420000190F8E7FFE7029800688068C00700287D
:1024300000F09580FFE70298006C40F4807040F255
:102440000161884302990864029800684068400569
:10245000002809D5FFE70298006C40F4805020F472
:10246000005002990864FFE70298006CC00400283D
:1024700006D5FFE70299486C20F00600486403E0A7
:10248000029900204864FFE7FFE70299002081F8E5
:102490003C00FFE742F20030C4F2010000900298D5
:1024A00001686FF02200086000984068C006E8BB31
:1024B000FFE70298006842F20001C4F2010188427D
:1024C00024D0FFE70298006842F20011C4F2010133
:1024D000884208D1FFE742F20430C4F201000068EC
:1024E000C00698B1FFE70298006842F20021C4F2EA
:1024F0000101884219D1FFE742F20430C4F2010021
:10250000006800F01F000F280FD8FFE7029800684E
:10251000806810F0405F07D1FFE702980168886883
:1025200040F080408860FFE7FFE717E0029800680E
:1025300042F20001C4F2010188420ED1FFE7029885
:102540000068806810F0405F07D1FFE702980168DB
:10255000886840F080408860FFE7FFE70AE0029962
:10256000086C40F0100008640299486C40F00100CB
:102570004864FFE700208DF80F00FFE79DF80F008B
:1025800004B0704784B002900191029890F8200046
:102590008DF803009DF80300012805D0FFE79DF8A2
:1025A000030002280AD1FFE7019A029801684869EE
:1025B0001043486100208DF80F0008E00299486A36
:1025C00040F48020486201208DF80F00FFE79DF85D
:1025D0000F0004B07047000088B006900591049287
:1025E0000393069890F820008DF80700069800687D
:1025F000806800900598806808B9FFE700E0FFE771
:102600009DF80700012806D0FFE79DF80700022883
:1026100040F08080FFE79DF80300400700280CD4BD
:10262000FFE79DF803000007002806D4FFE79DF8A8
:102630000300C006002864D5FFE70098C0F30160DE
:1026400002900299012088400399086005988068EB
:1026500068B9FFE705980168C06840EA41500699EB
:102660000968029A01EB0211C1F880010EE0059998
:102670004A688868C96840EAC20008430699096840
:10268000029A01EB0211C1F88001FFE70598006989
:1026900006990968029A01EB0211C1F884010598B4
:1026A000007D01280CD1FFE706980068029900EB35
:1026B0000111D1F8840140F48070C1F88401FFE772
:1026C0000498406806990968029A01EB0211C1F862
:1026D0008C010498006806990968029A01EB0211BE
:1026E000C1F8880106980068029900EB0111D1F841
:1026F000800140F00100C1F8800100208DF81F002A
:1027000011E00699486A40F40010486201208DF8F3
:102710001F0008E00699486A40F4802048620120C2
:102720008DF81F00FFE79DF81F0008B070470000FC
:1027300086B004900391049890F820008DF803006F
:102740009DF80300012806D0FFE79DF8030002284A
:1027500040F0B080FFE746F20040C4F20000019074
:102760000199D1F8000240F00100C1F8000201997E
:10277000D1F8000220F47C50C1F800020398426AAC
:102780000199D1F8000240EA0220C1F80002039842
:10279000406900F01F01012088400290029A0199CF
:1027A000D1F81C029043C1F81C020398C069F0B92B
:1027B000FFE7029A0199D1F80C029043C1F80C028C
:1027C000039A9088D168526940EA0140019901EB6F
:1027D000C201C1F84002039A10889168526940EA28
:1027E0000140019901EBC201C1F84402FFE70398DF
:1027F000C06901281ED1FFE7029A0199D1F80C02A5
:102800001043C1F80C02039A90881168526940EA9B
:102810000140019901EBC201C1F84002039A90897D
:102820009168526940EA0140019901EBC201C1F887
:102830004402FFE70398806940B9FFE7029A0199D3
:10284000D1F804029043C1F8040207E0029A01990A
:10285000D1F804021043C1F80402FFE703980069AD
:1028600040B9FFE7029A0199D1F814029043C1F8E8
:10287000140207E0029A0199D1F814021043C1F83A
:102880001402FFE70398006A012808D1FFE7029AC3
:102890000199D1F81C021043C1F81C02FFE701990D
:1028A000D1F8000220F00100C1F8000200208DF8EC
:1028B000170008E00499486A40F48020486201202B
:1028C0008DF81700FFE79DF8170006B0704700006D
:1028D00081B0009001B0704786B0049003910292DD
:1028E0000193049890F820008DF803009DF80300F0
:1028F000012806D0FFE79DF80300022840F0E88099
:10290000FFE7039880B9FFE704980068C068800774
:1029100048B9FFE70499486A40F400104862012072
:102920008DF81700DDE00FE004980068006980076B
:1029300048B9FFE70499486A40F400104862012052
:102940008DF81700CDE0FFE704980068039900EBCD
:102950000110D0F8B00100F00400029988600298DC
:10296000806858B9FFE704980068039900EB0110EC
:10297000D0F8B001400D029908600AE004980068A0
:10298000039900EB0110D0F8B001C008029948602B
:10299000FFE704980068039900EB0110D0F8B0013C
:1029A00000F002000299C86004980068039900EBE7
:1029B0000110D0F8B40100F00F00082804D3FFE79D
:1029C0000299082008610BE004980068039900EB65
:1029D0000110D0F8B40100F00F0002990861FFE780
:1029E00004980068039900EB0110D0F8B40180B29C
:1029F000000A0299886104980068039900EB0110AD
:102A0000D0F8B401000C0299486104980068039959
:102A100000EB0110D0F8B801019908700498006823
:102A2000039900EB0110D0F8B801000A0199487031
:102A300004980068039900EB0110D0F8B801000C6D
:102A40000199887004980068039900EB0110D0F890
:102A5000B801000E0199C87004980068039900EB52
:102A60000110D0F8BC01019908710498006803991D
:102A700000EB0110D0F8BC01000A019948710498DC
:102A80000068039900EB0110D0F8BC01000C01991B
:102A9000887104980068039900EB0110D0F8BC011C
:102AA000000E0199C871039838B9FFE704980168CE
:102AB000C86840F02000C86006E004980168086912
:102AC00040F020000861FFE700208DF8170008E0C3
:102AD0000499486A40F48020486201208DF817006C
:102AE000FFE79DF8170006B07047000080B58AB078
:102AF000099000200890099800684069079009989B
:102B000000684068069009980068806805900998F8
:102B10000068C068049009980068006903900998EB
:102B20000068806902909DF81C00C007002800F032
:102B30009480FFE79DF81400C00758B3FFE7099899
:102B40000168012088609DF814008007002804D5E2
:102B5000FFE7099800F062FC1BE09DF814004007B5
:102B6000002805D5FFE7089840F4006008900FE0C2
:102B70009DF814000007002805D5FFE7089840F4E9
:102B80008050089003E0099800F044FCFFE7FFE75D
:102B9000FFE7FFE79DF81500C00760B3FFE709985E
:102BA00001684FF4807088609DF815008007002848
:102BB00004D5FFE7099800F039FC1BE09DF81500EB
:102BC0004007002805D5FFE7089840F4005008901A
:102BD0000FE09DF815000007002805D5FFE70898CD
:102BE00040F48040089003E0099800F01BFCFFE7E8
:102BF000FFE7FFE7FFE79DF81600C00760B3FFE7B8
:102C0000099801684FF4803088609DF816008007AD
:102C1000002804D5FFE7099800F010FC1BE09DF8A0
:102C200016004007002805D5FFE7089840F400404B
:102C300008900FE09DF816000007002805D5FFE773
:102C4000089840F48030089003E0099800F0F2FB07
:102C5000FFE7FFE7FFE7FFE7FFE79DF81C0000073E
:102C6000002810D5FFE79DF81000C006002809D500
:102C7000FFE7089840F40070089009980168102058
:102C8000C860FFE7FFE79DF81C00400700280FD54C
:102C9000FFE79DF810000007002808D5FFE7099816
:102CA00001680820C860099800F0CCFAFFE7FFE748
:102CB0009DF81C00800700280BD5FFE709980068E5
:102CC000C068800720B1FFE7099800F0BFFAFFE76E
:102CD000FFE79DF81C004006002810D5FFE79DF88F
:102CE0000C00C006002809D5FFE7089840F4806072
:102CF00008900998016810200861FFE7FFE79DF838
:102D00001C00800600280FD5FFE79DF80C00000787
:102D1000002808D5FFE7099801680820086109988C
:102D200000F026FBFFE7FFE79DF81C00C006002827
:102D30000BD5FFE7099800680069800720B1FFE71D
:102D4000099800F019FBFFE7FFE79DF81E008007D8
:102D500000280FD5FFE79DF81800C006002808D509
:102D6000FFE70998016810204860099800F008FB07
:102D7000FFE7FFE79DF81E00C00778B1FFE79DF869
:102D800018000007002808D5FFE709980168082007
:102D90004860099800F056FBFFE7FFE79DF81D002B
:102DA0000006002840F18D80FFE79DF818004007DD
:102DB000002840F18180FFE79DF81D00C00750B159
:102DC000FFE79DF80800C00728B1FFE7089840F02A
:102DD00001000890FFE79DF81D00800700280BD533
:102DE000FFE79DF808008007002805D5FFE7089851
:102DF00040F002000890FFE79DF81D004007002802
:102E00000BD5FFE79DF808004007002805D5FFE730
:102E1000089840F004000890FFE79DF81D000007A7
:102E2000002848D5FFE79DF8080010F0700F42D049
:102E3000FFE7029800F0700001460191102814D0BD
:102E4000FFE70198202815D0FFE70198302816D019
:102E5000FFE70198402817D0FFE70198502818D0C5
:102E6000FFE70198602819D01DE0089840F008009D
:102E7000089019E0089840F01000089014E00898B5
:102E800040F0200008900FE0089840F040000890C3
:102E90000AE0089840F08000089005E0089840F4A7
:102EA0008070089000E0FFE709980168886920F0C9
:102EB00070008861FFE7FFE7099801680420486017
:102EC000FFE7089848B1FFE7089A0999486A104354
:102ED00048620998FFF7FCFCFFE70AB080BD0000DC
:102EE00080B584B00290029820B9FFE701208DF8E8
:102EF0000F00E0E0029890F8200020B9FFE7029868
:102F000000F0DEF8FFE702980168086840F0010071
:102F1000086001F0D7F80190FFE702980068406868
:102F2000C007A8B9FFE701F0CDF80199401A0B28B6
:102F30000DD3FFE70299486A40F4003048620299D5
:102F4000052081F8200001208DF80F00B3E0E4E7B0
:102F500002980168086820F00200086001F0B2F8E9
:102F60000190FFE70298006840688007002815D5A7
:102F7000FFE701F0A7F80199401A0B280DD3FFE7EE
:102F80000299486A40F4003048620299052081F8AD
:102F9000200001208DF80F008DE0E3E70298007E0D
:102FA000012807D1FFE702980168086840F0800017
:102FB000086006E002980168086820F08000086058
:102FC000FFE70298407E012807D1FFE702980168D9
:102FD000086840F04000086006E002980168086850
:102FE00020F040000860FFE70298807E012807D1AA
:102FF000FFE702980168086840F02000086006E0DA
:1030000002980168086820F020000860FFE7029835
:10301000C07E012807D1FFE702980168086820F008
:103020001000086006E002980168086840F010008F
:103030000860FFE70298007F012807D1FFE70298A8
:103040000168086840F00800086006E0029801681E
:10305000086820F008000860FFE70298407F012818
:1030600007D1FFE702980168086840F00400086093
:1030700006E002980168086820F004000860FFE795
:10308000029B19685A689868D3F80CC040EA0C0093
:10309000D3F810C040EA0C005B691843013A1043B2
:1030A000C861029900204862029A012182F820102A
:1030B0008DF80F00FFE79DF80F0004B080BD000001
:1030C00080B590B00F9000200E900D900C900B905A
:1030D0000A900F98006846F20041C4F2000188424D
:1030E00049D1FFE741F6C850C2F200000168013142
:1030F00001600068012812D1FFE7FFE70020099076
:1031000043F64000C4F20200016841F00071016022
:10311000006800F0007009900998FFE7FFE7FFE7FB
:103120000020089043F63000C4F20200016841F02C
:1031300008010160006800F0080008900898FFE7A7
:1031400003200A9002210B91002103910C910D9014
:1031500009200E9040F60040C4F202000AA900F0D7
:10316000BDFD039A14200490052101F087F804980E
:1031700001F07AF864E00F98006846F60001C4F2A6
:10318000000188425BD1FFE7FFE70020079043F68C
:103190004000C4F20200016841F0806101600068F3
:1031A00000F0806007900798FFE741F6C850C2F230
:1031B00000000168013101600068012812D1FFE7B9
:1031C000FFE70020069043F64000C4F202000168C9
:1031D00041F000710160006800F0007006900698F0
:1031E000FFE7FFE7FFE70020059043F63000C4F259
:1031F0000200016841F002010160006800F0020075
:1032000005900598FFE760200A9002200B900020AF
:1032100001900C9003200D9009200E9040F2004088
:10322000C4F202000AA900F059FD019A4020029060
:10323000052101F023F8029801F016F8FFE7FFE7F7
:1032400010B080BD81B0009001B0704780B58CB0E7
:103250000B900B98002104AA02ABFFF73DFB0B98E3
:1032600044F2CC21C2F2000188425ED1FFE704980B
:103270000190B0F5A17F49D0FFE7019840F202210B
:1032800088420BD0FFE7019840F2032188421DD00D
:10329000FFE70198B0F5017F28D045E040F2B85033
:1032A000C2F2000000F59D6002A90AF0F3FC45F2AD
:1032B000E611C2F200010298039A4A60086045F2E2
:1032C0003001C2F20001002008712DE040F2B85038
:1032D000C2F2000000F6481002A90AF06BFC45F2A9
:1032E0003001C2F20001002088711DE040F2B850A8
:1032F000C2F2000000F5E36002A90AF0CBFC45F23F
:103300003001C2F20001002048710DE040F2B850D7
:10331000C2F2000002A906F04BFE45F23001C2F2F3
:10332000000100208870FFE7FFE70B9844F2F421CA
:10333000C2F20001884218D1FFE7049840F205313B
:10334000884211D1FFE740F2B850C2F2000041F2CA
:103350003041084402A917F03DFD45F23001C2F2A8
:1033600000010020C870FFE7FFE70CB080BD00003F
:1033700081B0009001B0704781B0009001B07047FB
:1033800081B0009001B0704780B584B0029002987F
:1033900090F8200001282FD1FFE70299022081F840
:1033A000200002980168086820F00100086000F021
:1033B00089FE0190FFE7029800684068C007A8B145
:1033C000FFE700F07FFE0199401A0B280DD3FFE7BD
:1033D0000299486A40F4003048620299052081F859
:1033E000200001208DF80F000FE0E4E70299002093
:1033F00048628DF80F0008E00299486A40F4002006
:10340000486201208DF80F00FFE79DF80F0004B01F
:1034100080BD000081B0009001B0704781B0009085
:1034200001B0704781B0009001B0704781B000904A
:1034300001B0704781B0009001B0704781B000903A
:1034400001B0704781B0009001B0704780B582B084
:103450000090009820B9FFE701208DF8070011E0E7
:103460000098407938B9FFE700990020087100986A
:1034700000F00CF8FFE700990120487100208DF85A
:103480000700FFE79DF8070002B080BD82B0019001
:103490000198006843F20001C4F20201884212D18F
:1034A000FFE7FFE70020009043F63000C4F202007F
:1034B000016841F480510160006800F48050009080
:1034C0000098FFE7FFE702B07047000080B584B0C6
:1034D00002900298806D019000F0F4FD0090029837
:1034E00090F8350002280DD0FFE70299802048654A
:1034F000FFE70299002081F83400FFE701208DF8F2
:103500000F0055E002980168086820F01600086076
:1035100002980168486920F0800048610298006CB8
:1035200020B9FFE70298806C38B1FFE70298016884
:10353000086820F008000860FFE702980168086842
:1035400020F001000860FFE7029800680068C007EB
:10355000C8B1FFE700F0B6FD0099401A062811D364
:10356000FFE70299202048650299032081F8350081
:10357000FFE70299002081F83400FFE703208DF86F
:103580000F0015E0E0E70298C16D3F2088400199E7
:1035900088600299012081F83500FFE70299002038
:1035A00081F83400FFE7FFE700208DF80F00FFE708
:1035B0009DF80F0004B080BD82B00090009890F894
:1035C0003500022807D0FFE70099802048650120D8
:1035D0008DF807000EE00099052081F8350000986D
:1035E0000168086820F001000860FFE700208DF8FE
:1035F0000700FFE79DF8070002B0704780B584B070
:103600000290029820B9FFE701208DF80F004BE0EF
:10361000029890F83500022804D1FFE702208DF8C7
:103620000F0041E002980168086820F0010008607E
:1036300002980168002000900860029909684860BB
:1036400002990968886002990968C8600299096846
:10365000086102980168212048610298FDF7C8FFBF
:103660000146009801910299C86302990864029981
:103670004864029988640299C864029908650299AD
:10368000CA6D3F219140019A916002994865029963
:1036900081F83500FFE70299002081F83400FFE748
:1036A00000208DF80F00FFE79DF80F0004B080BDEB
:1036B00080B586B005900020039040F24810C2F219
:1036C0000000006848F2B511C1F64E31A0FB0110B0
:1036D000800A02900598806D01900198006804901E
:1036E00004980599C96DC840000700281AD5FFE75E
:1036F0000598006800684007002812D5FFE7059884
:103700000168086820F0040008600598C16D082071
:103710008840019988600599486D40F0010048652E
:10372000FFE7FFE704980599C96DC840C007A0B13D
:10373000FFE7059800684069000600280CD5FFE700
:103740000598C16D01208840019988600599486DF0
:1037500040F002004865FFE7FFE704980599C96D4E
:10376000C8404007002814D5FFE7059800680068A6
:10377000800700280CD5FFE70598C16D042088401C
:10378000019988600599486D40F004004865FFE79D
:10379000FFE704980599C96DC840C006002847D5C1
:1037A000FFE7059800680068000700283FD5FFE79D
:1037B0000598C16D102088400199886005980068BF
:1037C0000068400300281AD5FFE7059800680068E4
:1037D0000003002809D4FFE70598006C20B1FFE73B
:1037E0000598016C8847FFE708E00598806C20B1D8
:1037F000FFE70598816C8847FFE7FFE716E005982B
:1038000000680068C005002807D4FFE70598016834
:10381000086820F008000860FFE70598006C20B1F8
:10382000FFE70598016C8847FFE7FFE7FFE7FFE741
:1038300004980599C96DC8408006002840F18D8024
:10384000FFE7059800680068C006002840F1848002
:10385000FFE70598C16D2020884001998860059890
:1038600090F83500052834D1FFE70598016808680D
:1038700020F01600086005980168486920F0800073
:1038800048610598006C20B9FFE70598806C38B155
:10389000FFE705980168086820F008000860FFE766
:1038A0000598C16D3F2088400199886005990120E5
:1038B00081F83500FFE70599002081F83400FFE723
:1038C0000598006D20B1FFE70598016D8847FFE777
:1038D0007BE0059800680068400300281AD5FFE7E0
:1038E0000598006800680003002809D4FFE70598E0
:1038F000406C20B1FFE70598416C8847FFE708E07E
:103900000598C06B20B1FFE70598C16B8847FFE7BA
:10391000FFE720E0059800680068C005002811D482
:10392000FFE705980168086820F010000860059915
:10393000012081F83500FFE70599002081F8340067
:10394000FFE7FFE70598C06B20B1FFE70598C16B63
:103950008847FFE7FFE7FFE7FFE70598406DA0B363
:10396000FFE70598406DC00730B3FFE705990520D4
:1039700081F8350005980168086820F001000860AA
:10398000FFE70398013003900299884201D9FFE7CD
:1039900007E0FFE7059800680068C0070028F0D13D
:1039A000FFE70599012081F83500FFE70599002020
:1039B00081F83400FFE7FFE70598C06C20B1FFE70E
:1039C0000598C16C8847FFE7FFE706B080BD00009F
:1039D00080B586B004900020039000F073FB029045
:1039E000049820B9FFE701208DF81700A3E00498A0
:1039F000406A08B1FFE7FFE70499022081F835002B
:103A0000FFE70499002081F83400FFE7049801687B
:103A1000086820F001000860FFE70498006800686B
:103A2000C00790B1FFE700F04DFB0299401A06284D
:103A30000AD3FFE70499202048650499032081F800
:103A400035008DF8170076E0E7E704980068006815
:103A50000390039848F23F01CFF210010840039011
:103A6000049900914868D1F808C0CB680A6940EA17
:103A70000C00184310434A6910438A691043CA690D
:103A80001043096A01430398084303900498406A6D
:103A9000042808D1FFE70499C86A096B0143039819
:103AA00008430390FFE703980499096808600498A5
:103AB000006840690390039820F007000390049881
:103AC000416A0398084303900498406A04281AD175
:103AD000FFE70498816A0398084303900498C06A3A
:103AE00080B1FFE70498FDF7AFFD50B1FFE70499FF
:103AF000402048650499012081F835008DF81700B1
:103B000019E0FFE7FFE70398049909684861049802
:103B1000FDF76EFD01900498C16D3F20884001992A
:103B20008860049900204865049A012182F83510C4
:103B30008DF81700FFE79DF8170006B080BD000064
:103B400080B588B0069005910492039300208DF80B
:103B50000B000698806D0190FFE7069890F83400FE
:103B6000012804D1FFE702208DF81F0045E00699E7
:103B7000012081F83400FFE7FFE7069890F8350050
:103B800001282BD1FFE70699022081F8350006991C
:103B90000020486506980599049A039BFDF7CCFD23
:103BA0000698C16D3F208840019988600698016899
:103BB000086840F0160008600698006C38B1FFE70E
:103BC00006980168086840F008000860FFE706985A
:103BD0000168086840F00100086009E0FFE7069905
:103BE000002081F83400FFE702208DF80B00FFE78A
:103BF0009DF80B008DF81F00FFE79DF81F0008B02F
:103C000080BD000080B584B0039000F05BFA0290A4
:103C1000039801900198013048B1FFE740F21C5031
:103C2000C2F200000178019808440190FFE7FFE725
:103C300000F048FA0299401A0199884201D2FFE740
:103C4000F6E704B080BD000080B582B0ADF8060094
:103C5000BDF80600022822D1FFE744F6C030C2F2C8
:103C6000000045F2D011C2F2000111F0C1FE8DF842
:103C700005009DF8050058B1FFE744F6C030C2F2D8
:103C8000000045F2D011C2F2000111F003FFFFE77E
:103C900044F6C030C2F2000011F01CFFFFE702B092
:103CA00080BD000080B582B0ADF8060043F6144038
:103CB000C4F201000068BDF8061008420CD0FFE70E
:103CC000BDF8060043F61441C4F201010860BDF8D6
:103CD0000600FFF7B9FFFFE702B080BD8EB00D9080
:103CE0000C9100200A90099008900B90FFE70B9828
:103CF0000F2800F2CC81FFE70B99012088400A9041
:103D00000C9800680A990840099009980A99884215
:103D100040F0B881FFE70C98406800F003000128EC
:103D200007D0FFE70C98406800F0030002282FD16D
:103D3000FFE70D98806808900B984100032000FA77
:103D400001F10898884308900C98C0680B994900C5
:103D500000FA01F108980843089008980D998860C6
:103D60000D98406808900B99012000FA01F108981D
:103D7000884308900C984068C0F300100B9900FA33
:103D800001F108980843089008980D994860FFE7EA
:103D90000C98406800F00300032818D0FFE70D9846
:103DA000C06808900B984100032000FA01F10898C0
:103DB000884308900C9880680B99490000FA01F13B
:103DC00008980843089008980D99C860FFE70C9878
:103DD000406800F00300022826D1FFE70D980B99F8
:103DE0006FF0030202EA51010844006A08900B9840
:103DF00000F0070081000F2000FA01F108988843C5
:103E000008900C9800690B9901F00701890000FAED
:103E100001F108980843089008980D990B9B02EA55
:103E2000530211440862FFE70D98006808900B9850
:103E30004100032000FA01F10898884308900C988B
:103E4000406800F003000B99490000FA01F108985E
:103E50000843089008980D9908600C9880798007AD
:103E6000002800F00E81FFE7FFE70020079043F6EF
:103E70004400C4F20200016841F48041016000681E
:103E800000F4804007900798FFE70B9820F00300AC
:103E900043F60801C4F20101405808900B9800F065
:103EA000030081000F2000FA01F108988843089070
:103EB0000D980021C4F20201884203D1FFE70020DF
:103EC00006905EE00D9840F20041C4F20201884283
:103ED00003D1FFE70120059050E00D9840F6000166
:103EE000C4F20201884203D1FFE70220049042E0BD
:103EF0000D9840F60041C4F20201884203D1FFE769
:103F00000320039034E00D9841F20001C4F2020155
:103F1000884203D1FFE70420029026E00D9841F289
:103F20000041C4F20201884203D1FFE7052001905D
:103F300018E00D9841F60001C4F20201884203D155
:103F4000FFE7062000900AE00D9941F60042C4F216
:103F500002020820914208BF07200090FFE7009866
:103F60000190FFE701980290FFE702980390FFE7B6
:103F700003980490FFE704980590FFE705980690E2
:103F8000FFE70698C0B20B9901F00301890000FA1F
:103F900001F108980843089008980B9921F0030153
:103FA00043F60802C4F20102885043F60840C4F206
:103FB00001000068089009990898884308900C98B7
:103FC0008079C006002805D5FFE7099908980843BD
:103FD0000890FFE7089843F60841C4F20101086021
:103FE00043F60C40C4F20100006808900999089853
:103FF000884308900C9880798006002805D5FFE753
:104000000999089808430890FFE7089843F60C417F
:10401000C4F20101086043F60440C4F201000068E4
:10402000089009990898884308900C98807980072F
:10403000002805D5FFE70999089808430890FFE78D
:10404000089843F60441C4F20101086043F60040B9
:10405000C4F2010000680890099908988843089004
:104060000C988079C00728B1FFE7099908980843A0
:104070000890FFE7089843F60041C4F20101086088
:10408000FFE7FFE7FFE70B9801300B902FE60EB03C
:104090007047000082B00190ADF802108DF8012049
:1040A0009DF8010028B1FFE7BDF802000199886181
:1040B00005E0BDF80200000401998861FFE702B045
:1040C000704700004BF2BC60C2F20000006870470D
:1040D00040F21C50C2F2000002784BF2BC61C2F206
:1040E00000010868104408607047000080B543F67E
:1040F0000041C4F20201086840F4007008600868DA
:1041000040F480600860086840F480700860032014
:1041100000F0CEF80F2000F005F800F079F800204C
:1041200080BD000080B58CB00B90002004900390FF
:10413000FFE70020009043F64000C4F2020001684F
:1041400041F001010160006800F00100009000985A
:10415000FFE706A802A901F059FB0998049004980A
:1041600020B9FFE701F082FB059004E001F07EFB3F
:1041700040000590FFE705984DF68361C4F21B31BE
:10418000A0FB01014FF0FF3000EB9140039044F69B
:10419000A840C2F200004FF08041016040F2E731D8
:1041A000C16003994160002101618160816102F079
:1041B00027FE8DF807009DF8070028BBFFE744F6AF
:1041C000A840C2F2000002F095FF8DF807009DF8AC
:1041D0000700C0B9FFE71C2000F046F80B980F2835
:1041E0000CD8FFE70B991C20002200F047F80B9831
:1041F00040F22051C2F20001086003E001208DF876
:104200000700FFE7FFE7FFE79DF807000CB080BD60
:1042100080B582B0FFE70020019043F64400C4F26D
:104220000200016841F480410160006800F48040B0
:1042300001900198FFE7FFE70020009043F640005F
:10424000C4F20200016841F080510160006800F092
:10425000805000900098FFE76FF001000F210022CE
:1042600000F00CF802B080BD80B582B08DF8070078
:104270009DF9070011F078FF02B080BD80B586B0CF
:104280008DF81700049103920020029011F084FF32
:1042900002909DF91700019002980499039A07F083
:1042A0001BF90146019811F07FFF06B080BD0000A8
:1042B00080B582B00190019811F098FF02B080BDE6
:1042C00082B001908DF8031002B0704782B0019067
:1042D000ADF80210BDF8020001990968486200209B
:1042E00002B0704784B003908DF80B10ADF8082031
:1042F00003980068406A00909DF80B0048B9FFE7FA
:10430000BDF80810009840EA0140039909688862E6
:1043100033E003980068816A009800EB1140009038
:1043200000208DF80700FFE79DF807009DF80B10AF
:104330000139884213D2FFE7039800689DF80710FF
:1043400000EB8100D0F80411009800EB11400090C0
:10435000FFE79DF8070001308DF80700E4E7BDF89E
:104360000810009840EA0140039909689DF80B2065
:1043700001EB8201C1F80001FFE7002004B07047A3
:1043800080B582B001900198D0F8E0040EF06AF890
:1043900002B080BD80B582B001908DF80310019A03
:1043A000D2F8E0049DF8031001EBC10302EB830295
:1043B000126A0DF0ABFE02B080BD000080B582B085
:1043C00001908DF80310019AD2F8E0049DF80310D3
:1043D00001EBC10302EB8302D2F860220DF064FF0F
:1043E00002B080BD80B582B001900198D0F8E004A1
:1043F0000EF03EF802B080BD80B584B003908DF819
:104400000B109DF80B00000600280CD5FFE7039861
:104410009DF80B1001F00F0101EBC10100EB8100D1
:10442000143001900CE003989DF80B1001F00F017F
:1044300001EBC10100EB810000F515700190FFE771
:104440000398006801990FF09DFD8DF80A009DF812
:104450000A0004B080BD000080B584B002908DF8E1
:1044600007109DF80700000600280FD5FFE7029807
:104470009DF8071001F00F0101EBC10100EB810075
:10448000143000900099012048700FE002989DF8C8
:10449000071001F00F0101EBC10100EB810000F5F5
:1044A00015700090009900204870FFE79DF8070004
:1044B00000F00F0000990870FFE7029890F894044C
:1044C000012804D1FFE702208DF80F0014E00299C3
:1044D000012081F89404FFE7FFE702980068009943
:1044E0000FF040F8FFE70299002081F89404FFE7FD
:1044F00000208DF80F00FFE79DF80F0004B080BD8D
:1045000080B584B002908DF807109DF8070000F088
:104510000F0002990979884204D9FFE701208DF83C
:104520000F004DE09DF80700000600280FD5FFE7BB
:1045300002989DF8071001F00F0101EBC10100EB9B
:104540008100143000900099012048700FE002981B
:104550009DF8071001F00F0101EBC10100EB810094
:1045600000F515700090009900204870FFE7009951
:10457000002088709DF8070000F00F000099087077
:10458000FFE7029890F89404012804D1FFE7022085
:104590008DF80F0014E00299012081F89404FFE7E0
:1045A000FFE70298006800990FF04CFAFFE70299C4
:1045B000002081F89404FFE700208DF80F00FFE74A
:1045C0009DF80F0004B080BD82B001908DF80310FB
:1045D00001989DF8031001F00F0101EBC10100EB00
:1045E0008100D0F8680202B07047000080B586B044
:1045F00004908DF80F10ADF80C208DF80B300020D2
:104600008DF80A009DF80F00000600280FD5FFE77F
:1046100004989DF80F1001F00F0101EBC10100EBB0
:104620008100143001900199012048700FE0049836
:104630009DF80F1001F00F0101EBC10100EB8100AB
:1046400000F515700190019900204870FFE79DF872
:104650000F0000F00F0001990870BDF80C006FF317
:10466000DF20019988609DF80B000199087101987D
:10467000407820B1FFE7019908784883FFE79DF86B
:104680000B00022804D1FFE7019900204871FFE7E1
:10469000FFE7049890F89404012804D1FFE7022072
:1046A0008DF8170015E00499012081F89404FFE7C4
:1046B000FFE70498006801990EF01EFEFFE70499D9
:1046C000002081F89404FFE79DF80A008DF8170098
:1046D000FFE79DF8170006B080BD000080B586B0EA
:1046E00005908DF813100392029305989DF813100E
:1046F00001F00F0101EBC10100EB810000F5157025
:10470000019003980199C860029801990861019984
:1047100000204861019948709DF8130000F00F00D7
:104720000199087005988079012804D1FFE7039862
:104730000199C861FFE7059A1068019992790FF015
:1047400025FA002006B080BD80B584B002908DF8B7
:1047500007109DF8070000F00F00029909798842C0
:1047600004D9FFE701208DF80F0058E09DF80700FD
:10477000000600280FD5FFE702989DF8071001F00A
:104780000F0101EBC10100EB810014300090009992
:10479000012048700DE002989DF8071001EBC1015F
:1047A00000EB810000F51570009000990020487022
:1047B000FFE70099012088709DF8070000F00F00C6
:1047C00000990870FFE7029890F89404012804D13A
:1047D000FFE702208DF80F0021E00299012081F807
:1047E0009404FFE7FFE70298006800990FF07AF958
:1047F0009DF80700000740B9FFE7029A1068917919
:1048000002F29C420FF0CEF8FFE7FFE7029900208A
:1048100081F89404FFE700208DF80F00FFE79DF872
:104820000F0004B080BD000080B586B005908DF803
:1048300013100392029305989DF8131001F00F01D5
:1048400001EBC10100EB8100143001900398019944
:10485000C860029801990861019900204861019996
:10486000012048709DF8130000F00F0001990870B6
:1048700005988079012804D1FFE703980199C86160
:10488000FFE7059A1068019992790FF07FF90020EF
:1048900006B080BD80B58CB00B900B9800680A9074
:1048A0000A9809900B9800680FF0A2FC002840F0CD
:1048B0000C84FFE70B9800680FF006FD10B9FFE7C6
:1048C00000F003BC0998D0F80808C0F30D200B993C
:1048D000C1F8D4040B9800680FF0F6FC800700289C
:1048E00007D5FFE70B980168486900F002004861AE
:1048F000FFE70B9800680FF0E7FCC006002862D5C0
:10490000FFE70B980168886920F0100088610A9819
:10491000006A02900B98029901F00F0101EBC101AE
:1049200000EB810000F515700890029800F4F0117A
:104930000220B0EB514F23D1FFE7BDF8080047F646
:10494000F07108421BD0FFE70A980899C968029ADB
:10495000C2F30A120FF0C6FC029847F6F07100EAA3
:104960000103089AD06800EB1310D060029800EAA7
:1049700001020899486900EB12104861FFE71BE04B
:10498000029800F4F0110620B0EB514F12D1FFE76E
:104990000A980B9901F29C4108220FF0A3FC02989F
:1049A00047F6F07100EA01020899486900EB12101D
:1049B000486100E0FFE7FFE70B980168886940F075
:1049C00010008861FFE70B9800680FF07DFC000382
:1049D000002840F1A680FFE7002004900B980068B3
:1049E0000FF020FC0690FFE70698002800F0988062
:1049F000FFE79DF81800C007002800F08A80FFE755
:104A00000B9800689DF810100FF046FC05909DF87B
:104A10001400C00760B1FFE70998049900EB411149
:104A20000120C1F8080B0B98049907F037F8FFE74D
:104A30009DF81400000700280CD5FFE70998049999
:104A400000EB41110820C1F8080B0B98049906F0FF
:104A5000DFFFFFE79DF81400C006002808D5FFE738
:104A60000998049900EB41111020C1F8080BFFE7E9
:104A70009DF81400800700282DD5FFE70A984069AB
:104A80000006002808D5FFE70999D1F8040840F48A
:104A90008060C1F80408FFE70B98049901EBC1019D
:104AA00000EB810000F5157008900898C078012887
:104AB00009D1FFE708990020C8700B989DF81010E5
:104AC00000F014FBFFE70998049900EB4111022064
:104AD000C1F8080BFFE79DF814008006002808D5F0
:104AE000FFE70998049900EB41112020C1F8080B59
:104AF000FFE79DF815008006002809D5FFE7099813
:104B0000049900EB41114FF40050C1F8080BFFE786
:104B1000FFE704980130049006984008069063E788
:104B2000FFE70B9800680FF0CFFB4003002840F12F
:104B3000C680FFE70B9800680FF062FB069000202C
:104B40000490FFE70698002800F0B880FFE79DF882
:104B50001800C007002800F0AA80FFE70B98006843
:104B60009DF810100FF070FB05909DF81400C00721
:104B700000283ED0FFE7049800F00F01012000FA62
:104B800001F10391039B099AD2F834189943C2F8B2
:104B900034180999049A01EB4211C1F808090B98DD
:104BA000807901281FD1FFE70B98049901EBC1011F
:104BB00000EB8101CA69086A10440862049888B948
:104BC000FFE70B98049901EBC10100EB8100406AFB
:104BD00040B9FFE70B99086801F29C4201210EF0F1
:104BE000E1FEFFE7FFE70B989DF81010FFF7D2FBFF
:104BF000FFE79DF814000007002808D5FFE7099893
:104C0000049900EB41110820C1F80809FFE79DF85D
:104C10001400C006002808D5FFE70998049900EBA6
:104C200041111020C1F80809FFE79DF81400400663
:104C3000002808D5FFE70998049900EB41114020AE
:104C4000C1F80809FFE79DF814008007002822D565
:104C5000FFE70A9804990FF067FA0B98049901EBA3
:104C6000C10100EB8100143008900898C078012839
:104C700009D1FFE708990020C8700B989DF8101023
:104C800000F026FAFFE70998049900EB4111022091
:104C9000C1F80809FFE79DF814000006002805D5B3
:104CA000FFE70B98049906F0DDFFFFE7FFE70498A4
:104CB0000130049006984008069043E7FFE70B9800
:104CC00000680FF001FBC00F00B3FFE70999D1F8AE
:104CD000040820F00100C1F804080B9890F8CC04F7
:104CE000012808D1FFE70B98002180F8CC140B981D
:104CF000FFF7E6FA03E00B9800F0AAFBFFE70B983A
:104D00000168486900F000404861FFE70B980068BF
:104D10000FF0DAFA0005002811D5FFE70998D0F85E
:104D20000808C00720B1FFE70B9800F01DFCFFE763
:104D30000B980168486900F400604861FFE70B9830
:104D400000680FF0C1FAC004002840F18680FFE738
:104D50000999D1F8040820F00100C1F804080B9863
:104D6000006810210FF0E0F900200790FFE7079896
:104D70000B990979884231D2FFE70998079900EB2E
:104D800041114FF67F30C1F808090999079A01EBE4
:104D90004212D2F8001921F40011C2F80019099941
:104DA000079A01EB4211C1F8080B0998079900EB2B
:104DB0004111D1F8000B20F40010C1F8000B099844
:104DC000079900EB4111D1F8000B40F00060C1F8E9
:104DD000000BFFE7079801300790C8E70999D1F861
:104DE0001C0840F00110C1F81C080B98C07B78B17A
:104DF000FFE70999D1F8840840F00B00C1F8840856
:104E00000999D1F8440840F00B00C1F844080FE0BC
:104E10000999D1F8140842F22B021043C1F8140882
:104E20000999D1F8100840F00B00C1F81008FFE70D
:104E30000999D1F8000820F4FE60C1F800080B9A27
:104E40001068917902F29C420EF0ACFD0B9801685B
:104E5000486900F480504861FFE70B9800680FF044
:104E600033FA800400281FD5FFE70B9800680EF086
:104E7000B3FA0B9800680FF095F90B99C8710B986D
:104E80000068019000F0ECFC014601980B9AD27981
:104E90000FF020FB0B9800F0B1FA0B9801684869FD
:104EA00000F400504861FFE70B9800680FF00CFA1F
:104EB000000700280AD5FFE70B9800F0D3FA0B98FB
:104EC0000168486900F008004861FFE70B98006836
:104ED0000FF0FAF90006002825D5FFE70A9988693E
:104EE00020F08000886101200490FFE704980B996E
:104EF0000979884216D2FFE70B98049901EBC101AA
:104F000000EB810090F85702012806D1FFE70B98CB
:104F10009DF81010FFF770FAFFE7FFE704980130E3
:104F20000490E3E7FFE70B9800680FF0CDF9C002AB
:104F300000283CD5FFE701200490FFE704980B9977
:104F4000097988422CD2FFE70998049900EB4110B7
:104F5000D0F8000902900B98049901EBC10100EB15
:104F60008100007E012816D1FFE79DF80B000006A6
:104F7000002810D5FFE70B98049901EBC10100EB65
:104F800081010120C8750B989DF8101041F0800137
:104F9000FFF732FAFFE7FFE7049801300490CDE70E
:104FA0000B980168486900F480104861FFE70B988E
:104FB00000680FF089F98002002856D5FFE701202C
:104FC0000490FFE704980B990979884246D2FFE7DD
:104FD0000998049900EB4110D0F8000B02900B984F
:104FE000049901EBC10100EB810090F858020128FF
:104FF0002FD1FFE79DF80B000006002829D5FFE719
:10500000029800F480310B98D0F8D40400F001002D
:10501000B0EB114F1DD1FFE70B98049901EBC101D3
:1050200000EB8101012081F857020A99886940F05C
:10503000800088610A9840690006002808D4FFE7CC
:105040000999D1F8040840F40070C1F8040805E09B
:10505000FFE7FFE7049801300490B3E70B9801687D
:10506000486900F400104861FFE70B9800680FF0F2
:105070002BF9400000280AD5FFE70B98FFF780F9CD
:105080000B980168486900F080404861FFE70B9881
:1050900000680FF019F94007002815D5FFE70B98B5
:1050A0000068406802909DF808004007002804D579
:1050B000FFE70B98FFF796F9FFE7029A0B98016854
:1050C000486810434860FFE7FFE70CB080BD000070
:1050D00080B582B001908DF803100198D0F8E004FB
:1050E0009DF803100DF060FA02B080BD80B582B06B
:1050F00001908DF803100198D0F8E0049DF803109A
:105100000DF08AFA02B080BD80B58EB00C900C987C
:1051100020B9FFE701208DF8370012E10C980068F4
:105120000B900C9890F8950440B9FFE70C9900207B
:1051300081F894040C9800F009F9FFE70C9903201A
:1051400081F895040B98B0F1A04F04D1FFE70C99BA
:1051500000208871FFE70C9800680EF019FC0C9B8A
:105160001868197C8DF8241059689A68DB680893D0
:10517000079206910699079A089BDDF824C0EE462F
:10518000CEF800C00EF03EF940B1FFE70C990220C6
:1051900081F8950401208DF83700D2E00C98006862
:1051A00000210FF0F9F840B1FFE70C99022081F8D7
:1051B000950401208DF83700C3E000208DF82B0006
:1051C000FFE79DF82B000C990979884241DAFFE747
:1051D0000C989DF82B1001EBC10100EB810101201F
:1051E00048759DF82B000C9900EBC00201EB820181
:1051F00008759DF82B000C9900EBC00201EB8201B1
:10520000C8850C989DF82B1001EBC10100EB8101C2
:10521000002008760C999DF82B2002EBC20201EBCE
:105220008201C8610C999DF82B2002EBC20201EBB0
:10523000820108620C999DF82B2002EBC20201EB5F
:1052400082014862FFE79DF82B0001308DF82B00AA
:10525000B7E700208DF82B00FFE79DF82B000C9995
:10526000097988423EDAFFE70C989DF82B1001EB94
:10527000C10100EB8101002081F855029DF82B103F
:105280000C9A01EBC10302EB830282F854120C99D1
:105290009DF82B2002EBC20201EB820181F858023B
:1052A0000C999DF82B2002EBC20201EB8201C1F8A0
:1052B0005C020C999DF82B2002EBC20201EB8201EB
:1052C000C1F860020C999DF82B2002EBC20201EBA1
:1052D0008201C1F86402FFE79DF82B0001308DF8D0
:1052E0002B00BAE70C9B1868197C8DF814105968CC
:1052F0009A68DB680493039202910299039A049BD3
:10530000DDF814C0EE46CEF800C00EF0F3F940B15F
:10531000FFE70C99022081F8950401208DF83700F1
:105320000FE00C990020019048740C99012081F83D
:1053300095040C9800680EF0C7F901988DF83700B5
:10534000FFE79DF837000EB080BD000080B58AB041
:105350000990002008900790069005900490099805
:105360000068B0F1A04F47D1FFE7FFE700200390AE
:1053700043F63000C4F20200016841F0010101600F
:10538000006800F0010003900398FFE74FF4C0505D
:1053900004900220059000200690032007900A2028
:1053A00008900020C4F2020004A9FEF797FCFFE772
:1053B00043F63401C4F20201086840F0800008603E
:1053C000FFE70020029043F64400C4F202000168A7
:1053D00041F480410160006800F48040029002982E
:1053E000FFE7FFE74320019005210022FEF746FF7B
:1053F0000198FEF739FFFFE70AB080BD80B582B0A3
:10540000019001208DF803000198C07920B9FFE7D1
:1054100000208DF803000CE00198C079022804D127
:10542000FFE701208DF8030002E0FCF711FBFFE726
:10543000FFE70198D0F8E0049DF803100DF0EEF9B5
:105440000198D0F8E0040DF067F902B080BD0000CB
:1054500080B582B001900198D0F8E0040DF0ACF96D
:1054600002B080BD80B582B001900198D0F8E00410
:105470000DF0B4F902B080BD80B584B002908DF813
:105480000710FFE7029890F89404012804D1FFE781
:1054900002208DF80F0019E00299012081F8940490
:1054A000FFE7FFE79DF8070002994874029800683B
:1054B0009DF807100EF0E0FFFFE70299002081F849
:1054C0009404FFE700208DF80F00FFE79DF80F0020
:1054D00004B080BD80B582B001900199D1F8E0049C
:1054E00001F29C410DF0C4F902B080BD80B584B0DA
:1054F0000290029800680190FFE7029890F89404E7
:10550000012804D1FFE702208DF80F0028E002995E
:10551000012081F89404FFE7FFE70198C068400686
:1055200000280BD5FFE70298407B012806D1FFE752
:105530000199886B40F480308863FFE70298006827
:105540000EF0AEFD029800680EF0A8F8FFE7029991
:10555000002081F89404FFE700208DF80F00FFE79A
:105560009DF80F0004B080BD80B582B00190019815
:10557000D0F8E0040DF0FEF901980168D1F8000EB2
:1055800040F00100C1F8000E0198C07A48B1FFE771
:105590004EF61051CEF20001086840F00600086097
:1055A000FFE702B080BD000080B584B00290019199
:1055B000029820B9FFE701208DF80F0021E1019842
:1055C00043F60041C4F20201096801F00701884274
:1055D00012D9FFE7019943F60040C4F202000170BE
:1055E000006800F007000199884204D0FFE701201D
:1055F0008DF80F0005E1FFE702980078800700288A
:105600002AD5FFE7029800784007002809D5FFE770
:1056100043F60801C4F20201086840F4E050086053
:10562000FFE7029800780007002809D5FFE743F656
:105630000801C4F20201086840F460400860FFE716
:1056400043F60801C4F20201086820F0F000029A53
:10565000926810430860FFE702980078C0070028AE
:105660006ED0FFE702984068012811D1FFE743F6AA
:105670000000C4F20200006800F400310020B0EB2A
:10568000514F04D1FFE701208DF80F00B9E02CE065
:1056900002984068022805D0FFE702984068032876
:1056A00011D1FFE743F60000C4F20200006800F0E9
:1056B00000710020B0EB516F04D1FFE701208DF89D
:1056C0000F009EE010E043F60000C4F20200006804
:1056D00000F002010020B0EB510F04D1FFE70120E0
:1056E0008DF80F008DE0FFE7FFE743F60801C4F2F5
:1056F0000201086820F00300029A52681043086013
:10570000FEF7E0FC0090FFE743F60800C4F2020059
:10571000006800F00C0002994968B0EB810F0ED0D0
:10572000FFE7FEF7CFFC0099401A41F28931884229
:1057300004D3FFE703208DF80F0062E0E4E7FFE702
:10574000019843F60041C4F20201096801F0070123
:10575000884212D2FFE7019943F60040C4F20200EA
:105760000170006800F007000199884204D0FFE74B
:1057700001208DF80F0044E0FFE702980078400711
:1057800000280CD5FFE743F60801C4F202010868BF
:1057900020F4E050029AD26810430860FFE70298B4
:1057A0000078000700280DD5FFE743F60801C4F292
:1057B0000201086820F46040029A126940EAC200BF
:1057C0000860FFE700F076F843F60801C4F2020132
:1057D0000968C9B20A0941F65C31C0F60201895C68
:1057E000C84040F24811C2F20001086040F2205067
:1057F000C2F200000068FEF795FC00208DF80F0053
:10580000FFE79DF80F0004B080BD000082B001905A
:10581000009101990F20086043F60800C4F20200CD
:10582000016801F00301019A5160016801F0F00183
:10583000019A9160016801F4E051019AD160006819
:1058400000F46040C0080199086143F60040C4F2CA
:105850000200006800F007000099086002B070477D
:1058600040F24810C2F200000068704780B5FFF7B0
:10587000F7FF43F60801C4F202010968C1F382226E
:1058800041F66C31C0F60201895CC84080BD000061
:1058900080B5FFF7E5FF43F60801C4F2020109688D
:1058A00089B24A0B41F66C31C0F60201895CC840EE
:1058B00080BD000080B586B0002005900490039064
:1058C000029043F60800C4F20200006800F00C00E9
:1058D0000146019140B1FFE7019804280AD0FFE793
:1058E000019808280CD04FE042F20040C0F2F400CA
:1058F00002904FE041F60030C0F2B700029049E05C
:1059000043F60400C4F20200016801F03F01059172
:1059100000684002002813D5FFE743F60400C4F2F4
:1059200002000068C0F3881041F60031C0F2B701F0
:10593000A0FB0101059A0023FAF7B6FC049012E0DF
:1059400043F60400C4F202000068C0F3881042F27B
:105950000041C0F2F401A0FB0101059A0023FAF70F
:10596000A3FC0490FFE743F60400C4F202000068C1
:1059700000F44031022000EBD130039004980399E9
:10598000B0FBF1F0029005E042F20040C0F2F400FA
:105990000290FFE7029806B080BD000080B586B097
:1059A0000490049820B9FFE701208DF8170050E318
:1059B00004980078C007002800F0A580FFE743F6B0
:1059C0000800C4F20200006800F00C00042813D0A4
:1059D000FFE743F60800C4F20200006800F00C0084
:1059E00008281ED1FFE743F60400C4F20200006855
:1059F0004002002815D5FFE743F60000C4F202007C
:105A0000006800F400310020B0EB514F08D0FFE7F0
:105A10000498406820B9FFE701208DF8170018E3CB
:105A200070E0FFE704984068B0F5803F09D1FFE7D8
:105A300043F60001C4F20201086840F480300860B7
:105A400020E004984068B0F5A02F0DD1FFE743F6A1
:105A50000001C4F20201086840F480200860086870
:105A600040F4803008600CE043F60001C4F202010B
:105A7000086820F480300860086820F480200860FE
:105A8000FFE7FFE7FFE704984068E8B1FFE7FEF7AC
:105A900019FB0390FFE743F60000C4F20200006820
:105AA00000F400310020B0EB514F0CD1FFE7FEF7BE
:105AB00009FB0399401A652804D3FFE703208DF8FA
:105AC0001700C6E2E7E71CE0FEF7FCFA0390FFE7E9
:105AD00043F60000C4F20200006800F40031002028
