:020000040800F2
:10000000C0DC0020690200087D9E0008BD6F00086A
:10001000799E0008D50D000865EA00080000000080
:1000200000000000000000000000000091D4000863
:10003000351700080000000091AA000801D9000847
:10004000830200088302000883020008830200087C
:1000500083020008830200088302000839170008A1
:10006000830200088302000883020008830200085C
:100070004912000883020008830200088302000876
:10008000830200088302000883020008830200083C
:10009000D90D0008830200088302000883020008CB
:1000A000830200080DDA00088302000883020008BA
:1000B00029DA00088302000883020008830200088E
:1000C00083020008830200088302000883020008FC
:1000D000830200085DE800088302000879E8000850
:1000E00083020008830200088302000883020008DC
:1000F00083020008830200088302000859120008E6
:1001000083020008830200088302000883020008BB
:1001100083020008830200088302000839DA00081D
:100120008302000869120008791200088912000889
:10013000830200088302000883020008830200088B
:10014000E90D00088302000883020008830200080A
:1001500099120008A9120008B912000895E80008D1
:10016000830200088302000883020008830200085B
:1001700083020008830200088302000800000000D8
:10018000830200088302000800F002F800F05CF827
:100190000AA090E8000C82448344AAF10107DA45E2
:1001A00001D100F051F8AFF2090EBAE80F0013F0D8
:1001B000010F18BFFB1A43F00103184744A70100C1
:1001C00064A701000A444FF0000C10F8013B13F043
:1001D000070408BF10F8014B1D1108BF10F8015BA0
:1001E000641E05D010F8016B641E01F8016BF9D193
:1001F00013F0080F1EBF10F8014BAD1C0C1B09D1EA
:100200006D1E58BF01F801CBFAD505E014F8016B5B
:1002100001F8016B6D1EF9D59142D6D370470000ED
:100220000023002400250026103A28BF78C1FBD8FF
:10023000520728BF30C148BF0B6070471FB519F087
:1002400032FB1FBD10B510BD00F002FA1146FFF7DA
:10025000F5FF14F0F3FE00F020FA03B4FFF7F2FF0D
:1002600003BC00F023FA0000094880470948004712
:10027000FEE7FEE7FEE7FEE7FEE7FEE7FEE7FEE756
:10028000FEE7FEE704480549054A064B70470000B3
:10029000F9D9000889010008C09C0020C0DC0020BA
:1002A000C0BC0020C0BC002053EA020C00F06980F2
:1002B0002DE9F04B4FF00006002B1FBFB3FA83F57A
:1002C00003FA05F424FA05F65E4012BF1643B2FAAB
:1002D00082F502FA05F4C5F120051EBF22FA05FCDD
:1002E00044EA0C04203556EA044C4FEA144418BF83
:1002F000641C4FF000084FF00009904271EB030CB2
:1003000039D3002919BFB1FA81F701FA07F6B0FA1B
:1003100080F700FA07F6C7F120071EBF20FA07FC96
:1003200046EA0C062037B6FBF4FCA7EB0507103FA6
:1003300007F01F0BCBF120062CFA06F60CFA0BFB8C
:1003400044BFB3460026202FA4BF5E464FF0000BEB
:100350005BEA060C08BF4FF0010B19EB0B0948EBE9
:100360000608ABFB027C06FB02CC0BFB03CCC01BDC
:1003700071EB0C01C1E70B46024641464846BDE819
:10038000F08B13B5084318BF4FF0FF300146AFF3B1
:100390000080BDE81C40704753EA020C23D010B522
:1003A0004C1084EA530404D54042C1F1000138BF27
:1003B000491E1B4204D55242C3F1000338BF5B1EE5
:1003C000FFF772FF14F0804F04D04042C1F10001EA
:1003D00038BF491E14F0004F04D05242C3F100034D
:1003E00038BF5B1E10BD13B540424FF0000070EBEC
:1003F0000104B8BF012001F0004100281CBF6FF0CC
:1004000000414FF0FF30AFF300801CBD40EA010314
:10041000024630B59B0710D14FF0013400E008C20E
:1004200008C91D1B9D4315EAC41FF8D013F0FF0136
:1004300002F8011B0DD01B0AF8E711F8013B002B55
:1004400002F8013B05D011F8013B002B02F8013BFB
:10045000F3D130BD10B5431C02E010F8011B71B19F
:100460008107FAD14FF0013202C88C1A8C4314EA8A
:10047000C211F9D0C01A0A0603D0C01E10BDC01A9E
:1004800010BD0A0401D0801E10BD0902FCD0401E20
:1004900010BD032A40F2308010F0030C00F01580EC
:1004A00011F8013BBCF1020F624498BF11F801CB77
:1004B00000F8013B38BF11F8013BA2F1040298BFDC
:1004C00000F801CB38BF00F8013B11F0030300F046
:1004D0002580083AC0F0088051F8043B083A51F8EA
:1004E00004CBA0E80810F5E7121D5CBF51F8043BEF
:1004F00040F8043BAFF30080D20724BF11F8013B62
:1005000011F801CB48BF11F8012B24BF00F8013BC3
:1005100000F801CB48BF00F8012B704710B5203A16
:10052000C0F00B80B1E81850A0E81850B1E818509E
:10053000A0E81850203ABFF4F5AF5FEA027C24BF70
:10054000B1E81850A0E8185044BF18C918C0BDE859
:1005500010405FEA827C24BF51F8043B40F8043B22
:1005600008BF7047D20728BF31F8023B48BF11F8D7
:10057000012B28BF20F8023B48BF00F8012B704731
:1005800002F0FF0343EA032242EA024200F024B8E9
:100590004FF000020429C0F0128010F0030C00F0AC
:1005A0001B80CCF1040CBCF1020F18BF00F8012B2A
:1005B000A8BF20F8022BA1EB0C0100F00DB85FEAF8
:1005C000C17C24BF00F8012B00F8012B48BF00F8C4
:1005D000012B70474FF0000200B513469446964633
:1005E000203922BFA0E80C50A0E80C50B1F1200146
:1005F000BFF4F7AF090728BFA0E80C5048BF0CC0F4
:100600005DF804EB890028BF40F8042B08BF704751
:1006100048BF20F8022B11F0804F18BF00F8012BC3
:10062000704770477047704710B500F009F80068D0
:1006300010BD10B5044600F003F8046010BD0000C2
:1006400000487047400400200048704740040020E4
:100650007546FFF7F9FFAE4605006946534620F0A0
:100660000700854618B020B5FFF70CFEBDE8204016
:100670004FF000064FF000074FF000084FF0000B5E
:10068000AC46ACE8C009ACE8C009ACE8C009ACE8CD
:10069000C00921F007018D46704710B50446AFF33D
:1006A00000802046BDE81040FFF7D7BD0149182063
:1006B000ABBEFEE7260002007047000082B001904A
:1006C00042F20030C4F2010000900099486820F422
:1006D000403048600198426800994868104348607B
:1006E00001980168486820F48070486001980168AA
:1006F0000269486840EA0220486001980168486839
:1007000020F0407048600198016882684868104392
:10071000486001980168886820F40060886001984A
:100720000168C2688868104388600198806A012166
:10073000C0F60071884219D0FFE701980168886807
:1007400020F07060886001980168826A88681043B0
:10075000886001980168886820F04050886001989E
:100760000168C26A8868104388600CE001980168DB
:10077000886820F07060886001980168886820F0BF
:1007800040508860FFE701980168886820F0020007
:1007900088600198027E0168886840EA42008860AB
:1007A000019890F82000C8B1FFE7019801684868F7
:1007B00040F40060486001980168486820F4604097
:1007C000486001980168426A4EF20000CFF6FF705F
:1007D00000EB423248681043486006E00198016827
:1007E000486820F400604860FFE701980168C86A23
:1007F00020F47000C86201980168C2690020CFF639
:10080000F07000EB0252C86A1043C8620198016898
:10081000886820F400708860019890F830200168A2
:10082000886840EA4220886001980168886820F45E
:1008300080608860019801684269886840EA822087
:10084000886002B07047000080B50020C4F202004A
:100850001021012203F048FA80BD000080B500207D
:10086000C4F202001021002203F03EFA80BD000015
:100870007047000080B540F20040C4F2020001223F
:10088000114603F031FA80BD80B540F20040C4F259
:1008900002000121002203F027FA80BD704700000A
:1008A00080B582B0ADF80600FFE7BDF80600411E36
:1008B000ADF8061028B1FFE74FF47A7000F004F8A5
:1008C000F3E702B080BD000086B0ADF8160000204E
:1008D000049003900290019000904EF21400CEF22A
:1008E000000000680090BDF81600C0EB0010400149
:1008F00004904EF21800CEF2000000680390FFE76B
:100900004EF21800CEF2000000680290029803999F
:1009100088421ED0FFE702980399884207D2FFE77A
:1009200003980299411A01980844019008E0009840
:100930000299401A03990144019808440190FFE785
:100940000298039001980499884201D3FFE701E0DF
:10095000FFE7D5E706B0704780B582B000208DF87C
:100960000700FFF785FFFFF799FF13F0F5F8014641
:100970009DF8070008438DF8070013F0B5F901460C
:100980009DF8070008438DF807009DF8070002B0A6
:1009900080BD000080B588B00790069105920020C8
:1009A000009004900390FFF759FF922000F006F9A1
:1009B000122003A90191062200F0CCF8FFF744FFB2
:1009C0009DF80C009DF80D1040EA0120ADF80A00DA
:1009D000BDF90A0000EE100AB8EEC00A40F20000AD
:1009E000C2F2000090ED001A20EE010A069981ED96
:1009F000000A9DF80E109DF80F2041EA0221ADF883
:100A00000A10BDF90A1000EE101AB8EEC00A90EDF7
:100A1000001A20EE010A069981ED010A9DF81010D6
:100A20009DF8112041EA0221ADF80A10BDF90A1023
:100A300000EE101AB8EEC00A90ED001A20EE010A7E
:100A4000069880ED020AFFF71FFF0098019908221F
:100A500000F080F8FFF70EFF9DF80C000F2844D13E
:100A6000FFE79DF80E009DF80F1040EA0120ADF859
:100A70000A00BDF90A0000EE100AB8EEC00A40F202
:100A80000400C2F2000090ED001A20EE010A07995E
:100A900081ED000A9DF810109DF8112041EA022115
:100AA000ADF80A10BDF90A1000EE101AB8EEC00A2F
:100AB00090ED001A20EE010A079981ED010A9DF8D8
:100AC00012109DF8132041EA0221ADF80A10BDF979
:100AD0000A1000EE101AB8EEC00A90ED001A20EECF
:100AE000010A079880ED020AFFE7FFF7B7FEA22090
:100AF00000F064F8222003A9022200F02BF8FFF78F
:100B0000A3FE9DF80C009DF80D10C00040EA5110A6
:100B1000ADF80A00BDF90A00B0F5806F07DBFFE70A
:100B2000BDF80A00A0F50060ADF80A00FFE7BDF9C6
:100B30000A0000EE100AB8EEC00AB4EE001A20EE69
:100B4000010AB3EE071A30EE010A059880ED000A9B
:100B500008B080BD80B584B08DF80F0002918DF88B
:100B600007209DF80F0040F0800000F027F8FFE715
:100B70009DF8070070B1FFE7552000F01FF80299BB
:100B800008700298013002909DF8070001388DF836
:100B90000700EDE704B080BD80B582B08DF8070096
:100BA00000919DF8070040F0800000F007F8552004
:100BB00000F004F80099087002B080BD80B582B0E2
:100BC0008DF8070069464FF47A70086042F6983055
:100BD000C2F200000DF107010DF10602012304F03D
:100BE000FFFA9DF8060002B080BD000080B582B01B
:100BF0008DF807008DF806109DF80700FFF7DEFF5F
:100C00009DF80600FFF7DAFF02B080BD81B00090CA
:100C10000098006841F20041C4F20001884201D10D
:100C2000FFE7FFE701B0704780B58AB009900998E7
:100C3000006844F60001C4F2000188424ED1FFE78B
:100C400042F6F850C2F200000068006800F010019F
:100C50000020B0EB111F40D0FFE70020ADF82200CC
:100C6000FFE70020079042F6F850C2F2000001684A
:100C7000096807910068406807900798FFE742F607
:100C8000F850C2F2000001680968ADF8221001684E
:100C90004968ADF8221005F049FB42F67820C2F20F
:100CA00000000068406813280BD1FFE741F6C840F8
:100CB000C2F2000042F22C21C2F200010AF0BEF89A
:100CC000FFE742F6F850C2F2000041F6C841C2F216
:100CD0000001252205F0F0FFFFE7FFE70998006813
:100CE00041F20041C4F2010188423DD1FFE742F6E2
:100CF0004060C2F200000068006800F010010020AF
:100D0000B0EB111F2FD0FFE7FFE70020059042F660
:100D10004060C2F2000001680968059100684068FF
:100D200005900598FFE742F64060C2F2000003908C
:100D300005F0FCFA42F6D820C2F2000000684068D4
:100D4000C0F1FF008DF81B009DF81B1041F64030EC
:100D5000C2F200000490FFF71BFC03980499FF22E5
:100D600005F0AAFFFFE7FFE70998006841F20001DC
:100D7000C4F2010188422BD1FFE742F6B050C2F223
:100D800000000068006800F010010020B0EB111FA7
:100D90001DD0FFE742F6B050C2F2000042F28011CF
:100DA000C2F200010191102205F05EFA019842F2B0
:100DB000CC11C2F2000102910DF0E0FE029991F80F
:100DC0003400C0F3C002086B10440863FFE7FFE77C
:100DD0000AB080BDFFE7FEE780B542F64000C2F2F0
:100DE000000001F091FC80BD80B542F66800C2F2BF
:100DF000000001F089FC80BD80B58EB00C90002011
:100E000003908DF814008DF815008DF816008DF8FC
:100E100017008DF810008DF811008DF812008DF874
:100E200013008DF82C008DF82D008DF82E008DF814
:100E30002F008DF8280008218DF829108DF82A0040
:100E40008DF82B008DF824008DF825008DF82600F4
:100E50008DF827008DF820008DF821008DF82200F4
:100E60008DF823008DF81C008DF81D008DF81E00F4
:100E70008DF81F008DF818008DF819108DF81A00E4
:100E80008DF81B000C9808F04DF820B9FFE7002002
:100E90008DF837006BE00C9808F0A6F820B9FFE752
:100EA00000208DF8370062E00C982021232205AB4A
:100EB00008F010F90C982421272204AB08F00AF955
:100EC0000C980021019103220BAB08F003F90C9858
:100ED0000421009107220AAB08F0FCF80C980821C5
:100EE0000B2209AB08F0F6F80C981021132208AB7E
:100EF00008F0F0F80C981421172207AB08F0EAF874
:100F00000C9818211B2206AB08F0E4F8009A0C9804
:100F1000602108F0C1F80C9870210122029208F0BB
:100F2000BBF8019A0C982A2108F0B6F80C982921F0
:100F3000912208F0B1F8029A0C98282108F0ACF838
:100F4000019A0C982C2108F0A7F8029A0C982B21F2
:100F500008F0A2F80C9808F073F820B9FFE7002019
:100F60008DF8370003E001208DF83700FFE79DF88A
:100F700037000EB080BD000080B588B007900691A4
:100F8000002000908DF817008DF814000490039055
:100F90000290079807F0B0FF014600988DF8041002
:100FA0009DF80410B0EB911F6ED0FFE79DF8041080
:100FB0004FF0FF3000EB91106FF00201084207D1B3
:100FC000FFE70798902102AA0D2307F0F1FF0EE03A
:100FD0009DF804100220B0EB911F07D1FFE707989E
:100FE000942102AA0D2307F0E3FFFFE7FFE79DF836
:100FF0000400C0F3C100022811D1FFE706990220C6
:1010000008709DF808209DF809309DF80A009DF8A9
:101010000B1012F07DFF0699C1F801000CE0069953
:10102000012008709DF808009DF8091012F0AEFF2D
:101030000699C1F80100FFE79DF80C000699487178
:101040009DF80D00069988719DF80E000699C871EB
:101050009DF80F00069908729DF8100006994872D5
:101060009DF81100069988729DF812000699C872C1
:101070009DF81300069908739DF8140006994873AB
:1010800001208DF81700FFE79DF8170008B080BD1C
:1010900080B590B00E2003900F900B9001210E911F
:1010A00000200C900D9106900790089009900B90ED
:1010B0000A9042F64000C2F20000019006A9029197
:1010C00001F044F9019801F089FF0198022104918F
:1010D00001F066F8029903980F900B9042F66800B1
:1010E000C2F20000059001F031F9059801F076FF99
:1010F0000499059801F054F810B080BD84B00390B5
:10110000029102980178407840EA0120ADF806008B
:1011100002988178C07840EA0120ADF80400029876
:101120000179407940EA0120ADF802000298817906
:10113000C07940EA0120ADF80000BDF9060000EEDC
:10114000100AB8EEC00A9FED141A80EE010A039847
:1011500080ED000ABDF9040000EE100AB8EEC00AE6
:1011600080EE010A039880ED010ABDF9020000EE4D
:10117000100AB8EEC00A80EE010A039880ED020A58
:10118000039890ED010A90ED021A20EE010A80ED1D
:10119000030A04B0704700BF00007A4410B586B05F
:1011A0008C46864609980899CDF814E0ADF812C02F
:1011B000ADF81020ADF80E30ADF80C10ADF80A0007
:1011C0009DF811008DF802009DF810008DF80300C5
:1011D0009DF80F008DF804009DF80E008DF80500B5
:1011E0009DF80D008DF806009DF80C008DF80700A5
:1011F0009DF80B008DF808009DF80A008DF8090095
:101200000598BDF812100DF1020212F06BFE06B047
:1012100010BD000082B00090009908780138087075
:10122000009890F90000042806DCFFE700990020F0
:1012300008708DF8070003E001208DF80700FFE734
:101240009DF8070002B0704780B542F67820C2F2E0
:10125000000002F057F880BD80B542F65810C2F287
:10126000000002F04FF880BD80B542F6D820C2F2EF
:10127000000002F047F880BD80B542F69800C2F247
:10128000000002F03FF880BD80B542F6F800C2F2DF
:10129000000002F037F880BD80B542F6B810C2F207
:1012A000000002F02FF880BD80B542F63830C2F25F
:1012B000000002F027F880BD80B542F61820C2F287
:1012C000000002F01FF880BD82B001900198007804
:1012D00010384AF6AB21CAF6AA21A0FB011000097A
:1012E0000090009949F6FC40C0F60100405C01996D
:1012F000C8650098042807D3FFE70199086804220D
:1013000062F30900886506E00199086840F2FF323F
:1013100090438865FFE70198806D02B07047000038
:1013200086B0059000208DF813000598806A039020
:101330000598806910BBFFE70398029003281BD82B
:101340000299DFE801F0020D0218059890F82F00CD
:10135000C00720B1FFE701208DF81300FFE70CE084
:101360000598C06AB0F1C07F04D1FFE701208DF875
:101370001300FFE701E000E0FFE745E00598806922
:10138000B0F5005F25D1FFE70398019003281ED830
:101390000199DFE801F00206021101208DF8130027
:1013A00016E0059890F82F00C00720B1FFE7012054
:1013B0008DF81300FFE70BE00598C06AB0F1C07F1D
:1013C00004D1FFE701208DF81300FFE700E0FFE7FD
:1013D00019E003980090032804D3FFE7009803283E
:1013E00004D00EE001208DF813000BE0059890F872
:1013F0002F00C00720B1FFE701208DF81300FFE7A1
:1014000000E0FFE7FFE7FFE79DF8130006B0704735
:1014100084B00390029101920093039801680868D8
:1014200020F48020086000980399096848600398B8
:101430008068402809D1FFE701980399096888600E
:10144000029803990968C86008E00298039909683E
:101450008860019803990968C860FFE704B0704785
:1014600081B041F20400CEF20000006800900098C4
:1014700041F6C041C2F200010968884208D2FFE784
:1014800041F6C441C2F20001086801300860FFE77C
:10149000009841F6C041C2F20001086001B07047F7
:1014A00083B0029041F20400CEF200000068019087
:1014B000029841F6B041C2F2000109684843009029
:1014C000FFE741F20400CEF2000000680199401AE3
:1014D0000099884201D2FFE7F3E703B070470000AC
:1014E00080B584B0039041F20400CEF200000068A1
:1014F0000290029803990968401A00EE100AB8EEAB
:10150000400A41F6A840C2F2000090ED001AB8EE81
:10151000411A80EE010A8DED010A029803990860D4
:10152000FFF79EFF9DED010A04B080BD80B582B03B
:1015300000F082F842F2C000C2F200000168838825
:101540004FF47A7201FB023100EE101AB8EE401A25
:10155000C08800EE100AB8EEC00A9FED062A20EE01
:10156000020A30EE010A8DED010A9DED010A02B07A
:1015700080BD00BF6F12833A80B582B000F05CF886
:1015800042F2C001C2F20001086843F60952424328
:1015900088884FF47A73584300EB8210C988084456
:1015A0000021019100900098019902B080BD0000D7
:1015B00081B000904EF6FC51CEF20001086840F078
:1015C0008070086041F20401CEF200010020086042
:1015D00041F20002CEF20002116841F001011160F7
:1015E000009944F24022C0F20F024A4341F6A8415A
:1015F000C2F200010A600A6844F6D353C1F26203E2
:10160000A2FB0332920941F6AC43C2F200031A6016
:1016100009684DF68362C4F21B32A1FB0221890CDA
:1016200041F6B042C2F20002116041F6C441C2F27A
:101630000001086001B07047B0B586B041F2040007
:10164000CEF2000000680590FFF70AFF41F6C440A3
:10165000C2F2000001680598002302934FF0FF3C9E
:101660001A46E1FB0C0241F6B841C2F200010091BA
:101670004A6008600868496841F6A844C2F200045C
:101680002268FEF711FE029B02468C46009941F645
:10169000E040C2F20000C0F804C00260D1F800C00F
:1016A0004968D0F800E042682468AEFB04E502FB1C
:1016B0000452BCEB0E0C61EB020241F6E841C2F2AF
:1016C00000010391C1F800C04A60006842F2C00204
:1016D000C2F20002049210600868496841F6AC4208
:1016E000C2F2000201921268FEF7DEFDDDF804C0CE
:1016F000029B049A01460398918001684068928891
:10170000DCF800C002FB0CF28A1A60F1000041F61E
:10171000F041C2F200010A6048600868496841F679
:10172000B042C2F200021268FEF7BEFD0499C88002
:1017300006B0B0BD7047000080B582B042F6F03010
:10174000C2F20000009043F2BC01C2F200010DF0B1
:10175000BDFB8DF80700022002F0CEF800980DF0D6
:1017600097FC02B080BD000072B6FFE7FEE7000004
:1017700080B58AB0A820FFF71BFFFFF789FC42F66F
:10178000F030C2F20000FFF737FB42F28C71C2F278
:101790000001087042F66850C2F2000004F096F8AA
:1017A00042F64840C2F2000004F090F842F6B81049
:1017B000C2F20000019001F04BFD42F61820C2F287
:1017C0000000029001F044FD019801F02BFF029807
:1017D00001F028FF42F6B050C2F20000039004F07E
:1017E000A5FD03980268D16841F01001D16042F272
:1017F0009801C2F20001142205F05EFA42F6782048
:10180000C2F20000049001F023FD049801F00AFFE9
:1018100042F6F850C2F20000059004F087FD0598EA
:101820000268D16841F01001D16041F6C841C2F2AE
:101830000001252205F040FA42F6D820C2F200004D
:10184000069001F005FD42F63830C2F20000079024
:1018500001F0FEFC069801F0E5FE079801F0E2FEBB
:1018600042F64060C2F20000089004F05FFD089864
:101870000268D16841F01001D16041F64031C2F2F6
:101880000001FF2205F018FA40F63C01C4F2000105
:101890000991322008604FF4FA7001F0DDFF0999D8
:1018A000002008600AB080BD80B584B003908DED43
:1018B000020A03988069019001A8FFF711FE0399BD
:1018C00010EE100AC8619DED020A0399C868CB6941
:1018D0000A6A01EE103A20EE010A03EE102A33EEF6
:1018E000012A80EE020A01EE100A21EE031A81EEAF
:1018F000021A30EE010A10EE100AC8600398008E3A
:10190000032810DBFFE7039A02F13200D168D269A5
:1019100000EE102A00EE901A08F0E8FA039910EE93
:10192000100A486211E00399CB680A69C86900EEA1
:10193000103A01EE102A30EE410A01EE100A80EE54
:10194000010A10EE100A4862FFE70398B0F85C0045
:10195000032810DBFFE7039901F15E00CA69496AB9
:1019600000EE102A00EE901A08F0C0FA039910EE6B
:10197000100A886211E00399C8694B6ACA6A00EECE
:10198000103A01EE102A30EE410A01EE100A80EE04
:10199000010A10EE100A8862FFE70399D1F800C02F
:1019A0004A688868CB6800EE10CA02EE103A01EE71
:1019B000102A4A6A03EE102A21EE031A20EE020AC8
:1019C00030EE011A00EE100A886A02EE100A20EECC
:1019D000020A30EE010A10EE100AC1F888000398DE
:1019E000D0F88810D0F88C0000EE101A01EE100A22
:1019F000F1EE410A12F00EFF039910EE100AC1F841
:101A000088000399C86808610399486AC862039806
:101A1000D0F8880000EE100A04B080BD80B586B012
:101A200005908DED040A0391CDED020AADF8062074
:101A3000ADF8043004980599C1F88C00039880B182
:101A4000FFE7059868B1FFE703980068059908600B
:101A500003984068059948600398806805998860F4
:101A60000AE005990020086005994860059988609A
:101A70000599C1F88C00FFE7029805990862BDF846
:101A8000060005990886BDF804000599A1F85C00D8
:101A9000BDF80600032807DBFFE705983230BDF8E4
:101AA000061008F085FBFFE7BDF80400032807DBFC
:101AB000FFE705985E30BDF8041008F079FBFFE7FA
:101AC0000599002088610599C1F8880006B080BD9D
:101AD00041F60060C2F2000090ED690A7047000014
:101AE00041F60060C2F2000090ED680A7047000005
:101AF00041F60060C2F2000090ED6A0A70470000F3
:101B000041F60060C2F2000090ED6B0A70470000E1
:101B100085B00390029100200190FFE7039890F8B0
:101B20003C00012804D1FFE702208DF81300F7E004
:101B30000399012081F83C00FFE7FFE70298006865
:101B40000A281CD3FFE70298008800EB4000A0F1B0
:101B50001E01072000FA01F203980168C86890434B
:101B6000C86002998868098801EB41011E3900FAB2
:101B700001F203980168C8681043C86018E0029831
:101B8000008800EB4001072000FA01F20398016889
:101B900008699043086102998868098801EB41014E
:101BA00000FA01F203980168086910430861FFE731
:101BB0000298406806281BD8FFE70298406800EBAF
:101BC0008000411F1F2000FA01F203980168486B52
:101BD0009043486302990888496801EB81010539FF
:101BE00000FA01F203980168486B104348633DE036
:101BF000029840680C281CD8FFE70298406800EB68
:101C00008000A0F123011F2000FA01F2039801686F
:101C1000086B9043086302990888496801EB8101C9
:101C2000233900FA01F203980168086B1043086336
:101C30001BE00298406800EB8000A0F141011F20EA
:101C400000FA01F203980168C86A9043C8620299D9
:101C50000888496801EB8101413900FA01F20398D3
:101C60000168C86A1043C862FFE7FFE742F200302C
:101C7000C4F2010000900398006842F20001C4F22F
:101C8000010188420BD1FFE702980068122806D1B3
:101C9000FFE70099486840F480004860FFE7039838
:101CA000006842F20001C4F2010188422ED1FFE730
:101CB00002980068102805D0FFE7029800681128F4
:101CC00024D1FFE70099486840F40000486002987A
:101CD0000068102819D1FFE740F22410C2F200007A
:101CE00000684DF68361C4F21B31A0FB0110800C2B
:101CF00000EB800040000190FFE7019820B1FFE772
:101D0000019801380190F8E7FFE7FFE7FFE7039943
:101D1000002081F83C00FFE700208DF81300FFE76A
:101D20009DF8130005B0704781B0009000980068DE
:101D3000C06C01B07047000080B584B002900020F4
:101D40008DF80700029820B9FFE701208DF80F00F9
:101D500042E00298806A0121C0F60071884201D0F9
:101D6000FFE7FFE70298006C50B9FFE7029800F028
:101D700037F8029900204864029981F83C00FFE797
:101D80000298006CC006002817D4FFE70298006C88
:101D900040F0020020F48850029908640298FEF78F
:101DA0008DFC0299002048640298006C40F001000C
:101DB00020F002000299086403E001208DF807007A
:101DC000FFE7FFE70299002081F83C00FFE79DF85C
:101DD00007008DF80F00FFE79DF80F0004B080BDED
:101DE00080B58AB009900020089007900690059071
:101DF00004900998006842F20001C4F2010188428F
:101E000012D1FFE7FFE70020039043F64400C4F23D
:101E10000200016841F480710160006800F4807084
:101E200003900398FFE73AE00998006842F2002126
:101E3000C4F20101884231D1FFE7FFE700200290A0
:101E400043F64400C4F20200016841F4806101607D
:101E5000006800F4806002900298FFE7FFE700202E
:101E6000019043F63000C4F20200016841F0200105
:101E70000160006800F0200001900198FFE74FF436
:101E800080600490032005900020069041F20040FD
:101E9000C4F2020004A901F04BFDFFE7FFE70AB01E
:101EA00080BD000080B584B00290019100200090B8
:101EB0000298006880684005002816D5FFE7029860
:101EC00000688068C00500280FD5FFE70299086CFC
:101ED00040F020000864FFE70299002081F83C00F0
:101EE000FFE701208DF80F006DE001F015FF009075
:101EF000FFE702980068006800F00200022829D07D
:101F0000FFE70198013020B3FFE7019840B1FFE7F8
:101F100001F002FF0099401A0199884218D9FFE7A1
:101F200002980068006800F0020002280FD0FFE766
:101F30000299086C40F004000864FFE70299002051
:101F400081F83C00FFE703208DF80F003BE0FFE73E
:101F5000FFE7CEE7029801686FF01200086002996F
:101F6000086C40F40070086402980068806810F003
:101F7000405F24D1FFE70298007E00BBFFE7029894
:101F80000068C06A10F4700F07D0FFE7029800687D
:101F900080684005002812D4FFE70299086C20F4FD
:101FA000807008640298006CC004002806D4FFE723
:101FB0000299086C40F001000864FFE7FFE7002089
:101FC0008DF80F00FFE79DF80F0004B080BD000002
:101FD00084B0029000200190FFE7029890F83C0046
:101FE000012804D1FFE702208DF80F00D4E0029908
:101FF000012081F83C00FFE7FFE702980068806855
:10200000C007F0B9FFE702980168886840F0010056
:10201000886040F22410C2F2000000684DF683612F
:10202000C4F21B31A0FB0110800C00EB40000190BA
:10203000FFE7019820B1FFE7019801380190F8E728
:10204000FFE7029800688068C007002800F09580CC
:10205000FFE70298006C40F4807040F20161884311
:10206000029908640298006840684005002809D574
:10207000FFE70298006C40F4805020F40050029971
:102080000864FFE70298006CC004002806D5FFE74B
:102090000299486C20F00600486403E00299002091
:1020A0004864FFE7FFE70299002081F83C00FFE762
:1020B00042F20030C4F201000090029801686FF013
:1020C0002200086000984068C006E8BBFFE702985D
:1020D000006842F20001C4F20101884224D0FFE707
:1020E0000298006842F20011C4F20101884208D14E
:1020F000FFE742F20430C4F201000068C00698B164
:10210000FFE70298006842F20021C4F20101884210
:1021100019D1FFE742F20430C4F20100006800F078
:102120001F000F280FD8FFE702980068806810F0A2
:10213000405F07D1FFE702980168886840F080405F
:102140008860FFE7FFE717E00298006842F20001AD
:10215000C4F2010188420ED1FFE70298006880684E
:1021600010F0405F07D1FFE702980168886840F0EF
:1021700080408860FFE7FFE70AE00299086C40F0C2
:10218000100008640299486C40F001004864FFE7C1
:1021900000208DF80F00FFE79DF80F0004B0704796
:1021A00084B002900191029890F820008DF803000D
:1021B0009DF80300012805D0FFE79DF803000228E1
:1021C0000AD1FFE7019A0298016848691043486103
:1021D00000208DF80F0008E00299486A40F4802042
:1021E000486201208DF80F00FFE79DF80F0004B052
:1021F0007047000088B006900591049203930698FA
:1022000090F820008DF8070006980068806800901C
:102210000598806808B9FFE700E0FFE79DF8070030
:10222000012806D0FFE79DF80700022840F08080D3
:10223000FFE79DF80300400700280CD4FFE79DF856
:1022400003000007002806D4FFE79DF80300C0063E
:10225000002864D5FFE70098C0F30160029002995E
:1022600001208840039908600598806868B9FFE7F5
:1022700005980168C06840EA415006990968029AC9
:1022800001EB0211C1F880010EE005994A688868E7
:10229000C96840EAC200084306990968029A01EB3E
:1022A0000211C1F88001FFE70598006906990968E5
:1022B000029A01EB0211C1F884010598007D012802
:1022C0000CD1FFE706980068029900EB0111D1F8E4
:1022D000840140F48070C1F88401FFE704984068ED
:1022E00006990968029A01EB0211C1F88C01049861
:1022F000006806990968029A01EB0211C1F8880189
:1023000006980068029900EB0111D1F8800140F0B5
:102310000100C1F8800100208DF81F0011E006992E
:10232000486A40F40010486201208DF81F0008E060
:102330000699486A40F48020486201208DF81F0009
:10234000FFE79DF81F0008B07047000086B00490BA
:102350000391049890F820008DF803009DF8030085
:10236000012806D0FFE79DF80300022840F0B08066
:10237000FFE746F20040C4F2000001900199D1F855
:10238000000240F00100C1F800020199D1F80002FA
:1023900020F47C50C1F800020398426A0199D1F8F8
:1023A000000240EA0220C1F800020398406900F0F0
:1023B0001F01012088400290029A0199D1F81C0265
:1023C0009043C1F81C020398C069F0B9FFE7029A74
:1023D0000199D1F80C029043C1F80C02039A90883D
:1023E000D168526940EA0140019901EBC201C1F88C
:1023F0004002039A10889168526940EA01400199AD
:1024000001EBC201C1F84402FFE70398C06901284B
:102410001ED1FFE7029A0199D1F80C021043C1F8CE
:102420000C02039A90881168526940EA01400199B0
:1024300001EBC201C1F84002039A90899168526988
:1024400040EA0140019901EBC201C1F84402FFE7F3
:102450000398806940B9FFE7029A0199D1F8040214
:102460009043C1F8040207E0029A0199D1F80402EE
:102470001043C1F80402FFE70398006940B9FFE781
:10248000029A0199D1F814029043C1F8140207E0AE
:10249000029A0199D1F814021043C1F81402FFE71F
:1024A0000398006A012808D1FFE7029A0199D1F840
:1024B0001C021043C1F81C02FFE70199D1F8000289
:1024C00020F00100C1F8000200208DF8170008E09C
:1024D0000499486A40F48020486201208DF8170072
:1024E000FFE79DF8170006B07047000081B000902C
:1024F00001B0704786B00490039102920193049852
:1025000090F820008DF803009DF80300012806D004
:10251000FFE79DF80300022840F0E880FFE70398FA
:1025200080B9FFE704980068C068800748B9FFE7F2
:102530000499486A40F40010486201208DF81700A1
:10254000DDE00FE0049800680069800748B9FFE704
:102550000499486A40F40010486201208DF8170081
:10256000CDE0FFE704980068039900EB0110D0F874
:10257000B00100F00400029988600298806858B9A0
:10258000FFE704980068039900EB0110D0F8B00150
:10259000400D029908600AE004980068039900EB76
:1025A0000110D0F8B001C00802994860FFE7049814
:1025B0000068039900EB0110D0F8B00100F00200B0
:1025C0000299C86004980068039900EB0110D0F8E4
:1025D000B40100F00F00082804D3FFE70299082097
:1025E00008610BE004980068039900EB0110D0F833
:1025F000B40100F00F0002990861FFE70498006839
:10260000039900EB0110D0F8B40180B2000A0299DE
:10261000886104980068039900EB0110D0F8B401B8
:10262000000C0299486104980068039900EB0110BE
:10263000D0F8B8010199087004980068039900EB7C
:102640000110D0F8B801000A019948700498006898
:10265000039900EB0110D0F8B801000C01998870C3
:1026600004980068039900EB0110D0F8B801000E3F
:102670000199C87004980068039900EB0110D0F824
:10268000BC010199087104980068039900EB0110DE
:10269000D0F8BC01000A01994871049800680399B8
:1026A00000EB0110D0F8BC01000C0199887104986E
:1026B0000068039900EB0110D0F8BC01000E0199ED
:1026C000C871039838B9FFE704980168C86840F0FA
:1026D0002000C86006E004980168086940F0200006
:1026E0000861FFE700208DF8170008E00499486AA8
:1026F00040F48020486201208DF81700FFE79DF824
:10270000170006B07047000080B58AB0099000201D
:102710000890099800684069079009980068406827
:102720000690099800688068059009980068C0685C
:10273000049009980068006903900998006880690E
:1027400002909DF81C00C007002800F09480FFE76D
:102750009DF81400C00758B3FFE7099801680120ED
:1027600088609DF814008007002804D5FFE70998C9
:1027700000F07EFC1BE09DF814004007002805D502
:10278000FFE7089840F4006008900FE09DF81400FF
:102790000007002805D5FFE7089840F4805008900E
:1027A00003E0099800F060FCFFE7FFE7FFE7FFE7C1
:1027B0009DF81500C00760B3FFE7099801684FF462
:1027C000807088609DF815008007002804D5FFE719
:1027D000099800F055FC1BE09DF815004007002803
:1027E00005D5FFE7089840F4005008900FE09DF8E9
:1027F00015000007002805D5FFE7089840F4804041
:10280000089003E0099800F037FCFFE7FFE7FFE7D7
:10281000FFE79DF81600C00760B3FFE7099801685D
:102820004FF4803088609DF816008007002804D59A
:10283000FFE7099800F02CFC1BE09DF8160040070C
:10284000002805D5FFE7089840F4004008900FE005
:102850009DF816000007002805D5FFE7089840F40A
:102860008030089003E0099800F00EFCFFE7FFE7D6
:10287000FFE7FFE7FFE79DF81C000007002810D5E1
:10288000FFE79DF81000C006002809D5FFE708986B
:1028900040F400700890099801681020C860FFE7B4
:1028A000FFE79DF81C00400700280FD5FFE79DF8C3
:1028B00010000007002808D5FFE7099801680820E4
:1028C000C860099800F0CCFAFFE7FFE79DF81C000C
:1028D000800700280BD5FFE709980068C0688007CB
:1028E00020B1FFE7099800F0BFFAFFE7FFE79DF886
:1028F0001C004006002810D5FFE79DF80C00C0061C
:10290000002809D5FFE7089840F4806008900998EE
:10291000016810200861FFE7FFE79DF81C008006B2
:1029200000280FD5FFE79DF80C000007002808D508
:10293000FFE70998016808200861099800F042FB48
:10294000FFE7FFE79DF81C00C00600280BD5FFE756
:10295000099800680069800720B1FFE7099800F036
:1029600035FBFFE7FFE79DF81E00800700280FD525
:10297000FFE79DF81800C006002808D5FFE7099872
:10298000016810204860099800F024FBFFE7FFE78A
:102990009DF81E00C00778B1FFE79DF818000007FA
:1029A000002808D5FFE709980168082048600998C1
:1029B00000F072FBFFE7FFE79DF81D00000600280E
:1029C00040F18D80FFE79DF818004007002840F196
:1029D0008180FFE79DF81D00C00750B1FFE79DF81B
:1029E0000800C00728B1FFE7089840F001000890F0
:1029F000FFE79DF81D00800700280BD5FFE79DF835
:102A000008008007002805D5FFE7089840F002007D
:102A10000890FFE79DF81D00400700280BD5FFE751
:102A20009DF808004007002805D5FFE7089840F00A
:102A300004000890FFE79DF81D000007002848D516
:102A4000FFE79DF8080010F0700F42D0FFE70298F2
:102A500000F0700001460191102814D0FFE70198A2
:102A6000202815D0FFE70198302816D0FFE70198FD
:102A7000402817D0FFE70198502818D0FFE70198A9
:102A8000602819D01DE0089840F00800089019E06F
:102A9000089840F01000089014E0089840F02000DA
:102AA00008900FE0089840F0400008900AE008986D
:102AB00040F08000089005E0089840F4807008908D
:102AC00000E0FFE709980168886920F070008861DC
:102AD000FFE7FFE70998016804204860FFE70898CE
:102AE00048B1FFE7089A0999486A10434862099873
:102AF000FFF7FCFCFFE70AB080BD000080B584B0A2
:102B00000290029820B9FFE701208DF80F00E0E065
:102B1000029890F8200020B9FFE7029800F0DEF854
:102B2000FFE702980168086840F00100086001F0C2
:102B3000F3F80190FFE7029800684068C007A8B961
:102B4000FFE701F0E9F80199401A0B280DD3FFE7E0
:102B50000299486A40F4003048620299052081F8E1
:102B6000200001208DF80F00B3E0E4E7029801682F
:102B7000086820F00200086001F0CEF80190FFE73D
:102B80000298006840688007002815D5FFE701F02B
:102B9000C3F80199401A0B280DD3FFE70299486A40
:102BA00040F4003048620299052081F8200001209D
:102BB0008DF80F008DE0E3E70298007E012807D131
:102BC000FFE702980168086840F08000086006E0AE
:102BD00002980168086820F080000860FFE702980A
:102BE000407E012807D1FFE702980168086840F09D
:102BF0004000086006E002980168086820F0400084
:102C00000860FFE70298807E012807D1FFE702985D
:102C10000168086840F02000086006E0029801683A
:102C2000086820F020000860FFE70298C07E0128B5
:102C300007D1FFE702980168086820F010000860DB
:102C400006E002980168086840F010000860FFE79D
:102C50000298007F012807D1FFE702980168086801
:102C600040F00800086006E002980168086820F05B
:102C700008000860FFE70298407F012807D1FFE7BE
:102C800002980168086840F00400086006E00298B5
:102C90000168086820F004000860FFE7029B1968DB
:102CA0005A689868D3F80CC040EA0C00D3F810C0FA
:102CB00040EA0C005B691843013A1043C86102996D
:102CC00000204862029A012182F820108DF80F003E
:102CD000FFE79DF80F0004B080BD000080B590B004
:102CE0000F9000200E900D900C900B900A900F9872
:102CF000006846F20041C4F20001884249D1FFE772
:102D000041F60050C2F20000016801310160006824
:102D1000012812D1FFE7FFE70020099043F64000A9
:102D2000C4F20200016841F000710160006800F027
:102D3000007009900998FFE7FFE7FFE7002008907F
:102D400043F63000C4F20200016841F0080101605E
:102D5000006800F0080008900898FFE703200A9038
:102D600002210B91002103910C910D9009200E90EE
:102D700040F60040C4F202000AA900F0D9FD039A0F
:102D800014200490052101F0A3F8049801F096F8AE
:102D900064E00F98006846F60001C4F20001884222
:102DA0005BD1FFE7FFE70020079043F64000C4F245
:102DB0000200016841F080610160006800F08060FD
:102DC00007900798FFE741F60050C2F20000016843
:102DD000013101600068012812D1FFE7FFE7002000
:102DE000069043F64000C4F20200016841F0007111
:102DF0000160006800F0007006900698FFE7FFE7AA
:102E0000FFE70020059043F63000C4F2020001689D
:102E100041F002010160006800F002000590059891
:102E2000FFE760200A9002200B90002001900C9098
:102E300003200D9009200E9040F20040C4F20200E1
:102E40000AA900F075FD019A40200290052101F0C9
:102E50003FF8029801F032F8FFE7FFE710B080BDBD
:102E600081B0009001B0704780B58CB00B900B988A
:102E7000002104AA02ABFFF73DFB0B9842F640018C
:102E8000C2F20001884255D1FFE704980190B0F5E5
:102E9000A17F3CD0FFE7019840F20221884210D088
:102EA000FFE7019840F2032188421CD0FFE7019818
:102EB000B0F5017F21D0FFE70198B0F5027F2ED059
:102EC00037E040F2A040C2F2000000F59D6002A988
:102ED00009F0DAF843F2D401C2F200010298039A31
:102EE0004A60086025E040F2A040C2F2000000F60F
:102EF000481002A909F058F81BE040F2A040C2F2C5
:102F0000000000F5E36002A909F0BEF811E040F20C
:102F1000A040C2F2000002A905F076FF09E040F2ED
:102F2000A040C2F2000000F52E7002A90BF0F0FFE5
:102F3000FFE7FFE70B9842F66801C2F20001884202
:102F40003ED1FFE704980090B0F5017F24D0FFE761
:102F5000009840F2053188420BD0FFE70098B0F5A9
:102F6000427F24D0FFE7009840F2046188420BD0F2
:102F700025E040F2A040C2F2000041F23041084496
:102F800002A911F019F81AE041F64040C2F200001F
:102F900002A9FEF7B3F812E040F2A040C2F200002E
:102FA00041F20821084402A908F0FEFF07E041F6BB
:102FB0009040C2F2000002A907F09CFDFFE7FFE786
:102FC0000CB080BD81B0009001B0704781B000901E
:102FD00001B0704781B0009001B0704780B584B0F7
:102FE0000290029890F8200001282FD1FFE7029963
:102FF000022081F8200002980168086820F0010092
:10300000086000F089FE0190FFE7029800684068C0
:10301000C007A8B1FFE700F07FFE0199401A0B2816
:103020000DD3FFE70299486A40F4003048620299E4
:10303000052081F8200001208DF80F000FE0E4E763
:103040000299002048628DF80F0008E00299486A52
:1030500040F40020486201208DF80F00FFE79DF842
:103060000F0004B080BD000081B0009001B0704737
:1030700081B0009001B0704781B0009001B07047FE
:1030800081B0009001B0704781B0009001B07047EE
:1030900081B0009001B0704781B0009001B07047DE
:1030A00080B582B00090009820B9FFE701208DF82C
:1030B000070011E00098407938B9FFE70099002037
:1030C0000871009800F00CF8FFE7009901204871A2
:1030D00000208DF80700FFE79DF8070002B080BDD3
:1030E00082B001900198006843F20001C4F202012D
:1030F000884212D1FFE7FFE70020009043F630003E
:10310000C4F20200016841F480510160006800F4DB
:10311000805000900098FFE7FFE702B07047000082
:1031200080B584B002900298806D019000F0F4FDAB
:103130000090029890F8350002280DD0FFE7029920
:1031400080204865FFE70299002081F83400FFE7FE
:1031500001208DF80F0055E002980168086820F002
:103160001600086002980168486920F080004861F4
:103170000298006C20B9FFE70298806C38B1FFE735
:1031800002980168086820F008000860FFE70298CC
:103190000168086820F001000860FFE702980068F5
:1031A0000068C007C8B1FFE700F0B6FD0099401AFB
:1031B000062811D3FFE702992020486502990320D1
:1031C00081F83500FFE70299002081F83400FFE71D
:1031D00003208DF80F0015E0E0E70298C16D3F2055
:1031E0008840019988600299012081F83500FFE745
:1031F0000299002081F83400FFE7FFE700208DF8F6
:103200000F00FFE79DF80F0004B080BD82B0009072
:10321000009890F83500022807D0FFE70099802039
:10322000486501208DF807000EE00099052081F81F
:10323000350000980168086820F001000860FFE789
:1032400000208DF80700FFE79DF8070002B07047E7
:1032500080B584B00290029820B9FFE701208DF874
:103260000F004BE0029890F83500022804D1FFE7E8
:1032700002208DF80F0041E002980168086820F0F4
:10328000010008600298016800200090086002991F
:103290000968486002990968886002990968C860ED
:1032A0000299096808610298016821204861029822
:1032B000FEF70AF80146009801910299C863029945
:1032C000086402994864029988640299C864029962
:1032D00008650299CA6D3F219140019A9160029957
:1032E0004865029981F83500FFE70299002081F8CE
:1032F0003400FFE700208DF80F00FFE79DF80F0076
:1033000004B080BD80B586B005900020039040F2E7
:103310002410C2F20000006848F2B511C1F64E3127
:10332000A0FB0110800A02900598806D0190019821
:103330000068049004980599C96DC84000070028EA
:103340001AD5FFE70598006800684007002812D5E5
:10335000FFE705980168086820F0040008600598F8
:10336000C16D08208840019988600599486D40F03A
:1033700001004865FFE7FFE704980599C96DC8405B
:10338000C007A0B1FFE70598006840690006002863
:103390000CD5FFE70598C16D012088400199886030
:1033A0000599486D40F002004865FFE7FFE7049883
:1033B0000599C96DC8404007002814D5FFE7059856
:1033C00000680068800700280CD5FFE70598C16DEC
:1033D00004208840019988600599486D40F00400F8
:1033E0004865FFE7FFE704980599C96DC840C00626
:1033F000002847D5FFE70598006800680007002807
:103400003FD5FFE70598C16D10208840019988607D
:10341000059800680068400300281AD5FFE7059862
:10342000006800680003002809D4FFE70598006CD5
:1034300020B1FFE70598016C8847FFE708E0059891
:10344000806C20B1FFE70598816C8847FFE7FFE7B4
:1034500016E0059800680068C005002807D4FFE75B
:1034600005980168086820F008000860FFE70598E3
:10347000006C20B1FFE70598016C8847FFE7FFE784
:10348000FFE7FFE704980599C96DC840800600284A
:1034900040F18D80FFE7059800680068C0060028AD
:1034A00040F18480FFE70598C16D20208840019994
:1034B0008860059890F83500052834D1FFE7059815
:1034C0000168086820F016000860059801684869DE
:1034D00020F0800048610598006C20B9FFE705984E
:1034E000806C38B1FFE705980168086820F0080093
:1034F0000860FFE70598C16D3F208840019988600A
:103500000599012081F83500FFE70599002081F831
:103510003400FFE70598006D20B1FFE70598016DC5
:103520008847FFE77BE005980068006840030028B3
:103530001AD5FFE70598006800680003002809D441
:10354000FFE70598406C20B1FFE70598416C88477C
:10355000FFE708E00598C06B20B1FFE70598C16B55
:103560008847FFE7FFE720E0059800680068C0058E
:10357000002811D4FFE705980168086820F01000C2
:1035800008600599012081F83500FFE705990020C2
:1035900081F83400FFE7FFE70598C06B20B1FFE733
:1035A0000598C16B8847FFE7FFE7FFE7FFE705984E
:1035B000406DA0B3FFE70598406DC00730B3FFE74B
:1035C0000599052081F8350005980168086820F004
:1035D00001000860FFE703980130039002998842D8
:1035E00001D9FFE707E0FFE7059800680068C0071A
:1035F0000028F0D1FFE70599012081F83500FFE7A9
:103600000599002081F83400FFE7FFE70598C06CBA
:1036100020B1FFE70598C16C8847FFE7FFE706B0D8
:1036200080BD000080B586B004900020039000F0BB
:1036300073FB0290049820B9FFE701208DF8170072
:10364000A3E00498406A08B1FFE7FFE7049902206D
:1036500081F83500FFE70499002081F83400FFE786
:1036600004980168086820F001000860FFE70498EA
:1036700000680068C00790B1FFE700F04DFB0299B9
:10368000401A06280AD3FFE70499202048650499C8
:10369000032081F835008DF8170076E0E7E70498FD
:1036A000006800680390039848F23F01CFF21001D0
:1036B00008400390049900914868D1F808C0CB688D
:1036C0000A6940EA0C00184310434A6910438A69AA
:1036D0001043CA691043096A0143039808430390E1
:1036E0000498406A042808D1FFE70499C86A096B66
:1036F0000143039808430390FFE70398049909687E
:1037000008600498006840690390039820F007005F
:1037100003900498416A0398084303900498406A10
:1037200004281AD1FFE70498816A0398084303909C
:103730000498C06A80B1FFE70498FDF7F1FD50B12D
:10374000FFE70499402048650499012081F835007D
:103750008DF8170019E0FFE7FFE70398049909685F
:1037600048610498FDF7B0FD01900498C16D3F20B9
:10377000884001998860049900204865049A0121D5
:1037800082F835108DF81700FFE79DF8170006B096
:1037900080BD000080B588B0069005910492039327
:1037A00000208DF80B000698806D0190FFE70698C9
:1037B00090F83400012804D1FFE702208DF81F00A3
:1037C00045E00699012081F83400FFE7FFE70698FD
:1037D00090F8350001282BD1FFE70699022081F8E7
:1037E000350006990020486506980599049A039BC0
:1037F000FDF70EFE0698C16D3F2088400199886054
:1038000006980168086840F0160008600698006C89
:1038100038B1FFE706980168086840F008000860C2
:10382000FFE706980168086840F00100086009E0B9
:10383000FFE70699002081F83400FFE702208DF8A9
:103840000B00FFE79DF80B008DF81F00FFE79DF8C8
:103850001F0008B080BD000080B584B0039000F068
:103860005BFA0290039801900198013048B1FFE79C
:1038700040F20440C2F2000001780198084401902F
:10388000FFE7FFE700F048FA0299401A01998842E1
:1038900001D2FFE7F6E704B080BD000080B582B03A
:1038A000ADF80600BDF80600022822D1FFE742F677
:1038B000F030C2F2000043F2BC01C2F200010BF092
:1038C00005FB8DF805009DF8050058B1FFE742F6AD
:1038D000F030C2F2000043F2BC01C2F200010BF072
:1038E000B7FBFFE742F6F030C2F200000BF0D0FB6E
:1038F000FFE702B080BD000080B582B0ADF80600E1
:1039000043F61440C4F201000068BDF806100842F6
:103910000CD0FFE7BDF8060043F61441C4F20101E4
:103920000860BDF80600FFF7B9FFFFE702B080BDF1
:103930008EB00D900C9100200A90099008900B9089
:10394000FFE70B980F2800F2CC81FFE70B990120CD
:1039500088400A900C9800680A99084009900998D4
:103960000A99884240F0B881FFE70C98406800F05F
:103970000300012807D0FFE70C98406800F003001F
:1039800002282FD1FFE70D98806808900B9841001E
:10399000032000FA01F10898884308900C98C06849
:1039A0000B99490000FA01F108980843089008981B
:1039B0000D9988600D98406808900B99012000FAD5
:1039C00001F10898884308900C984068C0F30010F3
:1039D0000B9900FA01F108980843089008980D998E
:1039E0004860FFE70C98406800F00300032818D0F7
:1039F000FFE70D98C06808900B984100032000FA7B
:103A000001F10898884308900C9880680B99490048
:103A100000FA01F108980843089008980D99C860C9
:103A2000FFE70C98406800F00300022826D1FFE76A
:103A30000D980B996FF0030202EA51010844006AE5
:103A400008900B9800F0070081000F2000FA01F1A8
:103A50000898884308900C9800690B9901F00701B9
:103A6000890000FA01F108980843089008980D9918
:103A70000B9B02EA530211440862FFE70D980068AD
:103A800008900B984100032000FA01F10898884340
:103A900008900C98406800F003000B99490000FA68
:103AA00001F108980843089008980D9908600C984F
:103AB00080798007002800F00E81FFE7FFE70020F3
:103AC000079043F64400C4F20200016841F48041CB
:103AD0000160006800F4804007900798FFE70B98AA
:103AE00020F0030043F60801C4F201014058089099
:103AF0000B9800F0030081000F2000FA01F10898F4
:103B0000884308900D980021C4F20201884203D135
:103B1000FFE7002006905EE00D9840F20041C4F2FD
:103B20000201884203D1FFE70120059050E00D9883
:103B300040F60001C4F20201884203D1FFE70220EF
:103B4000049042E00D9840F60041C4F20201884220
:103B500003D1FFE70320039034E00D9841F2000108
:103B6000C4F20201884203D1FFE70420029026E05C
:103B70000D9841F20041C4F20201884203D1FFE7EF
:103B80000520019018E00D9841F60001C4F20201F1
:103B9000884203D1FFE7062000900AE00D9941F624
:103BA0000042C4F202020820914208BF07200090A0
:103BB000FFE700980190FFE701980290FFE7029865
:103BC0000390FFE703980490FFE704980590FFE750
:103BD00005980690FFE70698C0B20B9901F0030123
:103BE000890000FA01F108980843089008980B9999
:103BF00021F0030143F60802C4F20102885043F6A3
:103C00000840C4F2010000680890099908988843A8
:103C100008900C988079C006002805D5FFE709991F
:103C2000089808430890FFE7089843F60841C4F253
:103C30000101086043F60C40C4F2010000680890DE
:103C400009990898884308900C9880798006002884
:103C500005D5FFE70999089808430890FFE70898F9
:103C600043F60C41C4F20101086043F60440C4F27B
:103C700001000068089009990898884308900C98FA
:103C800080798007002805D5FFE70999089808433F
:103C90000890FFE7089843F60441C4F20101086068
:103CA00043F60040C4F201000068089009990898A2
:103CB000884308900C988079C00728B1FFE70999DC
:103CC000089808430890FFE7089843F60041C4F2BB
:103CD00001010860FFE7FFE7FFE70B9801300B9059
:103CE0002FE60EB07047000082B00190ADF80210D0
:103CF0008DF801209DF8010028B1FFE7BDF8020012
:103D00000199886105E0BDF802000004019988610D
:103D1000FFE702B07047000049F2F040C2F2000035
:103D20000068704740F20440C2F20000027849F295
:103D3000F041C2F2000108681044086070470000BA
:103D400080B543F60041C4F20201086840F40070F7
:103D50000860086840F480600860086840F480707B
:103D60000860032000F0CEF80F2000F005F800F006
:103D700079F8002080BD000080B58CB00B90002049
:103D800004900390FFE70020009043F64000C4F247
:103D90000200016841F001010160006800F00100CB
:103DA00000900098FFE706A802A900F0E5F909983D
:103DB0000490049820B9FFE700F00EFA059004E0A3
:103DC00000F00AFA40000590FFE705984DF6836180
:103DD000C4F21B31A0FB01014FF0FF3000EB91401A
:103DE000039042F6D840C2F200004FF080410160DB
:103DF00040F2E731C16003994160002101618160B7
:103E0000816101F059FC8DF807009DF8070028BB7F
:103E1000FFE742F6D840C2F2000001F057FD8DF8EE
:103E200007009DF80700C0B9FFE71C2000F046F826
:103E30000B980F280CD8FFE70B991C20002200F0EC
:103E400047F80B9840F20841C2F20001086003E015
:103E500001208DF80700FFE7FFE7FFE79DF8070067
:103E60000CB080BD80B582B0FFE70020019043F622
:103E70004400C4F20200016841F48041016000681E
:103E800000F4804001900198FFE7FFE700200090D8
:103E900043F64000C4F20200016841F08051016025
:103EA000006800F0805000900098FFE76FF001007C
:103EB0000F21002200F00CF802B080BD80B582B066
:103EC0008DF807009DF907000BF03EFC02B080BDA5
:103ED00080B586B08DF817000491039200200290FF
:103EE0000BF04AFC02909DF917000190029804998A
:103EF000039A05F0C5FF014601980BF045FC06B09A
:103F000080BD000080B582B0019001980BF05EFC8E
:103F100002B080BD80B584B002900191029820B9B2
:103F2000FFE701208DF80F0021E1019843F60041E1
:103F3000C4F20201096801F00701884212D9FFE7C3
:103F4000019943F60040C4F202000170006800F0DD
:103F500007000199884204D0FFE701208DF80F0087
:103F600005E1FFE702980078800700282AD5FFE7DF
:103F7000029800784007002809D5FFE743F60801BA
:103F8000C4F20201086840F4E0500860FFE70298BC
:103F900000780007002809D5FFE743F60801C4F2BE
:103FA0000201086840F460400860FFE743F608013A
:103FB000C4F20201086820F0F000029A92681043EF
:103FC0000860FFE702980078C00700286ED0FFE77E
:103FD00002984068012811D1FFE743F60000C4F2BF
:103FE0000200006800F400310020B0EB514F04D112
:103FF000FFE701208DF80F00B9E02CE0029840683F
:10400000022805D0FFE702984068032811D1FFE796
:1040100043F60000C4F20200006800F000710020C6
:10402000B0EB516F04D1FFE701208DF80F009EE047
:1040300010E043F60000C4F20200006800F0020144
:104040000020B0EB510F04D1FFE701208DF80F00E5
:104050008DE0FFE7FFE743F60801C4F202010868BC
:1040600020F00300029A526810430860FFF754FEE4
:104070000090FFE743F60800C4F20200006800F079
:104080000C0002994968B0EB810F0ED0FFE7FFF7F3
:1040900043FE0099401A41F28931884204D3FFE778
:1040A00003208DF80F0062E0E4E7FFE7019843F694
:1040B0000041C4F20201096801F00701884212D2EE
:1040C000FFE7019943F60040C4F202000170006866
:1040D00000F007000199884204D0FFE701208DF825
:1040E0000F0044E0FFE702980078400700280CD555
:1040F000FFE743F60801C4F20201086820F4E0502B
:10410000029AD26810430860FFE70298007800071F
:1041100000280DD5FFE743F60801C4F20201086844
:1041200020F46040029A126940EAC2000860FFE78A
:1041300000F076F843F60801C4F202010968C9B23A
:104140000A0949F6E431C0F60101895CC84040F231
:104150002411C2F20001086040F20840C2F20000DF
:104160000068FFF709FE00208DF80F00FFE79DF8BB
:104170000F0004B080BD000082B001900091019951
:104180000F20086043F60800C4F20200016801F045
:104190000301019A5160016801F0F001019A9160F8
:1041A000016801F4E051019AD160006800F46040B8
:1041B000C0080199086143F60040C4F2020000689B
:1041C00000F007000099086002B0704740F2241028
:1041D000C2F200000068704780B5FFF7F7FF43F6B2
:1041E0000801C4F202010968C1F3822249F6F431E0
:1041F000C0F60101895CC84080BD000080B5FFF7B2
:10420000E5FF43F60801C4F20201096889B24A0BCE
:1042100049F6F431C0F60101895CC84080BD000058
:1042200080B586B00020059004900390029043F67C
:104230000800C4F20200006800F00C000146019181
:1042400040B1FFE7019804280AD0FFE70198082849
:104250000CD04FE042F20040C0F2F40002904FE078
:1042600041F60030C0F2B700029049E043F6040086
:10427000C4F20200016801F03F01059100684002AC
:10428000002813D5FFE743F60400C4F202000068DB
:10429000C0F3881041F60031C0F2B701A0FB010164
:1042A000059A0023FCF700F8049012E043F604009E
:1042B000C4F202000068C0F3881042F20041C0F26C
:1042C000F401A0FB0101059A0023FBF7EDFF049028
:1042D000FFE743F60400C4F20200006800F4403136
:1042E000022000EBD130039004980399B0FBF1F069
:1042F000029005E042F20040C0F2F4000290FFE7B5
:10430000029806B080BD000080B586B00490049885
:1043100020B9FFE701208DF8170050E304980078DA
:10432000C007002800F0A580FFE743F60800C4F2AC
:104330000200006800F00C00042813D0FFE743F6E9
:104340000800C4F20200006800F00C0008281ED12A
:10435000FFE743F60400C4F20200006840020028B0
:1043600015D5FFE743F60000C4F20200006800F430
:1043700000310020B0EB514F08D0FFE704984068AF
:1043800020B9FFE701208DF8170018E370E0FFE780
:1043900004984068B0F5803F09D1FFE743F600017B
:1043A000C4F20201086840F48030086020E00498FC
:1043B0004068B0F5A02F0DD1FFE743F60001C4F22D
:1043C0000201086840F480200860086840F48030EA
:1043D00008600CE043F60001C4F20201086820F412
:1043E00080300860086820F480200860FFE7FFE75D
:1043F000FFE704984068E8B1FFE7FFF78DFC039002
:10440000FFE743F60000C4F20200006800F4003148
:104410000020B0EB514F0CD1FFE7FFF77DFC039973
:10442000401A652804D3FFE703208DF81700C6E281
:10443000E7E71CE0FFF770FC0390FFE743F600009E
:10444000C4F20200006800F400310020B0EB514FCC
:104450000CD0FFE7FFF760FC0399401A652804D3EE
:10446000FFE703208DF81700A9E2E7E7FFE7FFE782
:10447000FFE7049800788007002840F19680FFE766
:1044800043F60800C4F20200006810F00C0F13D0CD
:10449000FFE743F60800C4F20200006800F00C00D9
:1044A00008282CD1FFE743F60400C4F2020000689C
:1044B0004002002823D4FFE743F60000C4F20200C4
:1044C000006800F002010020B0EB510F09D0FFE7B7
:1044D0000498C068012804D0FFE701208DF8170078
:1044E0006DE243F60001C4F20201086820F0F80012
:1044F000049A126940EAC2000860FFE754E0049899
:10450000C06870B3FFE70021C4F2472101200860B2
:10451000FFF702FC0390FFE743F60000C4F202003D
:10452000006800F002010020B0EB510F0CD1FFE752
:10453000FFF7F2FB0399401A032804D3FFE7032097
:104540008DF817003BE2E7E743F60001C4F20201F1
:10455000086820F0F800049A126940EAC200086076
:1045600021E00021C4F2472100200860FFF7D4FBBE
:104570000390FFE743F60000C4F20200006800F079
:1045800002010020B0EB510F0CD0FFE7FFF7C4FB96
:104590000399401A032804D3FFE703208DF817007E
:1045A0000DE2E7E7FFE7FFE7FFE704980078000781
:1045B00000284BD5FFE70498406918B3FFE740F6A1
:1045C0008061C4F2472101200860FFF7A5FB03903A
:1045D000FFE743F67400C4F20200006800F0020135
:1045E0000020B0EB510F0CD1FFE7FFF795FB0399CB
:1045F000401A032804D3FFE703208DF81700DEE1FB
:10460000E7E722E040F68061C4F24721002008601D
:10461000FFF782FB0390FFE743F67400C4F2020049
:10462000006800F002010020B0EB510F0CD0FFE752
:10463000FFF772FB0399401A032804D3FFE7032016
:104640008DF81700BBE1E7E7FFE7FFE70498007884
:104650004007002840F1CE80FFE700208DF80700DA
:1046600043F64000C4F202000068C000002815D4E0
:10467000FFE7FFE70020009043F64000C4F202008D
:10468000016841F080510160006800F080500090A6
:104690000098FFE701208DF80700FFE747F20000D0
:1046A000C4F200000068C005002822D4FFE747F2EA
:1046B0000001C4F20001086840F480700860FFF750
:1046C0002BFB0390FFE747F20000C4F200000068F4
:1046D000C00500280CD4FFE7FFF71EFB0399401A22
:1046E000032804D3FFE703208DF8170067E1EAE70A
:1046F000FFE7FFE704988068012809D1FFE743F648
:104700007001C4F20201086840F0010008601FE077
:104710000498806805280DD1FFE743F67001C4F2C4
:104720000201086840F004000860086840F00100D9
:1047300008600CE043F67001C4F20201086820F042
:1047400001000860086820F004000860FFE7FFE748
:10475000FFE704988068F8B1FFE7FFF7DDFA039000
:10476000FFE743F67000C4F20200006800F00201A7
:104770000020B0EB510F0ED1FFE7FFF7CDFA039900
:10478000401A41F28931884204D3FFE703208DF8B3
:10479000170014E1E5E71EE0FFF7BEFA0390FFE71C
:1047A00043F67000C4F20200006800F0020100202D
:1047B000B0EB510F0ED0FFE7FFF7AEFA0399401AA6
:1047C00041F28931884204D3FFE703208DF81700B6
:1047D000F5E0E5E7FFE79DF80700012809D1FFE7CD
:1047E00043F64001C4F20201086820F080500860DE
:1047F000FFE7FFE704988069002800F0DC80FFE70E
:1048000043F60800C4F20200006800F00C0008281B
:1048100000F08580FFE70498806902285CD1FFE7FB
:104820006021C4F2472100200860FFF775FA039069
:10483000FFE743F60000C4F20200006800F00071D8
:104840000020B0EB516F0CD0FFE7FFF765FA03993A
:10485000401A032804D3FFE703208DF81700AEE0C9
:10486000E7E70499C869D1F820C04B6A8A6A40EA30
:104870000C0040EA8310D2034FF6FF739A43A2F56F
:1048800080321043C96A40EA016043F60401C4F271
:10489000020108606021C4F2472101200860FFF78F
:1048A0003BFA0390FFE743F60000C4F20200006801
:1048B00000F000710020B0EB516F0CD1FFE7FFF763
:1048C0002BFA0399401A032804D3FFE703208DF83D
:1048D000170074E0E7E721E06021C4F247210020DF
:1048E0000860FFF719FA0390FFE743F60000C4F2EF
:1048F0000200006800F000710020B0EB516F0CD096
:10490000FFE7FFF709FA0399401A032804D3FFE7EA
:1049100003208DF8170052E0E7E7FFE74AE004982C
:104920008069012804D1FFE701208DF8170046E0D7
:1049300043F60400C4F20200006802900498806903
:10494000012831D0FFE7029800F480000499C9697A
:10495000884229D1FFE7029800F03F000499096AD4
:10496000884221D1FFE7029847F6C07108400499B8
:10497000496AB0EB811F17D1FFE7029800F440307D
:104980000499896AC9034FF6FF729143A1F58031FA
:10499000884209D1FFE7029800F070600499C96A63
:1049A000B0EB016F04D0FFE701208DF8170006E09F
:1049B000FFE7FFE7FFE700208DF81700FFE79DF80E
:1049C000170006B080BD000081B00090009890F8FC
:1049D000510001B07047000080B584B00290029889
:1049E00020B9FFE701208DF80F0071E00298406ABE
:1049F00060B9FFE702984068B0F5827F01D1FFE718
:104A000003E002990020C861FFE705E00299002059
:104A1000086102994861FFE70299002088620298C4
:104A200090F8510040B9FFE70299002081F850004A
:104A3000029800F051F8FFE70299022081F8510036
:104A400002980168086820F040000860029A01920C
:104A500011685068D2F808C0D36800F482700CF472
:104A6000044C604403F400631844136903F0020328
:104A70001844536903F001031844936903F4007365
:104A80001844D36903F038031844136A03F0800311
:104A90001843926A02F4005210430860029A508B45
:104AA00000F004001168526A02F0100210444860DD
:104AB00002980168C86920F40060C861029900206A
:104AC0004865029A012182F851108DF80F00FFE726
:104AD0009DF80F0004B080BD80B592B01190002009
:104AE00010900F900E900D900C901198006843F26A
:104AF0000001C4F20101884240F0B680FFE7FFE701
:104B000000200B9043F64400C4F20200016841F417
:104B100080510160006800F480500B900B98FFE713
:104B2000FFE700200A9043F63000C4F2020001685B
:104B300041F002010160006800F002000A900A984A
:104B4000FFE7FFE70020099043F63000C4F20200BF
:104B5000016841F001010160006800F00100099066
:104B60000998FFE718200C90022001900D90012079
:104B700002900E90032003900F9005200490109057
:104B800040F20040C4F202000CA90591FEF7D0FEED
:104B9000DDF804C0029B039A049805994FF0800E3B
:104BA000CDF830E0CDF834C00E930F921090002075
:104BB000C4F20200FEF7BCFE42F69800C2F200000A
:104BC000069046F24041C4F2020101604FF0C0611C
:104BD000416000218160C1604FF4806202614161E7
:104BE0008161C1614FF4403202624162FEF71AFDF9
:104BF00018B1FFE7FCF7B8FDFFE7FFE7119842F6B1
:104C00009801C2F20001C16411988863FFE742F67F
:104C1000F800C2F20000009046F25841C4F20201CE
:104C200001604FF0C0614160402181600021C1609E
:104C30004FF48062026141618161C1614FF40032D1
:104C400002624162FEF7EEFC18B1FFE7FCF78CFD53
:104C5000FFE7FFE7119842F6F801C2F20001816414
:104C600011988863FFE73EE01198006843F6000161
:104C7000C4F20001884235D1FFE7FFE70020089029
:104C800043F64000C4F20200016841F48041016033
:104C9000006800F4804008900898FFE7FFE70020D4
:104CA000079043F63000C4F20200016841F00201AF
:104CB0000160006800F0020007900798FFE74FF4DA
:104CC00060400C9002200D9000200E9003200F9069
:104CD0000520109040F20040C4F202000CA9FEF73B
:104CE00027FEFFE7FFE712B080BD000080B588B067
:104CF00006900591ADF812200393069890F85100A4
:104D0000012804D0FFE702208DF81F0011E105986B
:104D100020B1FFE7BDF8120020B9FFE701208DF8B0
:104D20001F0006E106984068B0F5827F16D1FFE7C4
:104D30000698806890B9FFE70699042081F8510031
:104D40000698059ABDF812300399EC46CCF800108D
:104D5000114600F045FA8DF81F00EAE0FEF7DCFF8F
:104D60000290FFE7069890F85000012804D1FFE771
:104D700002208DF81F00DCE00699012081F8500028
:104D8000FFE7FFE70699042081F85100069900200B
:104D900048650599069A9163BDF81210069A9187A5
:104DA000BDF81210069AD18706990863069988867D
:104DB0000699C8860699086406994864069880682A
:104DC000B0F5004F0DD1FFE706980168086820F0A4
:104DD0004000086006980168086820F48040086078
:104DE000FFE706980068006800F04000402807D000
:104DF000FFE706980168086840F040000860FFE798
:104E00000698C068D0BBFFE7FFE70698C08FA0B345
:104E1000FFE7069800688068C00778B1FFE706984A
:104E20000068007B0699896B08700699886B0130D1
:104E300088630699C88F0138C8871DE0FEF76CFFAC
:104E40000299401A0399884204D3FFE7039801307E
:104E500018B9FFE7039870B9FFE70699012081F8B8
:104E60005100FFE70699002081F85000FFE703207A
:104E70008DF81F005DE0FFE7C7E739E0FFE7069820
:104E8000C08FA0B3FFE7069800688068C00778B1BC
:104E9000FFE706980068C0680699896B0880069944
:104EA000886B023088630699C88F0138C8871DE077
:104EB000FEF732FF0299401A0399884204D3FFE7B4
:104EC0000398013018B9FFE7039870B9FFE7069916
:104ED000012081F85100FFE70699002081F8500079
:104EE000FFE703208DF81F0023E0FFE7C7E7FFE798
:104EF00006980399029A08F021F920B1FFE7069974
:104F000020204865FFE70699012081F85100FFE75E
:104F10000699002081F85000FFE70698406D20B107
:104F2000FFE701208DF81F0003E000208DF81F002F
:104F3000FFE79DF81F0008B080BD000080B588B075
:104F400006900591ADF812200393FEF7E5FE02905E
:104F5000BDF81200ADF80600069890F8510001283F
:104F600004D0FFE702208DF81F0034E1059820B13E
:104F7000FFE7BDF8120020B9FFE701208DF81F0000
:104F800029E1FFE7069890F85000012804D1FFE7D7
:104F900002208DF81F001EE10699012081F85000C3
:104FA000FFE7FFE70699032081F8510006990020EA
:104FB00048650599069A1163BDF81210069A918604
:104FC000BDF81210069AD1860699886306998887DB
:104FD0000699C88706994864069908640698806807
:104FE000B0F5004F0DD1FFE706980168086820F082
:104FF0004000086006980168086840F48040086036
:10500000FFE706980068006800F04000402807D0DD
:10501000FFE706980168086840F040000860FFE775
:105020000698C068B0F5006F51D1FFE70698406858
:1050300028B1FFE7BDF8060001280ED1FFE706986A
:105040000168006B0088C8600699086B023008632D
:105050000699C88E0138C886FFE7FFE70698C08E1C
:10506000A0B3FFE7069800688068800700280ED587
:10507000FFE706980168006B0088C8600699086B16
:10508000023008630699C88E0138C8861DE0FEF715
:1050900043FE0299401A0399884204D3FFE703981C
:1050A000013018B9FFE7039870B9FFE706990120AE
:1050B00081F85100FFE70699002081F85000FFE7D2
:1050C00003208DF81F0086E0FFE7C7E750E0069851
:1050D000406828B1FFE7BDF8060001280ED1FFE7C0
:1050E00006980168006B007808730699086B013018
:1050F00008630699C88E0138C886FFE7FFE706985F
:10510000C08EA0B3FFE7069800688068800700287B
:105110000ED5FFE706980168006B007808730699C2
:10512000086B013008630699C88E0138C8861DE0F7
:10513000FEF7F2FD0299401A0399884204D3FFE773
:105140000398013018B9FFE7039870B9FFE7069993
:10515000012081F85100FFE70699002081F85000F6
:10516000FFE703208DF81F0035E0FFE7C7E7FFE703
:1051700006980399029A08F053F820B1FFE70699C0
:1051800020204865FFE70698806870B9FFE7FFE7D1
:105190000020009006980068C0680090069800689B
:1051A000806800900098FFE7FFE70699012081F8EA
:1051B0005100FFE70699002081F85000FFE70698AC
:1051C000406D20B1FFE701208DF81F0003E00020B3
:1051D0008DF81F00FFE79DF81F0008B080BD00009C
:1051E00080B58CB0DDF838C00A9009910892ADF80E
:1051F0001E3001200390FEF78FFD04900A9890F86E
:1052000051008DF817000A9840680690BDF81E00FE
:10521000ADF81C009DF81700012812D0FFE7069892
:10522000B0F5827F09D1FFE70A98806828B9FFE7C7
:105230009DF81700042804D0FFE702208DF82F0006
:105240009BE1099838B1FFE7089820B1FFE7BDF866
:105250001E0020B9FFE701208DF82F008DE1FFE748
:105260000A9890F85000012804D1FFE702208DF839
:105270002F0082E10A99012081F85000FFE7FFE743
:105280000A9890F85100042805D0FFE70A990520F4
:1052900081F85100FFE70A990020486508990A9AA9
:1052A0009163BDF81E100A9AD187BDF81E100A9AA4
:1052B000918709990A9A1163BDF81E100A9AD1863E
:1052C000BDF81E100A9A91860A9908640A994864E2
:1052D0000A980068006800F04000402807D0FFE707
:1052E0000A980168086840F040000860FFE70A98E3
:1052F000C068B0F5006F40F08180FFE70A98406811
:1053000028B1FFE7BDF81C0001280ED1FFE70A987D
:105310000168006B0088C8600A99086B0230086356
:105320000A99C88E0138C886FFE7FFE70A98C18E40
:105330000120019039B9FFE70A98C08F002818BFF3
:1053400001200190FFE70198C007002855D0FFE732
:105350000A98006880688007002818D5FFE70A9837
:10536000C08EA0B1FFE70398012810D1FFE70A988B
:105370000168006B0088C8600A99086B02300863F6
:105380000A99C88E0138C88600200390FFE70A9862
:1053900000688068C007A8B1FFE70A98C08F88B18D
:1053A000FFE70A980068C0680A99896B08800A9923
:1053B000886B023088630A99C88F0138C88701203A
:1053C0000390FFE7FEF7A8FC0499401A0E99884263
:1053D00012D3FFE70E98013070B1FFE70A99012060
:1053E00081F85100FFE70A99002081F85000FFE79B
:1053F00003208DF82F00C0E098E782E00A9840680B
:1054000028B1FFE7BDF81C0001280ED1FFE70A987C
:105410000168006B007808730A99086B0130086313
:105420000A99C88E0138C886FFE7FFE70A98C18E3F
:105430000120009039B9FFE70A98C08F002818BFF3
:1054400001200090FFE70098C007002858D0FFE730
:105450000A98006880688007002818D5FFE70A9836
:10546000C08EA0B1FFE70398012810D1FFE70A988A
:105470000168006B007808730A99086B01300863B3
:105480000A99C88E0138C88600200390FFE70A9861
:1054900000688068C007A8B1FFE70A98C08F88B18C
:1054A000FFE70A980068C0680A99896B08700A9932
:1054B000886B013088630A99C88F0138C88701203A
:1054C0000390FFE7FEF728FC0499401A0E998842E2
:1054D00004D3FFE70E98013018B9FFE70E9870B9B2
:1054E000FFE70A99012081F85100FFE70A9900209F
:1054F00081F85000FFE703208DF82F003DE095E78D
:10550000FFE70A980E99049A07F08AFE68B1FFE750
:105510000A9920204865FFE70A99002081F8500089
:10552000FFE701208DF82F0027E00A98806870B906
:10553000FFE7FFE7002002900A980068C068029029
:105540000A980068806802900298FFE7FFE70A99CE
:10555000012081F85100FFE70A99002081F85000EE
:10556000FFE70A98406D20B1FFE701208DF82F007A
:1055700003E000208DF82F00FFE79DF82F000CB00E
:1055800080BD000081B0009001B0704781B00090F4
:1055900001B0704785B003900291FFE7039890F83F
:1055A0003C00012804D1FFE702208DF813007EE0C3
:1055B0000399012081F83C00FFE7FFE703990220EF
:1055C00081F83D00039800684068019003980068E6
:1055D00080680090019820F07000019002980168A6
:1055E000019808430190019803990968486003985D
:1055F00000680021C4F2010188423CD0FFE7039813
:105600000068B0F1804F36D0FFE70398006840F2A1
:105610000041C4F2000188422DD0FFE703980068E2
:1056200040F60001C4F20001884224D0FFE703984D
:10563000006840F60041C4F2000188421BD0FFE739
:105640000398006840F20041C4F20101884212D080
:10565000FFE70398006844F20001C4F201018842A8
:1056600009D0FFE70398006841F60001C4F2000189
:1056700088420ED1FFE7009820F080000090029849
:105680004168009808430090009803990968886071
:10569000FFE70399012081F83D00FFE7039900200F
:1056A00081F83C00FFE700208DF81300FFE79DF82C
:1056B000130005B07047000080B582B000900098DC
:1056C00020B9FFE701208DF807003FE0009890F82F
:1056D0003D0040B9FFE70099002081F83C000098A8
:1056E00000F038F8FFE70099022081F83D000099AA
:1056F00051F8040B08F0AEF90099012081F846003A
:10570000FFE70099012081F83E00009981F83F00F1
:10571000009981F84000009981F84100FFE7FFE718
:105720000099012081F84200009981F84300009916
:1057300081F84400009981F84500FFE700990120B5
:1057400081F83D0000208DF80700FFE79DF8070075
:1057500002B080BD80B58AB0099009980068002128
:10576000C4F2010188421BD1FFE7FFE70020089047
:1057700043F64400C4F20200016841F001010160F7
:10578000006800F0010008900898FFE719200490D5
:1057900005210022FEF79CFB0498FEF78FFB92E0A8
:1057A0000998006840F60001C4F2000188423FD128
:1057B000FFE7FFE70020079043F64000C4F2020035
:1057C000016841F004010160006800F004000790E6
:1057D0000798FFE742F65810C2F20000039046F225
:1057E000B801C4F2020101604FF080614160002104
:1057F0008160C1604FF4806202614FF400624261D7
:105800004FF400528261C16101624162FDF70AFFFB
:1058100018B1FFE7FBF7A8FFFFE7FFE7099842F69B
:105820005811C2F20001C16209988863FFE749E09C
:105830000998006841F20041C4F2000188421BD17E
:10584000FFE7FFE70020069043F64000C4F20200A5
:10585000016841F020010160006800F0200006901E
:105860000698FFE73720029005210022FEF730FB63
:105870000298FEF723FB24E00998006844F20041F7
:10588000C4F2010188421BD1FFE7FFE70020059029
:1058900043F64400C4F20200016841F400310160A3
:1058A000006800F4003005900598FFE7192001908A
:1058B00005210022FEF70CFB0198FEF7FFFAFFE737
:1058C000FFE7FFE7FFE70AB080BD000083B001906B
:1058D000019890F83D00012804D0FFE701208DF8E1
:1058E0000B006AE00199022081F83D0001980168EF
:1058F000C86840F00100C860019800680021C4F247
:10590000010188423CD0FFE701980068B0F1804F68
:1059100036D0FFE70198006840F20041C4F2000170
:1059200088422DD0FFE70198006840F60001C4F2DC
:105930000001884224D0FFE70198006840F600414A
:10594000C4F2000188421BD0FFE70198006840F2D2
:105950000041C4F20101884212D0FFE701980068BB
:1059600044F20001C4F20101884209D0FFE7019826
:10597000006841F60001C4F20001884212D1FFE73D
:1059800001980068806800F00700009000980628E1
:1059900007D0FFE701980168086840F0010008603F
:1059A000FFE706E001980168086840F00100086020
:1059B000FFE700208DF80B00FFE79DF80B0003B018
:1059C0007047000080B586B00490039100208DF8E8
:1059D0000B00FFE7049890F83C00012804D1FFE792
:1059E00002208DF81700ABE00499012081F83C00FB
:1059F000FFE7FFE70499022081F83D000498006862
:105A000080680190019820F077000190019820F4BF
:105A10007F400190019804990968886003980068A4
:105A20000090002872D0FFE7009810286ED0FFE7A2
:105A3000009820286AD0FFE70098302866D0FFE75A
:105A40000098402855D0FFE70098502837D0FFE74E
:105A50000098602840D0FFE7009870280BD0FFE73F
:105A60000098B0F5805F05D0FFE70098B0F5005FC3
:105A700016D052E055E004980068039B5A68996874
:105A8000DB6808F0D5F804980068806801900198F8
:105A900040F077000190019804990968886040E01F
:105AA00004980068039B5A689968DB6808F0C0F89E
:105AB00004980168886840F48040886031E0049868
:105AC0000068039A5168D26808F09EFA049800684A
:105AD000502108F0C7F824E004980068039A516840
